{
  "contractName": "BTMarketFactory",
  "abi": [
    {
      "inputs": [
        {
          "internalType": "contract Dai",
          "name": "_daiAddress",
          "type": "address"
        },
        {
          "internalType": "contract IaToken",
          "name": "_aTokenAddress",
          "type": "address"
        },
        {
          "internalType": "contract IAaveLendingPool",
          "name": "_aaveLpAddress",
          "type": "address"
        },
        {
          "internalType": "contract IAaveLendingPoolCore",
          "name": "_aaveLpcoreAddress",
          "type": "address"
        },
        {
          "internalType": "contract IRealitio",
          "name": "_realitioAddress",
          "type": "address"
        }
      ],
      "stateMutability": "nonpayable",
      "type": "constructor"
    },
    {
      "anonymous": false,
      "inputs": [
        {
          "indexed": false,
          "internalType": "address",
          "name": "contractAddress",
          "type": "address"
        }
      ],
      "name": "MarketCreated",
      "type": "event"
    },
    {
      "anonymous": false,
      "inputs": [
        {
          "indexed": true,
          "internalType": "address",
          "name": "previousOwner",
          "type": "address"
        },
        {
          "indexed": true,
          "internalType": "address",
          "name": "newOwner",
          "type": "address"
        }
      ],
      "name": "OwnershipTransferred",
      "type": "event"
    },
    {
      "anonymous": false,
      "inputs": [
        {
          "indexed": false,
          "internalType": "address",
          "name": "account",
          "type": "address"
        }
      ],
      "name": "Paused",
      "type": "event"
    },
    {
      "anonymous": false,
      "inputs": [
        {
          "indexed": false,
          "internalType": "address",
          "name": "account",
          "type": "address"
        }
      ],
      "name": "Unpaused",
      "type": "event"
    },
    {
      "inputs": [],
      "name": "aToken",
      "outputs": [
        {
          "internalType": "contract IaToken",
          "name": "",
          "type": "address"
        }
      ],
      "stateMutability": "view",
      "type": "function"
    },
    {
      "inputs": [],
      "name": "aaveLendingPool",
      "outputs": [
        {
          "internalType": "contract IAaveLendingPool",
          "name": "",
          "type": "address"
        }
      ],
      "stateMutability": "view",
      "type": "function"
    },
    {
      "inputs": [],
      "name": "aaveLendingPoolCore",
      "outputs": [
        {
          "internalType": "contract IAaveLendingPoolCore",
          "name": "",
          "type": "address"
        }
      ],
      "stateMutability": "view",
      "type": "function"
    },
    {
      "inputs": [],
      "name": "dai",
      "outputs": [
        {
          "internalType": "contract Dai",
          "name": "",
          "type": "address"
        }
      ],
      "stateMutability": "view",
      "type": "function"
    },
    {
      "inputs": [
        {
          "internalType": "address",
          "name": "",
          "type": "address"
        }
      ],
      "name": "mappingOfMarkets",
      "outputs": [
        {
          "internalType": "bool",
          "name": "",
          "type": "bool"
        }
      ],
      "stateMutability": "view",
      "type": "function"
    },
    {
      "inputs": [
        {
          "internalType": "uint256",
          "name": "",
          "type": "uint256"
        }
      ],
      "name": "markets",
      "outputs": [
        {
          "internalType": "address",
          "name": "",
          "type": "address"
        }
      ],
      "stateMutability": "view",
      "type": "function"
    },
    {
      "inputs": [],
      "name": "owner",
      "outputs": [
        {
          "internalType": "address",
          "name": "",
          "type": "address"
        }
      ],
      "stateMutability": "view",
      "type": "function"
    },
    {
      "inputs": [],
      "name": "paused",
      "outputs": [
        {
          "internalType": "bool",
          "name": "",
          "type": "bool"
        }
      ],
      "stateMutability": "view",
      "type": "function"
    },
    {
      "inputs": [],
      "name": "realitio",
      "outputs": [
        {
          "internalType": "contract IRealitio",
          "name": "",
          "type": "address"
        }
      ],
      "stateMutability": "view",
      "type": "function"
    },
    {
      "inputs": [],
      "name": "renounceOwnership",
      "outputs": [],
      "stateMutability": "nonpayable",
      "type": "function"
    },
    {
      "inputs": [
        {
          "internalType": "address",
          "name": "newOwner",
          "type": "address"
        }
      ],
      "name": "transferOwnership",
      "outputs": [],
      "stateMutability": "nonpayable",
      "type": "function"
    },
    {
      "inputs": [
        {
          "internalType": "uint256",
          "name": "_marketOpeningTime",
          "type": "uint256"
        },
        {
          "internalType": "uint32",
          "name": "_marketResolutionTime",
          "type": "uint32"
        },
        {
          "internalType": "address",
          "name": "_arbitrator",
          "type": "address"
        },
        {
          "internalType": "string",
          "name": "_question",
          "type": "string"
        },
        {
          "internalType": "uint256",
          "name": "_numberOfOutcomes",
          "type": "uint256"
        }
      ],
      "name": "createMarket",
      "outputs": [
        {
          "internalType": "contract BTMarket",
          "name": "",
          "type": "address"
        }
      ],
      "stateMutability": "nonpayable",
      "type": "function"
    },
    {
      "inputs": [],
      "name": "getMarkets",
      "outputs": [
        {
          "internalType": "address[]",
          "name": "",
          "type": "address[]"
        }
      ],
      "stateMutability": "view",
      "type": "function"
    },
    {
      "inputs": [],
      "name": "destroy",
      "outputs": [],
      "stateMutability": "nonpayable",
      "type": "function"
    },
    {
      "inputs": [
        {
          "internalType": "address payable",
          "name": "marketAddress",
          "type": "address"
        }
      ],
      "name": "disableMarket",
      "outputs": [
        {
          "internalType": "bool",
          "name": "",
          "type": "bool"
        }
      ],
      "stateMutability": "nonpayable",
      "type": "function"
    }
  ],
  "bytecode": "0x608060405234801561001057600080fd5b50604051613064380380613064833981810160405260a081101561003357600080fd5b5080516020820151604083015160608401516080909401519293919290919060006100656001600160e01b0361011e16565b600080546001600160a01b0319166001600160a01b0383169081178255604051929350917f8be0079c531659141344cd1fd0a4f28419497f9722a3daafe3b4186f6b6457e0908290a3506000805460ff60a01b19169055600180546001600160a01b03199081166001600160a01b03978816179091556002805482169587169590951790945560038054851693861693909317909255600480548416918516919091179055600580549092169216919091179055610122565b3390565b612f33806101316000396000f3fe60806040523480156200001157600080fd5b50600436106200010c5760003560e01c8063b1283e7711620000a5578063ec2c9016116200006f578063ec2c901614620002ac578063f2fde38b1462000308578063f4b9fa751462000331578063f55a898c146200033b576200010c565b8063b1283e77146200024f578063bc8802a2146200026f578063d3f8fb811462000279578063e9d337b814620002a2576200010c565b806383197ef011620000e757806383197ef014620001615780638da5cb5b146200016b5780639b1f4bda1462000175578063a0c1f15e1462000245576200010c565b80633ca5583314620001115780635c975abb1462000137578063715018a61462000155575b600080fd5b6200011b62000364565b604080516001600160a01b039092168252519081900360200190f35b6200014162000373565b604080519115158252519081900360200190f35b6200015f62000383565b005b6200015f62000429565b6200011b620004de565b6200011b600480360360a08110156200018d57600080fd5b81359163ffffffff602082013516916001600160a01b036040830135169190810190608081016060820135640100000000811115620001cb57600080fd5b820183602082011115620001de57600080fd5b803590602001918460018302840111640100000000831117156200020157600080fd5b91908080601f0160208091040260200160405190810160405280939291908181526020018383808284376000920191909152509295505091359250620004ed915050565b6200011b62000738565b6200011b600480360360208110156200026757600080fd5b503562000747565b6200011b6200076f565b62000141600480360360208110156200029157600080fd5b50356001600160a01b03166200077e565b6200011b62000793565b620002b6620007a2565b60408051602080825283518183015283519192839290830191858101910280838360005b83811015620002f4578181015183820152602001620002da565b505050509050019250505060405180910390f35b6200015f600480360360208110156200032057600080fd5b50356001600160a01b031662000806565b6200011b62000904565b62000141600480360360208110156200035357600080fd5b50356001600160a01b031662000913565b6004546001600160a01b031681565b600054600160a01b900460ff1690565b6200038d62000a3d565b6000546001600160a01b03908116911614620003df576040805162461bcd60e51b8152602060048201819052602482015260008051602062002ede833981519152604482015290519081900360640190fd5b600080546040516001600160a01b03909116907f8be0079c531659141344cd1fd0a4f28419497f9722a3daafe3b4186f6b6457e0908390a3600080546001600160a01b0319169055565b6200043362000a3d565b6000546001600160a01b0390811691161462000485576040805162461bcd60e51b8152602060048201819052602482015260008051602062002ede833981519152604482015290519081900360640190fd5b600054600160a01b900460ff16620004db576040805162461bcd60e51b815260206004820152601460248201527314185d5cd8589b194e881b9bdd081c185d5cd95960621b604482015290519081900360640190fd5b33ff5b6000546001600160a01b031690565b60008054600160a01b900460ff161562000541576040805162461bcd60e51b815260206004820152601060248201526f14185d5cd8589b194e881c185d5cd95960821b604482015290519081900360640190fd5b600180546002546003546004546005546040516000966001600160a01b0396871696958616959485169493841693909216918d918d918d918d918d913391906200058b9062000a41565b6001600160a01b03808e1682528c81166020808401919091528c821660408401528b821660608401528a8216608084015260a083018a905263ffffffff891660c084015287821660e084015261012083018690529084166101408301528215156101608301526101806101008301818152875191840191909152865190916101a08401919088019080838360005b838110156200063357818101518382015260200162000619565b50505050905090810190601f168015620006615780820380516001836020036101000a031916815260200191505b509d5050505050505050505050505050604051809103906000f0801580156200068e573d6000803e3d6000fd5b506007805460018082019092557fa66cc928b5edb82af9bd49922954155ab7b0942694bea4ce44661d9a8736c6880180546001600160a01b0319166001600160a01b038416908117909155600081815260066020908152604091829020805460ff191690941790935580519182525192935083927fb27af04ab132a0b6bba5de2a84bbbadcc31c20c33932936a992ae6ff951259c3929181900390910190a1509695505050505050565b6002546001600160a01b031681565b600781815481106200075557fe5b6000918252602090912001546001600160a01b0316905081565b6005546001600160a01b031681565b60066020526000908152604090205460ff1681565b6003546001600160a01b031681565b60606007805480602002602001604051908101604052809291908181526020018280548015620007fc57602002820191906000526020600020905b81546001600160a01b03168152600190910190602001808311620007dd575b5050505050905090565b6200081062000a3d565b6000546001600160a01b0390811691161462000862576040805162461bcd60e51b8152602060048201819052602482015260008051602062002ede833981519152604482015290519081900360640190fd5b6001600160a01b038116620008a95760405162461bcd60e51b815260040180806020018281038252602681526020018062002e876026913960400191505060405180910390fd5b600080546040516001600160a01b03808516939216917f8be0079c531659141344cd1fd0a4f28419497f9722a3daafe3b4186f6b6457e091a3600080546001600160a01b0319166001600160a01b0392909216919091179055565b6001546001600160a01b031681565b60006200091f62000a3d565b6000546001600160a01b0390811691161462000971576040805162461bcd60e51b8152602060048201819052602482015260008051602062002ede833981519152604482015290519081900360640190fd5b6001600160a01b038216600090815260066020526040902054829060ff16620009cc5760405162461bcd60e51b815260040180806020018281038252603181526020018062002ead6031913960400191505060405180910390fd5b826001600160a01b031663894ba8336040518163ffffffff1660e01b8152600401602060405180830381600087803b15801562000a0857600080fd5b505af115801562000a1d573d6000803e3d6000fd5b505050506040513d602081101562000a3457600080fd5b50519392505050565b3390565b6124378062000a508339019056fe608060405260456013553480156200001657600080fd5b50604051620024373803806200243783398181016040526101808110156200003d57600080fd5b815160208301516040808501516060860151608087015160a088015160c089015160e08a01516101008b0180519751999b989a969995989497939692959194919392820192846401000000008211156200009657600080fd5b908301906020820185811115620000ac57600080fd5b8251640100000000811182820188101715620000c757600080fd5b82525081516020918201929091019080838360005b83811015620000f6578181015183820152602001620000dc565b50505050905090810190601f168015620001245780820380516001836020036101000a031916815260200191505b5060409081526020820151908201516060909201519093509091506000620001546001600160e01b036200034416565b600080546001600160a01b0319166001600160a01b03831690811782556040519293509160008051602062002417833981519152908290a3506000805461ffff60a01b1916600160a81b1790556001600160a01b0382163314620001c657620001c6826001600160e01b036200034816565b600180546001600160a01b03199081166001600160a01b038f811691909117928390556002805483168f83161790556003805483168e83161790556004805483168d831617808255600580549094168d8416179093556040805163095ea7b360e01b815293831691840191909152600160ff1b60248401525192169163095ea7b3916044808201926020929091908290030181600087803b1580156200026b57600080fd5b505af115801562000280573d6000803e3d6000fd5b505050506040513d60208110156200029757600080fd5b505060068790556008805463ffffffff191663ffffffff8816179055600c839055600d805461ff001916610100831580159190910291909117909155600090620002e957506007879055601e6200030f565b6200030662093a80896200044f60201b620019441790919060201c565b60075550620151805b6002426200032b82888a868d866001600160e01b03620004b116565b60095550620005ff9d5050505050505050505050505050565b3390565b6200035b6001600160e01b036200034416565b6000546001600160a01b03908116911614620003be576040805162461bcd60e51b815260206004820181905260248201527f4f776e61626c653a2063616c6c6572206973206e6f7420746865206f776e6572604482015290519081900360640190fd5b6001600160a01b038116620004055760405162461bcd60e51b8152600401808060200182810382526026815260200180620023f16026913960400191505060405180910390fd5b600080546040516001600160a01b03808516939216916000805160206200241783398151915291a3600080546001600160a01b0319166001600160a01b0392909216919091179055565b600082820183811015620004aa576040805162461bcd60e51b815260206004820152601b60248201527f536166654d6174683a206164646974696f6e206f766572666c6f770000000000604482015290519081900360640190fd5b9392505050565b6000600560009054906101000a90046001600160a01b03166001600160a01b031663762c38fd8888888888886040518763ffffffff1660e01b81526004018087815260200180602001866001600160a01b03166001600160a01b031681526020018563ffffffff1663ffffffff1681526020018463ffffffff1663ffffffff168152602001838152602001828103825287818151815260200191508051906020019080838360005b838110156200057357818101518382015260200162000559565b50505050905090810190601f168015620005a15780820380516001836020036101000a031916815260200191505b50975050505050505050602060405180830381600087803b158015620005c657600080fd5b505af1158015620005db573d6000803e3d6000fd5b505050506040513d6020811015620005f257600080fd5b5051979650505050505050565b611de2806200060f6000396000f3fe60806040526004361061021e5760003560e01c80638043c9c011610123578063bc8802a2116100ab578063ee72b06d1161006f578063ee72b06d14610758578063f2fde38b1461076d578063f4b9fa75146107a0578063fd27b51e146107b5578063fe5e1853146107ca57610225565b8063bc8802a2146106a7578063c19d93fb146106bc578063cbf1304d146106f5578063cd9ea3421461072e578063e9d337b81461074357610225565b8063991d4f5d116100f2578063991d4f5d146105c15780639b34ae031461063e578063a0c1f15e14610653578063ad5d286214610668578063b06a5c521461069257610225565b80638043c9c01461054f578063894ba833146105645780638da5cb5b14610579578063906d62411461058e57610225565b80633ccfd60b116101a65780634b8755ca116101755780634b8755ca146104775780634ecc79f71461048c578063505b4cb2146104a15780635c975abb14610525578063715018a61461053a57610225565b80633ccfd60b1461040857806349200d771461041d5780634afe62b5146104325780634b3197131461046257610225565b806327acae74116101ed57806327acae74146102d057806333b16d931461036f57806335c1d34914610384578063367edd32146103ca5780633ca55833146103f357610225565b8063052fd203146102275780630b60365c14610263578063149b5d5814610278578063232ea3ad146102a257610225565b3661022557005b005b34801561023357600080fd5b506102516004803603602081101561024a57600080fd5b50356107df565b60408051918252519081900360200190f35b34801561026f57600080fd5b506102516107f1565b34801561028457600080fd5b506102516004803603602081101561029b57600080fd5b50356108a5565b3480156102ae57600080fd5b506102b76108c2565b6040805163ffffffff9092168252519081900360200190f35b3480156102dc57600080fd5b506102fa600480360360208110156102f357600080fd5b50356108ce565b6040805160208082528351818301528351919283929083019185019080838360005b8381101561033457818101518382015260200161031c565b50505050905090810190601f1680156103615780820380516001836020036101000a031916815260200191505b509250505060405180910390f35b34801561037b57600080fd5b50610225610969565b34801561039057600080fd5b506103ae600480360360208110156103a757600080fd5b5035610a29565b604080516001600160a01b039092168252519081900360200190f35b3480156103d657600080fd5b506103df610a50565b604080519115158252519081900360200190f35b3480156103ff57600080fd5b506103ae610b07565b34801561041457600080fd5b50610225610b16565b34801561042957600080fd5b50610251610d35565b34801561043e57600080fd5b506102256004803603604081101561045557600080fd5b5080359060200135610d3b565b34801561046e57600080fd5b50610251610f96565b34801561048357600080fd5b50610251610f9c565b34801561049857600080fd5b50610251610fa2565b3480156104ad57600080fd5b50610225600480360360408110156104c457600080fd5b813591908101906040810160208201356401000000008111156104e657600080fd5b8201836020820111156104f857600080fd5b8035906020019184600183028401116401000000008311171561051a57600080fd5b509092509050610fa8565b34801561053157600080fd5b506103df61101f565b34801561054657600080fd5b5061022561102f565b34801561055b57600080fd5b506102fa6110d1565b34801561057057600080fd5b506103df61112c565b34801561058557600080fd5b506103ae6111e0565b34801561059a57600080fd5b506103df600480360360208110156105b157600080fd5b50356001600160a01b03166111ef565b3480156105cd57600080fd5b50610225600480360360208110156105e457600080fd5b8101906020810181356401000000008111156105ff57600080fd5b82018360208201111561061157600080fd5b8035906020019184600183028401116401000000008311171561063357600080fd5b509092509050611204565b34801561064a57600080fd5b5061025161126d565b34801561065f57600080fd5b506103ae611273565b34801561067457600080fd5b506102516004803603602081101561068b57600080fd5b5035611282565b34801561069e57600080fd5b506102516112ff565b3480156106b357600080fd5b506103ae611305565b3480156106c857600080fd5b506106d1611314565b604051808260038111156106e157fe5b60ff16815260200191505060405180910390f35b34801561070157600080fd5b506102516004803603604081101561071857600080fd5b506001600160a01b03813516906020013561131d565b34801561073a57600080fd5b506103df61133a565b34801561074f57600080fd5b506103ae611348565b34801561076457600080fd5b50610225611357565b34801561077957600080fd5b506102256004803603602081101561079057600080fd5b50356001600160a01b03166114a7565b3480156107ac57600080fd5b506103ae61159f565b3480156107c157600080fd5b506102516115ae565b3480156107d657600080fd5b506102516115b4565b600f6020526000908152604090205481565b60008061080b6014546010546115ba90919063ffffffff16565b600254604080516370a0823160e01b815230600482015290519293506000926001600160a01b03909216916370a0823191602480820192602092909190829003018186803b15801561085c57600080fd5b505afa158015610870573d6000803e3d6000fd5b505050506040513d602081101561088657600080fd5b50519050600061089c828463ffffffff6115ba16565b93505050505b90565b336000908152600e60209081526040808320938352929052205490565b60085463ffffffff1681565b600b6020908152600091825260409182902080548351601f6002600019610100600186161502019093169290920491820184900484028101840190945280845290918301828280156109615780601f1061093657610100808354040283529160200191610961565b820191906000526020600020905b81548152906001019060200180831161094457829003601f168201915b505050505081565b600054600160a01b900460ff16156109bb576040805162461bcd60e51b815260206004820152601060248201526f14185d5cd8589b194e881c185d5cd95960821b604482015290519081900360640190fd5b6109c3611605565b610a14576040805162461bcd60e51b815260206004820152601860248201527f4f7261636c6520686173206e6f742066696e616c697365640000000000000000604482015290519081900360640190fd5b610a1c611685565b601355610a27611357565b565b60118181548110610a3657fe5b6000918252602090912001546001600160a01b0316905081565b6000610a5a61170b565b6000546001600160a01b03908116911614610aaa576040805162461bcd60e51b81526020600482018190526024820152600080516020611d67833981519152604482015290519081900360640190fd5b600054600160a01b900460ff16610aff576040805162461bcd60e51b815260206004820152601460248201527314185d5cd8589b194e881b9bdd081c185d5cd95960621b604482015290519081900360640190fd5b6108a261170f565b6004546001600160a01b031681565b600380600d5460ff166003811115610b2a57fe5b14610b665760405162461bcd60e51b8152600401808060200182810382526026815260200180611d876026913960400191505060405180910390fd5b600054600160a01b900460ff1615610bb8576040805162461bcd60e51b815260206004820152601060248201526f14185d5cd8589b194e881c185d5cd95960821b604482015290519081900360640190fd5b600054600160a81b900460ff16610c16576040805162461bcd60e51b815260206004820152601f60248201527f5265656e7472616e637947756172643a207265656e7472616e742063616c6c00604482015290519081900360640190fd5b6000805460ff60a81b191681553381526012602052604090205460ff1615610c79576040805162461bcd60e51b815260206004820152601160248201527020b63932b0b23c903bb4ba34323930bbb760791b604482015290519081900360640190fd5b336000908152601260205260408120805460ff19166001179055601354610c9f90611282565b90508015610d16576002546040805163db006a7560e01b81526004810184905290516001600160a01b039092169163db006a759160248082019260009290919082900301818387803b158015610cf457600080fd5b505af1158015610d08573d6000803e3d6000fd5b50505050610d1633826117b7565b610d1e611885565b50506000805460ff60a81b1916600160a81b179055565b600c5481565b600180600d5460ff166003811115610d4f57fe5b14610d8b5760405162461bcd60e51b8152600401808060200182810382526026815260200180611d876026913960400191505060405180910390fd5b600054600160a01b900460ff1615610ddd576040805162461bcd60e51b815260206004820152601060248201526f14185d5cd8589b194e881c185d5cd95960821b604482015290519081900360640190fd5b336000908152600e60209081526040808320868452909152902054610e3f57601180546001810182556000919091527f31ecc21a745e3968a04e9570e4425bc18fa8019c68028196b546d1669c200c680180546001600160a01b031916331790555b60405133907fef3b3ae531a4f494c95e537ec1fe385cfe5c1146cb4c1d850b24bad38595804990600090a2336000908152600e60209081526040808320868452909152902054610e95908363ffffffff61194416565b336000908152600e60209081526040808320878452909152902055601054610ec3908363ffffffff61194416565b6010556000838152600f6020526040902054610ee5908363ffffffff61194416565b6000848152600f6020526040902055600d54610100900460ff1615610f1257610f0d8261199e565b610f1c565b610f1c3383611a06565b60035460015460408051636968703360e11b81526001600160a01b039283166004820152602481018690526000604482018190529151929093169263d2d0e066926064808301939282900301818387803b158015610f7957600080fd5b505af1158015610f8d573d6000803e3d6000fd5b50505050505050565b60145481565b60075481565b60065481565b610fb061170b565b6000546001600160a01b03908116911614611000576040805162461bcd60e51b81526020600482018190526024820152600080516020611d67833981519152604482015290519081900360640190fd5b6000838152600b60205260409020611019908383611c87565b50505050565b600054600160a01b900460ff1690565b61103761170b565b6000546001600160a01b03908116911614611087576040805162461bcd60e51b81526020600482018190526024820152600080516020611d67833981519152604482015290519081900360640190fd5b600080546040516001600160a01b03909116907f8be0079c531659141344cd1fd0a4f28419497f9722a3daafe3b4186f6b6457e0908390a3600080546001600160a01b0319169055565b600a805460408051602060026001851615610100026000190190941693909304601f810184900484028201840190925281815292918301828280156109615780601f1061093657610100808354040283529160200191610961565b600061113661170b565b6000546001600160a01b03908116911614611186576040805162461bcd60e51b81526020600482018190526024820152600080516020611d67833981519152604482015290519081900360640190fd5b600054600160a01b900460ff16156111d8576040805162461bcd60e51b815260206004820152601060248201526f14185d5cd8589b194e881c185d5cd95960821b604482015290519081900360640190fd5b6108a2611a62565b6000546001600160a01b031690565b60126020526000908152604090205460ff1681565b61120c61170b565b6000546001600160a01b0390811691161461125c576040805162461bcd60e51b81526020600482018190526024820152600080516020611d67833981519152604482015290519081900360640190fd5b611268600a8383611c87565b505050565b60135481565b6002546001600160a01b031681565b336000908152600e60209081526040808320848452909152812054819080156112f85760006112af6107f1565b905060006112ca6014546010546115ba90919063ffffffff16565b905080156112f5576112f2816112e6858563ffffffff611af016565b9063ffffffff611b4916565b93505b50505b5092915050565b60095481565b6005546001600160a01b031681565b600d5460ff1681565b600e60209081526000928352604080842090915290825290205481565b600d54610100900460ff1681565b6003546001600160a01b031681565b600054600160a01b900460ff16156113a9576040805162461bcd60e51b815260206004820152601060248201526f14185d5cd8589b194e881c185d5cd95960821b604482015290519081900360640190fd5b6000600d5460ff1660038111156113bc57fe5b1480156113ca575042600654105b806113f157506001600d5460ff1660038111156113e357fe5b1480156113f1575042600754105b8061141a57506002600d5460ff16600381111561140a57fe5b14801561141a5750601354604514155b15610a2757600d5460ff16600381111561143057fe5b600101600381111561143e57fe5b600d805460ff1916600183600381111561145457fe5b0217905550600d546040517f551dc40198cc79684bb69e4931dba4ac16e4598792ee1c0a5000aeea366d7bb69160ff16908082600381111561149257fe5b60ff16815260200191505060405180910390a1565b6114af61170b565b6000546001600160a01b039081169116146114ff576040805162461bcd60e51b81526020600482018190526024820152600080516020611d67833981519152604482015290519081900360640190fd5b6001600160a01b0381166115445760405162461bcd60e51b8152600401808060200182810382526026815260200180611d206026913960400191505060405180910390fd5b600080546040516001600160a01b03808516939216917f8be0079c531659141344cd1fd0a4f28419497f9722a3daafe3b4186f6b6457e091a3600080546001600160a01b0319166001600160a01b0392909216919091179055565b6001546001600160a01b031681565b60115490565b60105481565b60006115fc83836040518060400160405280601e81526020017f536166654d6174683a207375627472616374696f6e206f766572666c6f770000815250611b8b565b90505b92915050565b60055460095460408051633fc6a14f60e11b81526004810192909252516000926001600160a01b031691637f8d429e916024808301926020929190829003018186803b15801561165457600080fd5b505afa158015611668573d6000803e3d6000fd5b505050506040513d602081101561167e57600080fd5b5051905090565b6005546009546040805163684e62bf60e11b815260048101929092525160009283926001600160a01b039091169163d09cc57e91602480820192602092909190829003018186803b1580156116d957600080fd5b505afa1580156116ed573d6000803e3d6000fd5b505050506040513d602081101561170357600080fd5b505191505090565b3390565b600054600160a01b900460ff16611764576040805162461bcd60e51b815260206004820152601460248201527314185d5cd8589b194e881b9bdd081c185d5cd95960621b604482015290519081900360640190fd5b6000805460ff60a01b191690557f5db9ee0a495bf2e6ff9c91a7834c1ba4fdd244a5e8aa4e537bd38aeae4b073aa61179a61170b565b604080516001600160a01b039092168252519081900360200190a1565b6001546040805163a9059cbb60e01b81526001600160a01b038581166004830152602482018590529151919092169163a9059cbb9160448083019260209291908290030181600087803b15801561180d57600080fd5b505af1158015611821573d6000803e3d6000fd5b505050506040513d602081101561183757600080fd5b5051611881576040805162461bcd60e51b815260206004820152601460248201527310d85cda081d1c985b9cd9995c8819985a5b195960621b604482015290519081900360640190fd5b5050565b60005b600c5481101561194157336000908152600e602090815260408083208484529091529020548015611938576014546118c6908263ffffffff61194416565b6014556002546040805163db006a7560e01b81526004810184905290516001600160a01b039092169163db006a759160248082019260009290919082900301818387803b15801561191657600080fd5b505af115801561192a573d6000803e3d6000fd5b5050505061193833826117b7565b50600101611888565b50565b6000828201838110156115fc576040805162461bcd60e51b815260206004820152601b60248201527f536166654d6174683a206164646974696f6e206f766572666c6f770000000000604482015290519081900360640190fd5b6001546040805163140e25ad60e31b81526004810184905290516001600160a01b039092169163a0712d689160248082019260009290919082900301818387803b1580156119eb57600080fd5b505af11580156119ff573d6000803e3d6000fd5b5050505050565b600154604080516323b872dd60e01b81526001600160a01b03858116600483015230602483015260448201859052915191909216916323b872dd9160648083019260209291908290030181600087803b15801561180d57600080fd5b600054600160a01b900460ff1615611ab4576040805162461bcd60e51b815260206004820152601060248201526f14185d5cd8589b194e881c185d5cd95960821b604482015290519081900360640190fd5b6000805460ff60a01b1916600160a01b1790557f62e78cea01bee320cd4e420270b5ea74000d11b0c9f74754ebdbfc544b05a25861179a61170b565b600082611aff575060006115ff565b82820282848281611b0c57fe5b04146115fc5760405162461bcd60e51b8152600401808060200182810382526021815260200180611d466021913960400191505060405180910390fd5b60006115fc83836040518060400160405280601a81526020017f536166654d6174683a206469766973696f6e206279207a65726f000000000000815250611c22565b60008184841115611c1a5760405162461bcd60e51b81526004018080602001828103825283818151815260200191508051906020019080838360005b83811015611bdf578181015183820152602001611bc7565b50505050905090810190601f168015611c0c5780820380516001836020036101000a031916815260200191505b509250505060405180910390fd5b505050900390565b60008183611c715760405162461bcd60e51b8152602060048201818152835160248401528351909283926044909101919085019080838360008315611bdf578181015183820152602001611bc7565b506000838581611c7d57fe5b0495945050505050565b828054600181600116156101000203166002900490600052602060002090601f016020900481019282601f10611cc85782800160ff19823516178555611cf5565b82800160010185558215611cf5579182015b82811115611cf5578235825591602001919060010190611cda565b50611d01929150611d05565b5090565b6108a291905b80821115611d015760008155600101611d0b56fe4f776e61626c653a206e6577206f776e657220697320746865207a65726f2061646472657373536166654d6174683a206d756c7469706c69636174696f6e206f766572666c6f774f776e61626c653a2063616c6c6572206973206e6f7420746865206f776e657266756e6374696f6e2063616e6e6f742062652063616c6c656420617420746869732074696d65a264697066735822122052fe941de3f6825d601e099e55602c32e8c5d0104aafc8a0043ce51df54be46e64736f6c634300060700334f776e61626c653a206e6577206f776e657220697320746865207a65726f20616464726573738be0079c531659141344cd1fd0a4f28419497f9722a3daafe3b4186f6b6457e04f776e61626c653a206e6577206f776e657220697320746865207a65726f20616464726573734d757374277665206265656e20637265617465642062792074686520636f72726573706f6e64696e6720666163746f72794f776e61626c653a2063616c6c6572206973206e6f7420746865206f776e6572a2646970667358221220e3647f8c2ab332e60c32ab5b8868b3cbe322d22a723eb077916a18bb4814222c64736f6c63430006070033",
  "immutableReferences": {},
  "source": "pragma solidity 0.6.7;\n\nimport \"@openzeppelin/contracts/access/Ownable.sol\";\nimport \"@openzeppelin/contracts/utils/Pausable.sol\";\nimport \"./BTMarket.sol\";\nimport \"./interfaces/IAave.sol\";\nimport \"./interfaces/IDai.sol\";\nimport \"./interfaces/IRealitio.sol\";\n\n\ncontract BTMarketFactory is Ownable, Pausable {\n  Dai public dai;\n  IaToken public aToken;\n  IAaveLendingPool public aaveLendingPool;\n  IAaveLendingPoolCore public aaveLendingPoolCore;\n  IRealitio public realitio;\n  mapping(address => bool) public mappingOfMarkets;\n  address[] public markets;\n\n  event MarketCreated(address contractAddress);\n\n  modifier createdByThisFactory(address marketAddress) {\n    require(\n      mappingOfMarkets[marketAddress],\n      \"Must've been created by the corresponding factory\"\n    );\n    _;\n  }\n\n  constructor(\n    Dai _daiAddress,\n    IaToken _aTokenAddress,\n    IAaveLendingPool _aaveLpAddress,\n    IAaveLendingPoolCore _aaveLpcoreAddress,\n    IRealitio _realitioAddress\n  ) public {\n    dai = _daiAddress;\n    aToken = _aTokenAddress;\n    aaveLendingPool = _aaveLpAddress;\n    aaveLendingPoolCore = _aaveLpcoreAddress;\n    realitio = _realitioAddress;\n  }\n\n  function createMarket(\n    uint256 _marketOpeningTime,\n    uint32 _marketResolutionTime,\n    address _arbitrator,\n    string memory _question,\n    uint256 _numberOfOutcomes\n  ) public /* onlyOwner TODO removed for development */ whenNotPaused returns (BTMarket) {\n    BTMarket newContract = new BTMarket({\n      _daiAddress: dai,\n      _aTokenAddress: aToken,\n      _aaveLpAddress: aaveLendingPool,\n      _aaveLpcoreAddress: aaveLendingPoolCore,\n      _realitioAddress: realitio,\n      _marketOpeningTime: _marketOpeningTime,\n      _marketResolutionTime: _marketResolutionTime,\n      _arbitrator: _arbitrator,\n      _question: _question,\n      _numberOfOutcomes: _numberOfOutcomes,\n      _owner: msg.sender,\n      _testMode: true\n    });\n    address newAddress = address(newContract);\n    markets.push(newAddress);\n    mappingOfMarkets[newAddress] = true;\n    emit MarketCreated(address(newAddress));\n    return newContract;\n  }\n\n  function getMarkets() public view returns (address[] memory) {\n    return markets;\n  }\n\n  function destroy() public onlyOwner whenPaused {\n    selfdestruct(msg.sender);\n  }\n\n  function disableMarket(address payable marketAddress)\n    public\n    onlyOwner\n    createdByThisFactory(marketAddress)\n    returns (bool)\n  {\n    return BTMarket(marketAddress).disableContract();\n  }\n}\n",
  "sourcePath": "/Users/mcplums/Repos/BetTogether/contracts/BTMarketFactory.sol",
  "compiler": {
    "name": "solc",
    "version": "0.6.7+commit.b8d736ae.Emscripten.clang"
  },
  "schemaVersion": "3.1.0",
  "updatedAt": "2020-05-12T10:02:36.704Z",
  "devdoc": {
    "methods": {
      "owner()": {
        "details": "Returns the address of the current owner."
      },
      "paused()": {
        "details": "Returns true if the contract is paused, and false otherwise."
      },
      "renounceOwnership()": {
        "details": "Leaves the contract without owner. It will not be possible to call `onlyOwner` functions anymore. Can only be called by the current owner.     * NOTE: Renouncing ownership will leave the contract without an owner, thereby removing any functionality that is only available to the owner."
      },
      "transferOwnership(address)": {
        "details": "Transfers ownership of the contract to a new account (`newOwner`). Can only be called by the current owner."
      }
    }
  },
  "userdoc": {
    "methods": {}
  }
}