{
  "contractName": "BTMarket",
  "abi": [
    {
      "inputs": [
        {
          "internalType": "contract Dai",
          "name": "_daiAddress",
          "type": "address"
        },
        {
          "internalType": "contract IaToken",
          "name": "_aTokenAddress",
          "type": "address"
        },
        {
          "internalType": "contract IAaveLendingPool",
          "name": "_aaveLpAddress",
          "type": "address"
        },
        {
          "internalType": "contract IAaveLendingPoolCore",
          "name": "_aaveLpcoreAddress",
          "type": "address"
        },
        {
          "internalType": "contract IRealitio",
          "name": "_realitioAddress",
          "type": "address"
        },
        {
          "internalType": "uint256",
          "name": "_marketOpeningTime",
          "type": "uint256"
        },
        {
          "internalType": "uint32",
          "name": "_marketResolutionTime",
          "type": "uint32"
        },
        {
          "internalType": "address",
          "name": "_arbitrator",
          "type": "address"
        },
        {
          "internalType": "string",
          "name": "_eventName",
          "type": "string"
        },
        {
          "internalType": "uint256",
          "name": "_numberOfOutcomes",
          "type": "uint256"
        },
        {
          "internalType": "uint32",
          "name": "_timeout",
          "type": "uint32"
        },
        {
          "internalType": "address",
          "name": "_owner",
          "type": "address"
        },
        {
          "internalType": "bool",
          "name": "_testMode",
          "type": "bool"
        }
      ],
      "stateMutability": "nonpayable",
      "type": "constructor"
    },
    {
      "anonymous": false,
      "inputs": [
        {
          "indexed": true,
          "internalType": "address",
          "name": "previousOwner",
          "type": "address"
        },
        {
          "indexed": true,
          "internalType": "address",
          "name": "newOwner",
          "type": "address"
        }
      ],
      "name": "OwnershipTransferred",
      "type": "event"
    },
    {
      "anonymous": false,
      "inputs": [
        {
          "indexed": true,
          "internalType": "address",
          "name": "participant",
          "type": "address"
        }
      ],
      "name": "ParticipantEntered",
      "type": "event"
    },
    {
      "anonymous": false,
      "inputs": [
        {
          "indexed": false,
          "internalType": "address",
          "name": "account",
          "type": "address"
        }
      ],
      "name": "Paused",
      "type": "event"
    },
    {
      "anonymous": false,
      "inputs": [
        {
          "indexed": false,
          "internalType": "enum BTMarket.States",
          "name": "state",
          "type": "uint8"
        }
      ],
      "name": "StateChanged",
      "type": "event"
    },
    {
      "anonymous": false,
      "inputs": [
        {
          "indexed": false,
          "internalType": "address",
          "name": "account",
          "type": "address"
        }
      ],
      "name": "Unpaused",
      "type": "event"
    },
    {
      "anonymous": false,
      "inputs": [
        {
          "indexed": true,
          "internalType": "address",
          "name": "winner",
          "type": "address"
        }
      ],
      "name": "WinnerSelected",
      "type": "event"
    },
    {
      "stateMutability": "payable",
      "type": "fallback",
      "payable": true
    },
    {
      "inputs": [],
      "name": "aToken",
      "outputs": [
        {
          "internalType": "contract IaToken",
          "name": "",
          "type": "address"
        }
      ],
      "stateMutability": "view",
      "type": "function",
      "constant": true
    },
    {
      "inputs": [],
      "name": "aaveLendingPool",
      "outputs": [
        {
          "internalType": "contract IAaveLendingPool",
          "name": "",
          "type": "address"
        }
      ],
      "stateMutability": "view",
      "type": "function",
      "constant": true
    },
    {
      "inputs": [],
      "name": "aaveLendingPoolCore",
      "outputs": [
        {
          "internalType": "contract IAaveLendingPoolCore",
          "name": "",
          "type": "address"
        }
      ],
      "stateMutability": "view",
      "type": "function",
      "constant": true
    },
    {
      "inputs": [
        {
          "internalType": "address",
          "name": "",
          "type": "address"
        },
        {
          "internalType": "uint256",
          "name": "",
          "type": "uint256"
        }
      ],
      "name": "balances",
      "outputs": [
        {
          "internalType": "uint256",
          "name": "",
          "type": "uint256"
        }
      ],
      "stateMutability": "view",
      "type": "function",
      "constant": true
    },
    {
      "inputs": [],
      "name": "dai",
      "outputs": [
        {
          "internalType": "contract Dai",
          "name": "",
          "type": "address"
        }
      ],
      "stateMutability": "view",
      "type": "function",
      "constant": true
    },
    {
      "inputs": [],
      "name": "eventName",
      "outputs": [
        {
          "internalType": "string",
          "name": "",
          "type": "string"
        }
      ],
      "stateMutability": "view",
      "type": "function",
      "constant": true
    },
    {
      "inputs": [
        {
          "internalType": "uint256",
          "name": "",
          "type": "uint256"
        }
      ],
      "name": "eventOutcomes",
      "outputs": [
        {
          "internalType": "string",
          "name": "",
          "type": "string"
        }
      ],
      "stateMutability": "view",
      "type": "function",
      "constant": true
    },
    {
      "inputs": [],
      "name": "marketLockingTime",
      "outputs": [
        {
          "internalType": "uint256",
          "name": "",
          "type": "uint256"
        }
      ],
      "stateMutability": "view",
      "type": "function",
      "constant": true
    },
    {
      "inputs": [],
      "name": "marketOpeningTime",
      "outputs": [
        {
          "internalType": "uint256",
          "name": "",
          "type": "uint256"
        }
      ],
      "stateMutability": "view",
      "type": "function",
      "constant": true
    },
    {
      "inputs": [],
      "name": "marketResolutionTime",
      "outputs": [
        {
          "internalType": "uint32",
          "name": "",
          "type": "uint32"
        }
      ],
      "stateMutability": "view",
      "type": "function",
      "constant": true
    },
    {
      "inputs": [],
      "name": "numberOfOutcomes",
      "outputs": [
        {
          "internalType": "uint256",
          "name": "",
          "type": "uint256"
        }
      ],
      "stateMutability": "view",
      "type": "function",
      "constant": true
    },
    {
      "inputs": [],
      "name": "owner",
      "outputs": [
        {
          "internalType": "address",
          "name": "",
          "type": "address"
        }
      ],
      "stateMutability": "view",
      "type": "function",
      "constant": true
    },
    {
      "inputs": [
        {
          "internalType": "uint256",
          "name": "",
          "type": "uint256"
        }
      ],
      "name": "participants",
      "outputs": [
        {
          "internalType": "address",
          "name": "",
          "type": "address"
        }
      ],
      "stateMutability": "view",
      "type": "function",
      "constant": true
    },
    {
      "inputs": [],
      "name": "paused",
      "outputs": [
        {
          "internalType": "bool",
          "name": "",
          "type": "bool"
        }
      ],
      "stateMutability": "view",
      "type": "function",
      "constant": true
    },
    {
      "inputs": [],
      "name": "questionId",
      "outputs": [
        {
          "internalType": "bytes32",
          "name": "",
          "type": "bytes32"
        }
      ],
      "stateMutability": "view",
      "type": "function",
      "constant": true
    },
    {
      "inputs": [],
      "name": "realitio",
      "outputs": [
        {
          "internalType": "contract IRealitio",
          "name": "",
          "type": "address"
        }
      ],
      "stateMutability": "view",
      "type": "function",
      "constant": true
    },
    {
      "inputs": [],
      "name": "renounceOwnership",
      "outputs": [],
      "stateMutability": "nonpayable",
      "type": "function"
    },
    {
      "inputs": [],
      "name": "state",
      "outputs": [
        {
          "internalType": "enum BTMarket.States",
          "name": "",
          "type": "uint8"
        }
      ],
      "stateMutability": "view",
      "type": "function",
      "constant": true
    },
    {
      "inputs": [],
      "name": "testMode",
      "outputs": [
        {
          "internalType": "bool",
          "name": "",
          "type": "bool"
        }
      ],
      "stateMutability": "view",
      "type": "function",
      "constant": true
    },
    {
      "inputs": [],
      "name": "totalBet",
      "outputs": [
        {
          "internalType": "uint256",
          "name": "",
          "type": "uint256"
        }
      ],
      "stateMutability": "view",
      "type": "function",
      "constant": true
    },
    {
      "inputs": [
        {
          "internalType": "uint256",
          "name": "",
          "type": "uint256"
        }
      ],
      "name": "totalBetPerOutcome",
      "outputs": [
        {
          "internalType": "uint256",
          "name": "",
          "type": "uint256"
        }
      ],
      "stateMutability": "view",
      "type": "function",
      "constant": true
    },
    {
      "inputs": [],
      "name": "totalWithdrawn",
      "outputs": [
        {
          "internalType": "uint256",
          "name": "",
          "type": "uint256"
        }
      ],
      "stateMutability": "view",
      "type": "function",
      "constant": true
    },
    {
      "inputs": [
        {
          "internalType": "address",
          "name": "newOwner",
          "type": "address"
        }
      ],
      "name": "transferOwnership",
      "outputs": [],
      "stateMutability": "nonpayable",
      "type": "function"
    },
    {
      "inputs": [],
      "name": "winningOutcome",
      "outputs": [
        {
          "internalType": "uint256",
          "name": "",
          "type": "uint256"
        }
      ],
      "stateMutability": "view",
      "type": "function",
      "constant": true
    },
    {
      "stateMutability": "payable",
      "type": "receive",
      "payable": true
    },
    {
      "inputs": [],
      "name": "getMarketSize",
      "outputs": [
        {
          "internalType": "uint256",
          "name": "",
          "type": "uint256"
        }
      ],
      "stateMutability": "view",
      "type": "function",
      "constant": true
    },
    {
      "inputs": [
        {
          "internalType": "uint256",
          "name": "_outcome",
          "type": "uint256"
        }
      ],
      "name": "getUserBet",
      "outputs": [
        {
          "internalType": "uint256",
          "name": "",
          "type": "uint256"
        }
      ],
      "stateMutability": "view",
      "type": "function",
      "constant": true
    },
    {
      "inputs": [],
      "name": "getTotalInterest",
      "outputs": [
        {
          "internalType": "uint256",
          "name": "",
          "type": "uint256"
        }
      ],
      "stateMutability": "view",
      "type": "function",
      "constant": true
    },
    {
      "inputs": [
        {
          "internalType": "uint256",
          "name": "_outcome",
          "type": "uint256"
        }
      ],
      "name": "getWinnings",
      "outputs": [
        {
          "internalType": "uint256",
          "name": "",
          "type": "uint256"
        }
      ],
      "stateMutability": "view",
      "type": "function",
      "constant": true
    },
    {
      "inputs": [
        {
          "internalType": "uint256",
          "name": "_outcome",
          "type": "uint256"
        },
        {
          "internalType": "uint256",
          "name": "_dai",
          "type": "uint256"
        }
      ],
      "name": "placeBet",
      "outputs": [],
      "stateMutability": "nonpayable",
      "type": "function"
    },
    {
      "inputs": [],
      "name": "determineWinner",
      "outputs": [],
      "stateMutability": "nonpayable",
      "type": "function"
    },
    {
      "inputs": [],
      "name": "incrementState",
      "outputs": [],
      "stateMutability": "nonpayable",
      "type": "function"
    },
    {
      "inputs": [],
      "name": "withdraw",
      "outputs": [],
      "stateMutability": "nonpayable",
      "type": "function"
    },
    {
      "inputs": [],
      "name": "disableContract",
      "outputs": [
        {
          "internalType": "bool",
          "name": "",
          "type": "bool"
        }
      ],
      "stateMutability": "nonpayable",
      "type": "function"
    }
  ],
  "bytecode": "0x608060405260456013553480156200001657600080fd5b50604051620035c0380380620035c083398181016040526101a08110156200003d57600080fd5b81019080805190602001909291908051906020019092919080519060200190929190805190602001909291908051906020019092919080519060200190929190805190602001909291908051906020019092919080516040519392919084640100000000821115620000ae57600080fd5b83820191506020820185811115620000c557600080fd5b8251866001820283011164010000000082111715620000e357600080fd5b8083526020830192505050908051906020019080838360005b8381101562000119578082015181840152602081019050620000fc565b50505050905090810190601f168015620001475780820380516001836020036101000a031916815260200191505b506040526020018051906020019092919080519060200190929190805190602001909291908051906020019092919050505060006200018b620006c860201b60201c565b9050806000806101000a81548173ffffffffffffffffffffffffffffffffffffffff021916908373ffffffffffffffffffffffffffffffffffffffff1602179055508073ffffffffffffffffffffffffffffffffffffffff16600073ffffffffffffffffffffffffffffffffffffffff167f8be0079c531659141344cd1fd0a4f28419497f9722a3daafe3b4186f6b6457e060405160405180910390a35060008060146101000a81548160ff0219169083151502179055506001600060156101000a81548160ff0219169083151502179055503373ffffffffffffffffffffffffffffffffffffffff168273ffffffffffffffffffffffffffffffffffffffff1614620002a457620002a382620006d060201b60201c565b5b8c600160006101000a81548173ffffffffffffffffffffffffffffffffffffffff021916908373ffffffffffffffffffffffffffffffffffffffff1602179055508b600260006101000a81548173ffffffffffffffffffffffffffffffffffffffff021916908373ffffffffffffffffffffffffffffffffffffffff1602179055508a600360006101000a81548173ffffffffffffffffffffffffffffffffffffffff021916908373ffffffffffffffffffffffffffffffffffffffff16021790555089600460006101000a81548173ffffffffffffffffffffffffffffffffffffffff021916908373ffffffffffffffffffffffffffffffffffffffff16021790555088600560006101000a81548173ffffffffffffffffffffffffffffffffffffffff021916908373ffffffffffffffffffffffffffffffffffffffff160217905550600160009054906101000a900473ffffffffffffffffffffffffffffffffffffffff1673ffffffffffffffffffffffffffffffffffffffff1663095ea7b3600460009054906101000a900473ffffffffffffffffffffffffffffffffffffffff167f80000000000000000000000000000000000000000000000000000000000000006040518363ffffffff1660e01b8152600401808373ffffffffffffffffffffffffffffffffffffffff1673ffffffffffffffffffffffffffffffffffffffff16815260200182815260200192505050602060405180830381600087803b158015620004d557600080fd5b505af1158015620004ea573d6000803e3d6000fd5b505050506040513d60208110156200050157600080fd5b8101908080519060200190929190505050508760068190555080156200052e578760078190555062000552565b6200054b62093a8089620008e860201b6200216c1790919060201c565b6007819055505b86600860006101000a81548163ffffffff021916908363ffffffff16021790555084600a90805190602001906200058b92919062000b06565b5083600c8190555080600d60016101000a81548160ff0219169083151502179055506040518060400160405280600c81526020017f446f6e616c64205472756d700000000000000000000000000000000000000000815250600b600080815260200190815260200160002090805190602001906200060b92919062000b06565b506040518060400160405280600981526020017f4a6f6520426964656e0000000000000000000000000000000000000000000000815250600b60006001815260200190815260200160002090805190602001906200066b92919062000b06565b5060006002905060606040518060800160405280605e815260200162003562605e91399050600060019050620006ac83838b898e866200097160201b60201c565b6009819055505050505050505050505050505050505062000bb5565b600033905090565b620006e0620006c860201b60201c565b73ffffffffffffffffffffffffffffffffffffffff166000809054906101000a900473ffffffffffffffffffffffffffffffffffffffff1673ffffffffffffffffffffffffffffffffffffffff1614620007a2576040517f08c379a00000000000000000000000000000000000000000000000000000000081526004018080602001828103825260208152602001807f4f776e61626c653a2063616c6c6572206973206e6f7420746865206f776e657281525060200191505060405180910390fd5b600073ffffffffffffffffffffffffffffffffffffffff168173ffffffffffffffffffffffffffffffffffffffff1614156200082a576040517f08c379a00000000000000000000000000000000000000000000000000000000081526004018080602001828103825260268152602001806200353c6026913960400191505060405180910390fd5b8073ffffffffffffffffffffffffffffffffffffffff166000809054906101000a900473ffffffffffffffffffffffffffffffffffffffff1673ffffffffffffffffffffffffffffffffffffffff167f8be0079c531659141344cd1fd0a4f28419497f9722a3daafe3b4186f6b6457e060405160405180910390a3806000806101000a81548173ffffffffffffffffffffffffffffffffffffffff021916908373ffffffffffffffffffffffffffffffffffffffff16021790555050565b60008082840190508381101562000967576040517f08c379a000000000000000000000000000000000000000000000000000000000815260040180806020018281038252601b8152602001807f536166654d6174683a206164646974696f6e206f766572666c6f77000000000081525060200191505060405180910390fd5b8091505092915050565b6000600560009054906101000a900473ffffffffffffffffffffffffffffffffffffffff1673ffffffffffffffffffffffffffffffffffffffff1663762c38fd8888888888886040518763ffffffff1660e01b815260040180878152602001806020018673ffffffffffffffffffffffffffffffffffffffff1673ffffffffffffffffffffffffffffffffffffffff1681526020018563ffffffff1663ffffffff1681526020018463ffffffff1663ffffffff168152602001838152602001828103825287818151815260200191508051906020019080838360005b8381101562000a6a57808201518184015260208101905062000a4d565b50505050905090810190601f16801562000a985780820380516001836020036101000a031916815260200191505b50975050505050505050602060405180830381600087803b15801562000abd57600080fd5b505af115801562000ad2573d6000803e3d6000fd5b505050506040513d602081101562000ae957600080fd5b810190808051906020019092919050505090509695505050505050565b828054600181600116156101000203166002900490600052602060002090601f016020900481019282601f1062000b4957805160ff191683800117855562000b7a565b8280016001018555821562000b7a579182015b8281111562000b7957825182559160200191906001019062000b5c565b5b50905062000b89919062000b8d565b5090565b62000bb291905b8082111562000bae57600081600090555060010162000b94565b5090565b90565b6129778062000bc56000396000f3fe6080604052600436106101f25760003560e01c80638043c9c01161010d578063c19d93fb116100a0578063ee72b06d1161006f578063ee72b06d1461097d578063f2fde38b14610994578063f4b9fa75146109e5578063fd27b51e14610a3c578063fe5e185314610a67576101f9565b8063c19d93fb1461084f578063cbf1304d14610888578063cd9ea342146108f7578063e9d337b814610926576101f9565b8063a0c1f15e116100dc578063a0c1f15e14610727578063ad5d28621461077e578063b06a5c52146107cd578063bc8802a2146107f8576101f9565b80638043c9c0146105e6578063894ba833146106765780638da5cb5b146106a55780639b34ae03146106fc576101f9565b806349200d77116101855780634ecc79f7116101545780634ecc79f7146104c15780635c975abb146104ec57806369fb06641461051b578063715018a6146105cf576101f9565b806349200d77146103fb5780634afe62b5146104265780634b3197131461046b5780634b8755ca14610496576101f9565b806335c1d349116101c157806335c1d349146102c35780633ca558331461033e5780633ccfd60b1461039557806342fb065d146103ac576101f9565b8063052fd203146101fb5780630b60365c1461024a578063232ea3ad1461027557806333b16d93146102ac576101f9565b366101f957005b005b34801561020757600080fd5b506102346004803603602081101561021e57600080fd5b8101908080359060200190929190505050610a92565b6040518082815260200191505060405180910390f35b34801561025657600080fd5b5061025f610aaa565b6040518082815260200191505060405180910390f35b34801561028157600080fd5b5061028a610bc4565b604051808263ffffffff1663ffffffff16815260200191505060405180910390f35b3480156102b857600080fd5b506102c1610bda565b005b3480156102cf57600080fd5b506102fc600480360360208110156102e657600080fd5b8101908080359060200190929190505050610cef565b604051808273ffffffffffffffffffffffffffffffffffffffff1673ffffffffffffffffffffffffffffffffffffffff16815260200191505060405180910390f35b34801561034a57600080fd5b50610353610d2b565b604051808273ffffffffffffffffffffffffffffffffffffffff1673ffffffffffffffffffffffffffffffffffffffff16815260200191505060405180910390f35b3480156103a157600080fd5b506103aa610d51565b005b3480156103b857600080fd5b506103e5600480360360208110156103cf57600080fd5b8101908080359060200190929190505050611042565b6040518082815260200191505060405180910390f35b34801561040757600080fd5b5061041061109c565b6040518082815260200191505060405180910390f35b34801561043257600080fd5b506104696004803603604081101561044957600080fd5b8101908080359060200190929190803590602001909291905050506110a2565b005b34801561047757600080fd5b506104806114d6565b6040518082815260200191505060405180910390f35b3480156104a257600080fd5b506104ab6114dc565b6040518082815260200191505060405180910390f35b3480156104cd57600080fd5b506104d66114e2565b6040518082815260200191505060405180910390f35b3480156104f857600080fd5b506105016114e8565b604051808215151515815260200191505060405180910390f35b34801561052757600080fd5b506105546004803603602081101561053e57600080fd5b81019080803590602001909291905050506114fe565b6040518080602001828103825283818151815260200191508051906020019080838360005b83811015610594578082015181840152602081019050610579565b50505050905090810190601f1680156105c15780820380516001836020036101000a031916815260200191505b509250505060405180910390f35b3480156105db57600080fd5b506105e46115ae565b005b3480156105f257600080fd5b506105fb611736565b6040518080602001828103825283818151815260200191508051906020019080838360005b8381101561063b578082015181840152602081019050610620565b50505050905090810190601f1680156106685780820380516001836020036101000a031916815260200191505b509250505060405180910390f35b34801561068257600080fd5b5061068b6117d4565b604051808215151515815260200191505060405180910390f35b3480156106b157600080fd5b506106ba6118aa565b604051808273ffffffffffffffffffffffffffffffffffffffff1673ffffffffffffffffffffffffffffffffffffffff16815260200191505060405180910390f35b34801561070857600080fd5b506107116118d3565b6040518082815260200191505060405180910390f35b34801561073357600080fd5b5061073c6118d9565b604051808273ffffffffffffffffffffffffffffffffffffffff1673ffffffffffffffffffffffffffffffffffffffff16815260200191505060405180910390f35b34801561078a57600080fd5b506107b7600480360360208110156107a157600080fd5b81019080803590602001909291905050506118ff565b6040518082815260200191505060405180910390f35b3480156107d957600080fd5b506107e26119bb565b6040518082815260200191505060405180910390f35b34801561080457600080fd5b5061080d6119c1565b604051808273ffffffffffffffffffffffffffffffffffffffff1673ffffffffffffffffffffffffffffffffffffffff16815260200191505060405180910390f35b34801561085b57600080fd5b506108646119e7565b6040518082600381111561087457fe5b60ff16815260200191505060405180910390f35b34801561089457600080fd5b506108e1600480360360408110156108ab57600080fd5b81019080803573ffffffffffffffffffffffffffffffffffffffff169060200190929190803590602001909291905050506119fa565b6040518082815260200191505060405180910390f35b34801561090357600080fd5b5061090c611a1f565b604051808215151515815260200191505060405180910390f35b34801561093257600080fd5b5061093b611a32565b604051808273ffffffffffffffffffffffffffffffffffffffff1673ffffffffffffffffffffffffffffffffffffffff16815260200191505060405180910390f35b34801561098957600080fd5b50610992611a58565b005b3480156109a057600080fd5b506109e3600480360360208110156109b757600080fd5b81019080803573ffffffffffffffffffffffffffffffffffffffff169060200190929190505050611c34565b005b3480156109f157600080fd5b506109fa611e41565b604051808273ffffffffffffffffffffffffffffffffffffffff1673ffffffffffffffffffffffffffffffffffffffff16815260200191505060405180910390f35b348015610a4857600080fd5b50610a51611e67565b6040518082815260200191505060405180910390f35b348015610a7357600080fd5b50610a7c611e74565b6040518082815260200191505060405180910390f35b600f6020528060005260406000206000915090505481565b600080610ac4601454601054611e7a90919063ffffffff16565b90506000600260009054906101000a900473ffffffffffffffffffffffffffffffffffffffff1673ffffffffffffffffffffffffffffffffffffffff166370a08231306040518263ffffffff1660e01b8152600401808273ffffffffffffffffffffffffffffffffffffffff1673ffffffffffffffffffffffffffffffffffffffff16815260200191505060206040518083038186803b158015610b6757600080fd5b505afa158015610b7b573d6000803e3d6000fd5b505050506040513d6020811015610b9157600080fd5b810190808051906020019092919050505090506000610bb98383611e7a90919063ffffffff16565b905080935050505090565b600860009054906101000a900463ffffffff1681565b600060149054906101000a900460ff1615610c5d576040517f08c379a00000000000000000000000000000000000000000000000000000000081526004018080602001828103825260108152602001807f5061757361626c653a207061757365640000000000000000000000000000000081525060200191505060405180910390fd5b610c65611ec4565b610cd7576040517f08c379a00000000000000000000000000000000000000000000000000000000081526004018080602001828103825260188152602001807f4f7261636c6520686173206e6f742066696e616c69736564000000000000000081525060200191505060405180910390fd5b610cdf611f7b565b601381905550610ced611a58565b565b60118181548110610cfc57fe5b906000526020600020016000915054906101000a900473ffffffffffffffffffffffffffffffffffffffff1681565b600460009054906101000a900473ffffffffffffffffffffffffffffffffffffffff1681565b6003806003811115610d5f57fe5b600d60009054906101000a900460ff166003811115610d7a57fe5b14610dd0576040517f08c379a000000000000000000000000000000000000000000000000000000000815260040180806020018281038252602681526020018061291c6026913960400191505060405180910390fd5b600060149054906101000a900460ff1615610e53576040517f08c379a00000000000000000000000000000000000000000000000000000000081526004018080602001828103825260108152602001807f5061757361626c653a207061757365640000000000000000000000000000000081525060200191505060405180910390fd5b601260003373ffffffffffffffffffffffffffffffffffffffff1673ffffffffffffffffffffffffffffffffffffffff16815260200190815260200160002060009054906101000a900460ff1615610f13576040517f08c379a00000000000000000000000000000000000000000000000000000000081526004018080602001828103825260118152602001807f416c72656164792077697468647261776e00000000000000000000000000000081525060200191505060405180910390fd5b6001601260003373ffffffffffffffffffffffffffffffffffffffff1673ffffffffffffffffffffffffffffffffffffffff16815260200190815260200160002060006101000a81548160ff021916908315150217905550610f7361203a565b6000610f806013546118ff565b9050600081111561103e57610fa08160145461216c90919063ffffffff16565b601481905550600260009054906101000a900473ffffffffffffffffffffffffffffffffffffffff1673ffffffffffffffffffffffffffffffffffffffff1663db006a75826040518263ffffffff1660e01b815260040180828152602001915050600060405180830381600087803b15801561101b57600080fd5b505af115801561102f573d6000803e3d6000fd5b5050505061103d33826121f4565b5b5050565b6000600e60003373ffffffffffffffffffffffffffffffffffffffff1673ffffffffffffffffffffffffffffffffffffffff1681526020019081526020016000206000838152602001908152602001600020549050919050565b600c5481565b60018060038111156110b057fe5b600d60009054906101000a900460ff1660038111156110cb57fe5b14611121576040517f08c379a000000000000000000000000000000000000000000000000000000000815260040180806020018281038252602681526020018061291c6026913960400191505060405180910390fd5b600060149054906101000a900460ff16156111a4576040517f08c379a00000000000000000000000000000000000000000000000000000000081526004018080602001828103825260108152602001807f5061757361626c653a207061757365640000000000000000000000000000000081525060200191505060405180910390fd5b6000600e60003373ffffffffffffffffffffffffffffffffffffffff1673ffffffffffffffffffffffffffffffffffffffff1681526020019081526020016000206000858152602001908152602001600020541415611261576011339080600181540180825580915050600190039060005260206000200160009091909190916101000a81548173ffffffffffffffffffffffffffffffffffffffff021916908373ffffffffffffffffffffffffffffffffffffffff1602179055505b3373ffffffffffffffffffffffffffffffffffffffff167fef3b3ae531a4f494c95e537ec1fe385cfe5c1146cb4c1d850b24bad38595804960405160405180910390a261130782600e60003373ffffffffffffffffffffffffffffffffffffffff1673ffffffffffffffffffffffffffffffffffffffff16815260200190815260200160002060008681526020019081526020016000205461216c90919063ffffffff16565b600e60003373ffffffffffffffffffffffffffffffffffffffff1673ffffffffffffffffffffffffffffffffffffffff1681526020019081526020016000206000858152602001908152602001600020819055506113708260105461216c90919063ffffffff16565b60108190555061139c82600f60008681526020019081526020016000205461216c90919063ffffffff16565b600f600085815260200190815260200160002081905550600d60019054906101000a900460ff16156113d6576113d18261234e565b6113e1565b6113e033836123de565b5b600360009054906101000a900473ffffffffffffffffffffffffffffffffffffffff1673ffffffffffffffffffffffffffffffffffffffff1663d2d0e066600160009054906101000a900473ffffffffffffffffffffffffffffffffffffffff168460006040518463ffffffff1660e01b8152600401808473ffffffffffffffffffffffffffffffffffffffff1673ffffffffffffffffffffffffffffffffffffffff1681526020018381526020018261ffff1681526020019350505050600060405180830381600087803b1580156114b957600080fd5b505af11580156114cd573d6000803e3d6000fd5b50505050505050565b60145481565b60075481565b60065481565b60008060149054906101000a900460ff16905090565b600b6020528060005260406000206000915090508054600181600116156101000203166002900480601f0160208091040260200160405190810160405280929190818152602001828054600181600116156101000203166002900480156115a65780601f1061157b576101008083540402835291602001916115a6565b820191906000526020600020905b81548152906001019060200180831161158957829003601f168201915b505050505081565b6115b661256c565b73ffffffffffffffffffffffffffffffffffffffff166000809054906101000a900473ffffffffffffffffffffffffffffffffffffffff1673ffffffffffffffffffffffffffffffffffffffff1614611677576040517f08c379a00000000000000000000000000000000000000000000000000000000081526004018080602001828103825260208152602001807f4f776e61626c653a2063616c6c6572206973206e6f7420746865206f776e657281525060200191505060405180910390fd5b600073ffffffffffffffffffffffffffffffffffffffff166000809054906101000a900473ffffffffffffffffffffffffffffffffffffffff1673ffffffffffffffffffffffffffffffffffffffff167f8be0079c531659141344cd1fd0a4f28419497f9722a3daafe3b4186f6b6457e060405160405180910390a360008060006101000a81548173ffffffffffffffffffffffffffffffffffffffff021916908373ffffffffffffffffffffffffffffffffffffffff160217905550565b600a8054600181600116156101000203166002900480601f0160208091040260200160405190810160405280929190818152602001828054600181600116156101000203166002900480156117cc5780601f106117a1576101008083540402835291602001916117cc565b820191906000526020600020905b8154815290600101906020018083116117af57829003601f168201915b505050505081565b60006117de61256c565b73ffffffffffffffffffffffffffffffffffffffff166000809054906101000a900473ffffffffffffffffffffffffffffffffffffffff1673ffffffffffffffffffffffffffffffffffffffff161461189f576040517f08c379a00000000000000000000000000000000000000000000000000000000081526004018080602001828103825260208152602001807f4f776e61626c653a2063616c6c6572206973206e6f7420746865206f776e657281525060200191505060405180910390fd5b6118a7612574565b90565b60008060009054906101000a900473ffffffffffffffffffffffffffffffffffffffff16905090565b60135481565b600260009054906101000a900473ffffffffffffffffffffffffffffffffffffffff1681565b6000806000600e60003373ffffffffffffffffffffffffffffffffffffffff1673ffffffffffffffffffffffffffffffffffffffff168152602001908152602001600020600085815260200190815260200160002054905060008111156119b157600061196a610aaa565b90506000611985601454601054611e7a90919063ffffffff16565b90506119ac8161199e848661267e90919063ffffffff16565b61270490919063ffffffff16565b935050505b8192505050919050565b60095481565b600560009054906101000a900473ffffffffffffffffffffffffffffffffffffffff1681565b600d60009054906101000a900460ff1681565b600e602052816000526040600020602052806000526040600020600091509150505481565b600d60019054906101000a900460ff1681565b600360009054906101000a900473ffffffffffffffffffffffffffffffffffffffff1681565b600060149054906101000a900460ff1615611adb576040517f08c379a00000000000000000000000000000000000000000000000000000000081526004018080602001828103825260108152602001807f5061757361626c653a207061757365640000000000000000000000000000000081525060200191505060405180910390fd5b60006003811115611ae857fe5b600d60009054906101000a900460ff166003811115611b0357fe5b148015611b11575042600654105b80611b4e575060016003811115611b2457fe5b600d60009054906101000a900460ff166003811115611b3f57fe5b148015611b4d575042600754105b5b80611b8d575060026003811115611b6157fe5b600d60009054906101000a900460ff166003811115611b7c57fe5b148015611b8c5750604560135414155b5b15611c32576001600d60009054906101000a900460ff166003811115611baf57fe5b016003811115611bbb57fe5b600d60006101000a81548160ff02191690836003811115611bd857fe5b02179055507f551dc40198cc79684bb69e4931dba4ac16e4598792ee1c0a5000aeea366d7bb6600d60009054906101000a900460ff1660405180826003811115611c1e57fe5b60ff16815260200191505060405180910390a15b565b611c3c61256c565b73ffffffffffffffffffffffffffffffffffffffff166000809054906101000a900473ffffffffffffffffffffffffffffffffffffffff1673ffffffffffffffffffffffffffffffffffffffff1614611cfd576040517f08c379a00000000000000000000000000000000000000000000000000000000081526004018080602001828103825260208152602001807f4f776e61626c653a2063616c6c6572206973206e6f7420746865206f776e657281525060200191505060405180910390fd5b600073ffffffffffffffffffffffffffffffffffffffff168173ffffffffffffffffffffffffffffffffffffffff161415611d83576040517f08c379a00000000000000000000000000000000000000000000000000000000081526004018080602001828103825260268152602001806128d56026913960400191505060405180910390fd5b8073ffffffffffffffffffffffffffffffffffffffff166000809054906101000a900473ffffffffffffffffffffffffffffffffffffffff1673ffffffffffffffffffffffffffffffffffffffff167f8be0079c531659141344cd1fd0a4f28419497f9722a3daafe3b4186f6b6457e060405160405180910390a3806000806101000a81548173ffffffffffffffffffffffffffffffffffffffff021916908373ffffffffffffffffffffffffffffffffffffffff16021790555050565b600160009054906101000a900473ffffffffffffffffffffffffffffffffffffffff1681565b6000601180549050905090565b60105481565b6000611ebc83836040518060400160405280601e81526020017f536166654d6174683a207375627472616374696f6e206f766572666c6f77000081525061274e565b905092915050565b6000600560009054906101000a900473ffffffffffffffffffffffffffffffffffffffff1673ffffffffffffffffffffffffffffffffffffffff16637f8d429e6009546040518263ffffffff1660e01b81526004018082815260200191505060206040518083038186803b158015611f3b57600080fd5b505afa158015611f4f573d6000803e3d6000fd5b505050506040513d6020811015611f6557600080fd5b8101908080519060200190929190505050905090565b600080600560009054906101000a900473ffffffffffffffffffffffffffffffffffffffff1673ffffffffffffffffffffffffffffffffffffffff1663d09cc57e6009546040518263ffffffff1660e01b81526004018082815260200191505060206040518083038186803b158015611ff357600080fd5b505afa158015612007573d6000803e3d6000fd5b505050506040513d602081101561201d57600080fd5b810190808051906020019092919050505090508060001c91505090565b60008090505b600c54811015612169576000600e60003373ffffffffffffffffffffffffffffffffffffffff1673ffffffffffffffffffffffffffffffffffffffff1681526020019081526020016000206000838152602001908152602001600020549050600081111561215b576120bd8160145461216c90919063ffffffff16565b601481905550600260009054906101000a900473ffffffffffffffffffffffffffffffffffffffff1673ffffffffffffffffffffffffffffffffffffffff1663db006a75826040518263ffffffff1660e01b815260040180828152602001915050600060405180830381600087803b15801561213857600080fd5b505af115801561214c573d6000803e3d6000fd5b5050505061215a33826121f4565b5b508080600101915050612040565b50565b6000808284019050838110156121ea576040517f08c379a000000000000000000000000000000000000000000000000000000000815260040180806020018281038252601b8152602001807f536166654d6174683a206164646974696f6e206f766572666c6f77000000000081525060200191505060405180910390fd5b8091505092915050565b600160009054906101000a900473ffffffffffffffffffffffffffffffffffffffff1673ffffffffffffffffffffffffffffffffffffffff1663a9059cbb83836040518363ffffffff1660e01b8152600401808373ffffffffffffffffffffffffffffffffffffffff1673ffffffffffffffffffffffffffffffffffffffff16815260200182815260200192505050602060405180830381600087803b15801561229d57600080fd5b505af11580156122b1573d6000803e3d6000fd5b505050506040513d60208110156122c757600080fd5b810190808051906020019092919050505061234a576040517f08c379a00000000000000000000000000000000000000000000000000000000081526004018080602001828103825260148152602001807f43617368207472616e73666572206661696c656400000000000000000000000081525060200191505060405180910390fd5b5050565b600160009054906101000a900473ffffffffffffffffffffffffffffffffffffffff1673ffffffffffffffffffffffffffffffffffffffff1663a0712d68826040518263ffffffff1660e01b815260040180828152602001915050600060405180830381600087803b1580156123c357600080fd5b505af11580156123d7573d6000803e3d6000fd5b5050505050565b600160009054906101000a900473ffffffffffffffffffffffffffffffffffffffff1673ffffffffffffffffffffffffffffffffffffffff166323b872dd8330846040518463ffffffff1660e01b8152600401808473ffffffffffffffffffffffffffffffffffffffff1673ffffffffffffffffffffffffffffffffffffffff1681526020018373ffffffffffffffffffffffffffffffffffffffff1673ffffffffffffffffffffffffffffffffffffffff1681526020018281526020019350505050602060405180830381600087803b1580156124bb57600080fd5b505af11580156124cf573d6000803e3d6000fd5b505050506040513d60208110156124e557600080fd5b8101908080519060200190929190505050612568576040517f08c379a00000000000000000000000000000000000000000000000000000000081526004018080602001828103825260148152602001807f43617368207472616e73666572206661696c656400000000000000000000000081525060200191505060405180910390fd5b5050565b600033905090565b600060149054906101000a900460ff16156125f7576040517f08c379a00000000000000000000000000000000000000000000000000000000081526004018080602001828103825260108152602001807f5061757361626c653a207061757365640000000000000000000000000000000081525060200191505060405180910390fd5b6001600060146101000a81548160ff0219169083151502179055507f62e78cea01bee320cd4e420270b5ea74000d11b0c9f74754ebdbfc544b05a25861263b61256c565b604051808273ffffffffffffffffffffffffffffffffffffffff1673ffffffffffffffffffffffffffffffffffffffff16815260200191505060405180910390a1565b60008083141561269157600090506126fe565b60008284029050828482816126a257fe5b04146126f9576040517f08c379a00000000000000000000000000000000000000000000000000000000081526004018080602001828103825260218152602001806128fb6021913960400191505060405180910390fd5b809150505b92915050565b600061274683836040518060400160405280601a81526020017f536166654d6174683a206469766973696f6e206279207a65726f00000000000081525061280e565b905092915050565b60008383111582906127fb576040517f08c379a00000000000000000000000000000000000000000000000000000000081526004018080602001828103825283818151815260200191508051906020019080838360005b838110156127c05780820151818401526020810190506127a5565b50505050905090810190601f1680156127ed5780820380516001836020036101000a031916815260200191505b509250505060405180910390fd5b5060008385039050809150509392505050565b600080831182906128ba576040517f08c379a00000000000000000000000000000000000000000000000000000000081526004018080602001828103825283818151815260200191508051906020019080838360005b8381101561287f578082015181840152602081019050612864565b50505050905090810190601f1680156128ac5780820380516001836020036101000a031916815260200191505b509250505060405180910390fd5b5060008385816128c657fe5b04905080915050939250505056fe4f776e61626c653a206e6577206f776e657220697320746865207a65726f2061646472657373536166654d6174683a206d756c7469706c69636174696f6e206f766572666c6f7766756e6374696f6e2063616e6e6f742062652063616c6c656420617420746869732074696d65a26469706673582212209b45dc5fb0f9970645921be097155866ae2529e58fbb70d2dc54ac7dd14f1fde64736f6c634300060600334f776e61626c653a206e6577206f776e657220697320746865207a65726f206164647265737357686f2077696c6c2077696e2074686520323032302055532047656e6572616c20456c656374696f6ee2909f22446f6e616c64205472756d70222c224a6f6520426964656e22e2909f6e6577732d706f6c6974696373e2909f656e5f5553",
  "immutableReferences": {},
  "source": "pragma solidity 0.6.6;\n\nimport \"@nomiclabs/buidler/console.sol\";\nimport \"@openzeppelin/contracts/token/ERC20/ERC20.sol\";\nimport \"@openzeppelin/contracts/math/SafeMath.sol\";\nimport \"@openzeppelin/contracts/utils/ReentrancyGuard.sol\";\nimport \"@openzeppelin/contracts/utils/Pausable.sol\";\nimport \"@openzeppelin/contracts/access/Ownable.sol\";\nimport \"./interfaces/IAave.sol\";\nimport \"./interfaces/IDai.sol\";\nimport \"./interfaces/IRealitio.sol\";\n\ncontract BTMarket is Ownable, Pausable, ReentrancyGuard {\n    using SafeMath for uint;\n\n    ////////////////////////////////////\n    //////// VARIABLES /////////////////\n    ////////////////////////////////////\n\n    //////// Externals ////////\n    Dai public dai;\n    IaToken public aToken;\n    IAaveLendingPool public aaveLendingPool;\n    IAaveLendingPoolCore public aaveLendingPoolCore;\n    IRealitio public realitio;\n\n    //////// Market Details ////////\n    uint public marketOpeningTime; // when the market is opened for bets\n    uint public marketLockingTime; // when the market is no longer open for bets\n    uint32 public marketResolutionTime; // the time the realitio market is able to be answered, uint32 cos Realitio needs it\n    bytes32 public questionId; // the question ID of the question on realitio\n    string public eventName;\n    mapping (uint => string) public eventOutcomes;\n    uint public numberOfOutcomes; \n    enum States {WAITING, OPEN, LOCKED, WITHDRAW}\n    States public state; \n    bool public testMode;\n\n    //////// Betting variables ////////\n    mapping(address => mapping(uint => uint)) public balances;\n    mapping(uint => uint) public totalBetPerOutcome;\n    uint public totalBet;\n    address[] public participants;\n    mapping (address => bool) withdrawnBool; //so users can only withdraw once\n    uint public winningOutcome = 69; // start with incorrect winning outcome\n    uint public totalWithdrawn;\n    \n\n    ////////////////////////////////////\n    //////// CONSTRUCTOR ///////////////\n    ////////////////////////////////////\n    constructor(\n        Dai _daiAddress,\n        IaToken _aTokenAddress,\n        IAaveLendingPool _aaveLpAddress,\n        IAaveLendingPoolCore _aaveLpcoreAddress,\n        IRealitio _realitioAddress,\n        uint _marketOpeningTime,\n        uint32 _marketResolutionTime,\n        address _arbitrator,\n        string memory _eventName,\n        uint _numberOfOutcomes,\n        uint32 _timeout,\n        address _owner,\n        bool _testMode\n    ) public {\n        if (_owner != msg.sender) {\n            transferOwnership(_owner);\n        }\n\n        // Externals\n        dai = _daiAddress;\n        aToken = _aTokenAddress;\n        aaveLendingPool = _aaveLpAddress;\n        aaveLendingPoolCore = _aaveLpcoreAddress;\n        realitio = _realitioAddress;\n\n        // Approvals\n        dai.approve(address(aaveLendingPoolCore), 2**255);\n\n        // Pass arguments to public variables\n        marketOpeningTime = _marketOpeningTime;\n        if (_testMode) {\n            marketLockingTime = _marketOpeningTime;\n        } else {\n            marketLockingTime = _marketOpeningTime.add(604800); // one week \n        }\n        marketResolutionTime = _marketResolutionTime;\n        eventName = _eventName;\n        numberOfOutcomes = _numberOfOutcomes;\n        testMode = _testMode;\n        // We need to get the below from an argument eventually\n        // ... but I'm getting \"Stack too deep, try using fewer variables\" error\n        eventOutcomes[0] = \"Donald Trump\";\n        eventOutcomes[1] = \"Joe Biden\";\n\n        // Create the question on Realitio\n        uint _templateId = 2;\n        // ultimately this needs to be created from the input arguments (i.e. concatenated):\n        string memory _question = 'Who will win the 2020 US General Election\"Donald Trump\",\"Joe Biden\"news-politicsen_US';\n        // timeout = how long the market can be disputed on realitio after an answer has been submitted, 24 hours\n        uint _nonce = 1;\n        // uint32 _timeout = 86400;\n        questionId = _postQuestion(\n            _templateId,\n            _question,\n            _arbitrator,\n            _timeout,\n            _marketResolutionTime,\n            _nonce\n        );\n    }\n\n    ////////////////////////////////////\n    //////// EVENTS ////////////////////\n    ////////////////////////////////////\n    event ParticipantEntered(address indexed participant);\n    event StateChanged(States state);\n    event WinnerSelected(address indexed winner);\n\n\n    ////////////////////////////////////\n    ////////// VIEW FUNCTIONS //////////\n    ////////////////////////////////////\n    function getMarketSize() public view returns (uint) {\n        return participants.length;\n    }\n\n    function getUserBet(uint _outcome) public view returns (uint) {\n        return balances[msg.sender][_outcome];\n    }\n\n    function getTotalInterest() public view returns (uint) {\n        uint _remainingPrincipal = totalBet.sub(totalWithdrawn);\n        uint _totalAdaibalances = aToken.balanceOf(address(this)); \n        uint _totalInterest = _totalAdaibalances.sub(_remainingPrincipal);\n        return _totalInterest;\n    }\n\n    /// @dev returns total winnings for a user based on current accumulated interest\n    /// @dev ... and assuming the passed _outcome wins. \n    function getWinnings(uint _outcome) public view returns (uint) {\n        uint _winnings;\n        uint _amountBetOnOutcome = balances[msg.sender][_outcome];\n        if (_amountBetOnOutcome > 0) {\n            uint _totalInterest = getTotalInterest();\n            uint _remainingPrincipal = totalBet.sub(totalWithdrawn);\n            _winnings = (_amountBetOnOutcome.mul(_totalInterest)).div(_remainingPrincipal);\n        }\n        return _winnings;\n    }\n\n    // need the interest rate for this\n    // function getEstimatedReturn(uint _outcome) returns (uint) {\n    //     uint _timeLocked = marketResolutionTime.\n    // }\n\n    ////////////////////////////////////\n    //////// MODIFIERS /////////////////\n    ////////////////////////////////////\n    modifier checkState(States currentState) {\n        require(\n            state == currentState,\n            \"function cannot be called at this time\"\n        );\n        _;\n    }\n\n    ////////////////////////////////////\n    //////// REALIITO FUNCTIONS ////////\n    ////////////////////////////////////\n\n    /// @notice posts the question to realit.io\n    function _postQuestion(\n        uint template_id,\n        string memory question,\n        address arbitrator,\n        uint32 timeout,\n        uint32 opening_ts,\n        uint nonce\n    ) internal returns (bytes32) {\n        return\n            realitio.askQuestion(\n                template_id,\n                question,\n                arbitrator,\n                timeout,\n                opening_ts,\n                nonce\n            );\n    }\n\n    /// @notice gets the winning outcome from realitio\n    /// @dev this function call will revert if it has not yet resolved\n    function _determineWinner() internal view returns(uint) {\n        bytes32 _winningOutcome = realitio.resultFor(questionId);\n        return uint(_winningOutcome);\n    }\n\n    /// @notice has the question been finalized on realitio?\n    function _isQuestionFinalized() internal view returns (bool) {\n        return realitio.isFinalized(questionId);\n    }\n\n    ////////////////////////////////////\n    ////////// DAI FUNCTIONS///////////\n    ////////////////////////////////////\n\n    // * internal * \n    /// @notice common function for all outgoing DAI transfers\n    function _sendCash(address _to, uint _amount) internal { \n        require(dai.transfer(_to,_amount), \"Cash transfer failed\"); \n    }\n\n    // * internal * \n    /// @notice common function for all incoming DAI transfers\n    function _receiveCash(address _from, uint _amount) internal {  \n        require(dai.transferFrom(_from, address(this), _amount), \"Cash transfer failed\");\n    }\n\n    // * internal * \n    /// @notice mints Dai, will only work on a testnet\n    function _mintCash(uint _amount) internal {  \n        dai.mint(_amount); \n    }\n\n    ////////////////////////////////////\n    //////// EXTERNAL FUNCTIONS ////////\n    ////////////////////////////////////\n\n    function placeBet(uint _outcome, uint _dai)\n        external\n        checkState(States.OPEN)\n        whenNotPaused\n    {\n        if (balances[msg.sender][_outcome] == 0) participants.push(msg.sender);\n        emit ParticipantEntered(msg.sender);\n        // increment three variables- balances, totalBet, totalBetPerOutcome\n        balances[msg.sender][_outcome] = balances[msg.sender][_outcome].add(_dai);\n        totalBet = totalBet.add(_dai);\n        totalBetPerOutcome[_outcome] = totalBetPerOutcome[_outcome].add(_dai);\n        if (testMode) {\n            _mintCash(_dai);\n        } else {\n            _receiveCash(msg.sender, _dai);\n        }\n        aaveLendingPool.deposit(address(dai), _dai, 0);\n    }\n\n    function determineWinner() \n        external\n        whenNotPaused\n    {\n        require(_isQuestionFinalized(), \"Oracle has not finalised\");\n        winningOutcome = _determineWinner();\n        incrementState();\n    }\n\n    // keep this public as it's called by determineWinner\n    function incrementState() \n        public \n        whenNotPaused \n    {\n        if(((state == States.WAITING) && (marketOpeningTime < now)) ||  \n           ((state == States.OPEN) && (marketLockingTime < now)) || \n           ((state == States.LOCKED) && (winningOutcome != 69)) )\n        {\n            state = States(uint(state) + 1);\n            emit StateChanged(state);\n        }\n    }\n\n    function withdraw()\n        external\n        checkState(States.WITHDRAW)\n        whenNotPaused\n    {\n        require(!withdrawnBool[msg.sender], \"Already withdrawn\");\n        withdrawnBool[msg.sender] = true;\n        // first, return user's original bet\n        _returnBet();\n        // get winnings\n        uint _winnings = getWinnings(winningOutcome);\n        if (_winnings > 0) {\n            // effects\n            totalWithdrawn = totalWithdrawn.add(_winnings); \n            // interaction\n            aToken.redeem(_winnings);\n            _sendCash(msg.sender, _winnings);\n        }\n    }\n\n    ////////////////////////////////////\n    //////// INTERNAL FUNCTIONS ////////\n    ////////////////////////////////////\n    function _returnBet() \n        internal \n    {\n        for (uint i = 0; i < numberOfOutcomes; i++) \n        {\n            uint _amountBetOnOutcome = balances[msg.sender][i];\n            if (_amountBetOnOutcome > 0) {\n                // effects\n                totalWithdrawn = totalWithdrawn.add(_amountBetOnOutcome);\n                // interactions\n                aToken.redeem(_amountBetOnOutcome);\n                _sendCash(msg.sender, _amountBetOnOutcome);\n            }\n        }\n    }\n\n    ////////////////////////////////////\n    ///// BOILERPLATE FUNCTIONS ////////\n    ////////////////////////////////////\n\n    function disableContract() public onlyOwner returns (bool) {\n        _pause();\n    }\n\n    receive() external payable {}\n\n    fallback() external payable {}\n}\n",
  "sourcePath": "/Users/mcplums/Repos/BetTogether/contracts/BTMarket.sol",
  "compiler": {
    "name": "solc",
    "version": "0.6.6+commit.6c089d02.Emscripten.clang"
  },
  "schemaVersion": "3.1.0",
  "updatedAt": "2020-05-05T14:52:41.140Z",
  "networkType": "ethereum",
  "devdoc": {
    "methods": {
      "getWinnings(uint256)": {
        "details": "returns total winnings for a user based on current accumulated interest... and assuming the passed _outcome wins. "
      },
      "owner()": {
        "details": "Returns the address of the current owner."
      },
      "paused()": {
        "details": "Returns true if the contract is paused, and false otherwise."
      },
      "renounceOwnership()": {
        "details": "Leaves the contract without owner. It will not be possible to call `onlyOwner` functions anymore. Can only be called by the current owner.     * NOTE: Renouncing ownership will leave the contract without an owner, thereby removing any functionality that is only available to the owner."
      },
      "transferOwnership(address)": {
        "details": "Transfers ownership of the contract to a new account (`newOwner`). Can only be called by the current owner."
      }
    }
  },
  "userdoc": {
    "methods": {
      "constructor": "///////////////////////////////// ///// CONSTRUCTOR /////////////// /////////////////////////////////",
      "disableContract()": {
        "notice": "///////////////////////////////// // BOILERPLATE FUNCTIONS //////// /////////////////////////////////"
      },
      "getMarketSize()": {
        "notice": "///////////////////////////////// /////// VIEW FUNCTIONS ////////// /////////////////////////////////"
      },
      "placeBet(uint256,uint256)": {
        "notice": "///////////////////////////////// ///// EXTERNAL FUNCTIONS //////// /////////////////////////////////"
      }
    }
  }
}