{
  "contractName": "BTMarketFactory",
  "abi": [
    {
      "inputs": [
        {
          "internalType": "contract Dai",
          "name": "_daiAddress",
          "type": "address"
        },
        {
          "internalType": "contract IaToken",
          "name": "_aTokenAddress",
          "type": "address"
        },
        {
          "internalType": "contract IAaveLendingPool",
          "name": "_aaveLpAddress",
          "type": "address"
        },
        {
          "internalType": "contract IAaveLendingPoolCore",
          "name": "_aaveLpcoreAddress",
          "type": "address"
        },
        {
          "internalType": "contract IRealitio",
          "name": "_realitioAddress",
          "type": "address"
        }
      ],
      "stateMutability": "nonpayable",
      "type": "constructor"
    },
    {
      "anonymous": false,
      "inputs": [
        {
          "indexed": false,
          "internalType": "address",
          "name": "contractAddress",
          "type": "address"
        }
      ],
      "name": "MarketPotCreated",
      "type": "event"
    },
    {
      "anonymous": false,
      "inputs": [
        {
          "indexed": true,
          "internalType": "address",
          "name": "previousOwner",
          "type": "address"
        },
        {
          "indexed": true,
          "internalType": "address",
          "name": "newOwner",
          "type": "address"
        }
      ],
      "name": "OwnershipTransferred",
      "type": "event"
    },
    {
      "anonymous": false,
      "inputs": [
        {
          "indexed": false,
          "internalType": "address",
          "name": "account",
          "type": "address"
        }
      ],
      "name": "Paused",
      "type": "event"
    },
    {
      "anonymous": false,
      "inputs": [
        {
          "indexed": false,
          "internalType": "address",
          "name": "account",
          "type": "address"
        }
      ],
      "name": "Unpaused",
      "type": "event"
    },
    {
      "inputs": [],
      "name": "aToken",
      "outputs": [
        {
          "internalType": "contract IaToken",
          "name": "",
          "type": "address"
        }
      ],
      "stateMutability": "view",
      "type": "function"
    },
    {
      "inputs": [],
      "name": "aaveLendingPool",
      "outputs": [
        {
          "internalType": "contract IAaveLendingPool",
          "name": "",
          "type": "address"
        }
      ],
      "stateMutability": "view",
      "type": "function"
    },
    {
      "inputs": [],
      "name": "aaveLendingPoolCore",
      "outputs": [
        {
          "internalType": "contract IAaveLendingPoolCore",
          "name": "",
          "type": "address"
        }
      ],
      "stateMutability": "view",
      "type": "function"
    },
    {
      "inputs": [],
      "name": "dai",
      "outputs": [
        {
          "internalType": "contract Dai",
          "name": "",
          "type": "address"
        }
      ],
      "stateMutability": "view",
      "type": "function"
    },
    {
      "inputs": [
        {
          "internalType": "uint256",
          "name": "",
          "type": "uint256"
        }
      ],
      "name": "marketPots",
      "outputs": [
        {
          "internalType": "address",
          "name": "",
          "type": "address"
        }
      ],
      "stateMutability": "view",
      "type": "function"
    },
    {
      "inputs": [],
      "name": "owner",
      "outputs": [
        {
          "internalType": "address",
          "name": "",
          "type": "address"
        }
      ],
      "stateMutability": "view",
      "type": "function"
    },
    {
      "inputs": [],
      "name": "paused",
      "outputs": [
        {
          "internalType": "bool",
          "name": "",
          "type": "bool"
        }
      ],
      "stateMutability": "view",
      "type": "function"
    },
    {
      "inputs": [],
      "name": "realitio",
      "outputs": [
        {
          "internalType": "contract IRealitio",
          "name": "",
          "type": "address"
        }
      ],
      "stateMutability": "view",
      "type": "function"
    },
    {
      "inputs": [],
      "name": "renounceOwnership",
      "outputs": [],
      "stateMutability": "nonpayable",
      "type": "function"
    },
    {
      "inputs": [
        {
          "internalType": "address",
          "name": "newOwner",
          "type": "address"
        }
      ],
      "name": "transferOwnership",
      "outputs": [],
      "stateMutability": "nonpayable",
      "type": "function"
    },
    {
      "inputs": [
        {
          "internalType": "uint256",
          "name": "_marketOpeningTime",
          "type": "uint256"
        },
        {
          "internalType": "uint32",
          "name": "_marketResolutionTime",
          "type": "uint32"
        },
        {
          "internalType": "address",
          "name": "_arbitrator",
          "type": "address"
        },
        {
          "internalType": "string",
          "name": "_eventName",
          "type": "string"
        },
        {
          "internalType": "uint256",
          "name": "_numberOfOutcomes",
          "type": "uint256"
        },
        {
          "internalType": "uint32",
          "name": "_timeout",
          "type": "uint32"
        }
      ],
      "name": "createMarket",
      "outputs": [
        {
          "internalType": "contract BTMarket",
          "name": "",
          "type": "address"
        }
      ],
      "stateMutability": "nonpayable",
      "type": "function"
    },
    {
      "inputs": [],
      "name": "getMarketPots",
      "outputs": [
        {
          "internalType": "address[]",
          "name": "",
          "type": "address[]"
        }
      ],
      "stateMutability": "view",
      "type": "function"
    },
    {
      "inputs": [],
      "name": "destroy",
      "outputs": [],
      "stateMutability": "nonpayable",
      "type": "function"
    },
    {
      "inputs": [
        {
          "internalType": "address payable",
          "name": "potAddress",
          "type": "address"
        }
      ],
      "name": "disableMarketPot",
      "outputs": [
        {
          "internalType": "bool",
          "name": "",
          "type": "bool"
        }
      ],
      "stateMutability": "nonpayable",
      "type": "function"
    }
  ],
  "bytecode": "0x608060405234801561001057600080fd5b50604051614d00380380614d00833981810160405260a081101561003357600080fd5b810190808051906020019092919080519060200190929190805190602001909291908051906020019092919080519060200190929190505050600061007c61028360201b60201c565b9050806000806101000a81548173ffffffffffffffffffffffffffffffffffffffff021916908373ffffffffffffffffffffffffffffffffffffffff1602179055508073ffffffffffffffffffffffffffffffffffffffff16600073ffffffffffffffffffffffffffffffffffffffff167f8be0079c531659141344cd1fd0a4f28419497f9722a3daafe3b4186f6b6457e060405160405180910390a35060008060146101000a81548160ff02191690831515021790555084600160006101000a81548173ffffffffffffffffffffffffffffffffffffffff021916908373ffffffffffffffffffffffffffffffffffffffff16021790555083600260006101000a81548173ffffffffffffffffffffffffffffffffffffffff021916908373ffffffffffffffffffffffffffffffffffffffff16021790555082600360006101000a81548173ffffffffffffffffffffffffffffffffffffffff021916908373ffffffffffffffffffffffffffffffffffffffff16021790555081600460006101000a81548173ffffffffffffffffffffffffffffffffffffffff021916908373ffffffffffffffffffffffffffffffffffffffff16021790555080600560006101000a81548173ffffffffffffffffffffffffffffffffffffffff021916908373ffffffffffffffffffffffffffffffffffffffff160217905550505050505061028b565b600033905090565b614a668061029a6000396000f3fe60806040523480156200001157600080fd5b5060043610620001005760003560e01c80639b61c5e61162000099578063df233e38116200006f578063df233e3814620003a4578063e9d337b814620004f9578063f2fde38b1462000545578063f4b9fa75146200058c5762000100565b80639b61c5e614620002ad578063a0c1f15e146200030c578063bc8802a214620003585762000100565b80635c975abb11620000db5780635c975abb1462000225578063715018a6146200024957806383197ef014620002555780638da5cb5b14620002615762000100565b806313e7d60214620001055780631872e48a14620001685780633ca5583314620001d9575b600080fd5b6200010f620005d8565b6040518080602001828103825283818151815260200191508051906020019060200280838360005b838110156200015457808201518184015260208101905062000137565b505050509050019250505060405180910390f35b62000197600480360360208110156200018057600080fd5b810190808035906020019092919050505062000668565b604051808273ffffffffffffffffffffffffffffffffffffffff1673ffffffffffffffffffffffffffffffffffffffff16815260200191505060405180910390f35b620001e3620006a5565b604051808273ffffffffffffffffffffffffffffffffffffffff1673ffffffffffffffffffffffffffffffffffffffff16815260200191505060405180910390f35b6200022f620006cb565b604051808215151515815260200191505060405180910390f35b62000253620006e1565b005b6200025f6200086c565b005b6200026b620009d4565b604051808273ffffffffffffffffffffffffffffffffffffffff1673ffffffffffffffffffffffffffffffffffffffff16815260200191505060405180910390f35b620002f260048036036020811015620002c557600080fd5b81019080803573ffffffffffffffffffffffffffffffffffffffff169060200190929190505050620009fd565b604051808215151515815260200191505060405180910390f35b6200031662000c1a565b604051808273ffffffffffffffffffffffffffffffffffffffff1673ffffffffffffffffffffffffffffffffffffffff16815260200191505060405180910390f35b6200036262000c40565b604051808273ffffffffffffffffffffffffffffffffffffffff1673ffffffffffffffffffffffffffffffffffffffff16815260200191505060405180910390f35b620004b7600480360360c0811015620003bc57600080fd5b8101908080359060200190929190803563ffffffff169060200190929190803573ffffffffffffffffffffffffffffffffffffffff169060200190929190803590602001906401000000008111156200041457600080fd5b8201836020820111156200042757600080fd5b803590602001918460018302840111640100000000831117156200044a57600080fd5b91908080601f016020809104026020016040519081016040528093929190818152602001838380828437600081840152601f19601f82011690508083019250505050505050919291929080359060200190929190803563ffffffff16906020019092919050505062000c66565b604051808273ffffffffffffffffffffffffffffffffffffffff1673ffffffffffffffffffffffffffffffffffffffff16815260200191505060405180910390f35b62000503620011e8565b604051808273ffffffffffffffffffffffffffffffffffffffff1673ffffffffffffffffffffffffffffffffffffffff16815260200191505060405180910390f35b6200058a600480360360208110156200055d57600080fd5b81019080803573ffffffffffffffffffffffffffffffffffffffff1690602001909291905050506200120e565b005b6200059662001420565b604051808273ffffffffffffffffffffffffffffffffffffffff1673ffffffffffffffffffffffffffffffffffffffff16815260200191505060405180910390f35b606060078054806020026020016040519081016040528092919081815260200182805480156200065e57602002820191906000526020600020905b8160009054906101000a900473ffffffffffffffffffffffffffffffffffffffff1673ffffffffffffffffffffffffffffffffffffffff168152602001906001019080831162000613575b5050505050905090565b600781815481106200067657fe5b906000526020600020016000915054906101000a900473ffffffffffffffffffffffffffffffffffffffff1681565b600460009054906101000a900473ffffffffffffffffffffffffffffffffffffffff1681565b60008060149054906101000a900460ff16905090565b620006eb62001446565b73ffffffffffffffffffffffffffffffffffffffff166000809054906101000a900473ffffffffffffffffffffffffffffffffffffffff1673ffffffffffffffffffffffffffffffffffffffff1614620007ad576040517f08c379a00000000000000000000000000000000000000000000000000000000081526004018080602001828103825260208152602001807f4f776e61626c653a2063616c6c6572206973206e6f7420746865206f776e657281525060200191505060405180910390fd5b600073ffffffffffffffffffffffffffffffffffffffff166000809054906101000a900473ffffffffffffffffffffffffffffffffffffffff1673ffffffffffffffffffffffffffffffffffffffff167f8be0079c531659141344cd1fd0a4f28419497f9722a3daafe3b4186f6b6457e060405160405180910390a360008060006101000a81548173ffffffffffffffffffffffffffffffffffffffff021916908373ffffffffffffffffffffffffffffffffffffffff160217905550565b6200087662001446565b73ffffffffffffffffffffffffffffffffffffffff166000809054906101000a900473ffffffffffffffffffffffffffffffffffffffff1673ffffffffffffffffffffffffffffffffffffffff161462000938576040517f08c379a00000000000000000000000000000000000000000000000000000000081526004018080602001828103825260208152602001807f4f776e61626c653a2063616c6c6572206973206e6f7420746865206f776e657281525060200191505060405180910390fd5b600060149054906101000a900460ff16620009bb576040517f08c379a00000000000000000000000000000000000000000000000000000000081526004018080602001828103825260148152602001807f5061757361626c653a206e6f742070617573656400000000000000000000000081525060200191505060405180910390fd5b3373ffffffffffffffffffffffffffffffffffffffff16ff5b60008060009054906101000a900473ffffffffffffffffffffffffffffffffffffffff16905090565b600062000a0962001446565b73ffffffffffffffffffffffffffffffffffffffff166000809054906101000a900473ffffffffffffffffffffffffffffffffffffffff1673ffffffffffffffffffffffffffffffffffffffff161462000acb576040517f08c379a00000000000000000000000000000000000000000000000000000000081526004018080602001828103825260208152602001807f4f776e61626c653a2063616c6c6572206973206e6f7420746865206f776e657281525060200191505060405180910390fd5b81600660008273ffffffffffffffffffffffffffffffffffffffff1673ffffffffffffffffffffffffffffffffffffffff16815260200190815260200160002060009054906101000a900460ff1662000b8c576040517f08c379a000000000000000000000000000000000000000000000000000000000815260040180806020018281038252601f8152602001807f4d7573742062652063726561746564206279207468697320666163746f72790081525060200191505060405180910390fd5b8273ffffffffffffffffffffffffffffffffffffffff1663894ba8336040518163ffffffff1660e01b8152600401602060405180830381600087803b15801562000bd557600080fd5b505af115801562000bea573d6000803e3d6000fd5b505050506040513d602081101562000c0157600080fd5b8101908080519060200190929190505050915050919050565b600260009054906101000a900473ffffffffffffffffffffffffffffffffffffffff1681565b600560009054906101000a900473ffffffffffffffffffffffffffffffffffffffff1681565b600062000c7262001446565b73ffffffffffffffffffffffffffffffffffffffff166000809054906101000a900473ffffffffffffffffffffffffffffffffffffffff1673ffffffffffffffffffffffffffffffffffffffff161462000d34576040517f08c379a00000000000000000000000000000000000000000000000000000000081526004018080602001828103825260208152602001807f4f776e61626c653a2063616c6c6572206973206e6f7420746865206f776e657281525060200191505060405180910390fd5b600060149054906101000a900460ff161562000db8576040517f08c379a00000000000000000000000000000000000000000000000000000000081526004018080602001828103825260108152602001807f5061757361626c653a207061757365640000000000000000000000000000000081525060200191505060405180910390fd5b6000600160009054906101000a900473ffffffffffffffffffffffffffffffffffffffff16600260009054906101000a900473ffffffffffffffffffffffffffffffffffffffff16600360009054906101000a900473ffffffffffffffffffffffffffffffffffffffff16600460009054906101000a900473ffffffffffffffffffffffffffffffffffffffff16600560009054906101000a900473ffffffffffffffffffffffffffffffffffffffff168c8c8c8c8c8c33600160405162000e80906200144e565b808e73ffffffffffffffffffffffffffffffffffffffff1673ffffffffffffffffffffffffffffffffffffffff1681526020018d73ffffffffffffffffffffffffffffffffffffffff1673ffffffffffffffffffffffffffffffffffffffff1681526020018c73ffffffffffffffffffffffffffffffffffffffff1673ffffffffffffffffffffffffffffffffffffffff1681526020018b73ffffffffffffffffffffffffffffffffffffffff1673ffffffffffffffffffffffffffffffffffffffff1681526020018a73ffffffffffffffffffffffffffffffffffffffff1673ffffffffffffffffffffffffffffffffffffffff1681526020018981526020018863ffffffff1663ffffffff1681526020018773ffffffffffffffffffffffffffffffffffffffff1673ffffffffffffffffffffffffffffffffffffffff168152602001806020018681526020018563ffffffff1663ffffffff1681526020018473ffffffffffffffffffffffffffffffffffffffff1673ffffffffffffffffffffffffffffffffffffffff16815260200183151515158152602001828103825287818151815260200191508051906020019080838360005b83811015620010575780820151818401526020810190506200103a565b50505050905090810190601f168015620010855780820380516001836020036101000a031916815260200191505b509e505050505050505050505050505050604051809103906000f080158015620010b3573d6000803e3d6000fd5b50905060008190506007819080600181540180825580915050600190039060005260206000200160009091909190916101000a81548173ffffffffffffffffffffffffffffffffffffffff021916908373ffffffffffffffffffffffffffffffffffffffff1602179055506001600660008373ffffffffffffffffffffffffffffffffffffffff1673ffffffffffffffffffffffffffffffffffffffff16815260200190815260200160002060006101000a81548160ff0219169083151502179055507f0deee0527b07156901d7508e4bd67d956c271b5aeae37456043042f74b7d602f81604051808273ffffffffffffffffffffffffffffffffffffffff1673ffffffffffffffffffffffffffffffffffffffff16815260200191505060405180910390a181925050509695505050505050565b600360009054906101000a900473ffffffffffffffffffffffffffffffffffffffff1681565b6200121862001446565b73ffffffffffffffffffffffffffffffffffffffff166000809054906101000a900473ffffffffffffffffffffffffffffffffffffffff1673ffffffffffffffffffffffffffffffffffffffff1614620012da576040517f08c379a00000000000000000000000000000000000000000000000000000000081526004018080602001828103825260208152602001807f4f776e61626c653a2063616c6c6572206973206e6f7420746865206f776e657281525060200191505060405180910390fd5b600073ffffffffffffffffffffffffffffffffffffffff168173ffffffffffffffffffffffffffffffffffffffff16141562001362576040517f08c379a000000000000000000000000000000000000000000000000000000000815260040180806020018281038252602681526020018062004a0b6026913960400191505060405180910390fd5b8073ffffffffffffffffffffffffffffffffffffffff166000809054906101000a900473ffffffffffffffffffffffffffffffffffffffff1673ffffffffffffffffffffffffffffffffffffffff167f8be0079c531659141344cd1fd0a4f28419497f9722a3daafe3b4186f6b6457e060405160405180910390a3806000806101000a81548173ffffffffffffffffffffffffffffffffffffffff021916908373ffffffffffffffffffffffffffffffffffffffff16021790555050565b600160009054906101000a900473ffffffffffffffffffffffffffffffffffffffff1681565b600033905090565b6135ae806200145d8339019056fe608060405260456013553480156200001657600080fd5b50604051620035ae380380620035ae83398181016040526101a08110156200003d57600080fd5b81019080805190602001909291908051906020019092919080519060200190929190805190602001909291908051906020019092919080519060200190929190805190602001909291908051906020019092919080516040519392919084640100000000821115620000ae57600080fd5b83820191506020820185811115620000c557600080fd5b8251866001820283011164010000000082111715620000e357600080fd5b8083526020830192505050908051906020019080838360005b8381101562000119578082015181840152602081019050620000fc565b50505050905090810190601f168015620001475780820380516001836020036101000a031916815260200191505b506040526020018051906020019092919080519060200190929190805190602001909291908051906020019092919050505060006200018b620006c760201b60201c565b9050806000806101000a81548173ffffffffffffffffffffffffffffffffffffffff021916908373ffffffffffffffffffffffffffffffffffffffff1602179055508073ffffffffffffffffffffffffffffffffffffffff16600073ffffffffffffffffffffffffffffffffffffffff167f8be0079c531659141344cd1fd0a4f28419497f9722a3daafe3b4186f6b6457e060405160405180910390a35060008060146101000a81548160ff0219169083151502179055506001600060156101000a81548160ff0219169083151502179055503373ffffffffffffffffffffffffffffffffffffffff168273ffffffffffffffffffffffffffffffffffffffff1614620002a457620002a382620006cf60201b60201c565b5b8c600160006101000a81548173ffffffffffffffffffffffffffffffffffffffff021916908373ffffffffffffffffffffffffffffffffffffffff1602179055508b600260006101000a81548173ffffffffffffffffffffffffffffffffffffffff021916908373ffffffffffffffffffffffffffffffffffffffff1602179055508a600360006101000a81548173ffffffffffffffffffffffffffffffffffffffff021916908373ffffffffffffffffffffffffffffffffffffffff16021790555089600460006101000a81548173ffffffffffffffffffffffffffffffffffffffff021916908373ffffffffffffffffffffffffffffffffffffffff16021790555088600560006101000a81548173ffffffffffffffffffffffffffffffffffffffff021916908373ffffffffffffffffffffffffffffffffffffffff160217905550600160009054906101000a900473ffffffffffffffffffffffffffffffffffffffff1673ffffffffffffffffffffffffffffffffffffffff1663095ea7b3600460009054906101000a900473ffffffffffffffffffffffffffffffffffffffff167f80000000000000000000000000000000000000000000000000000000000000006040518363ffffffff1660e01b8152600401808373ffffffffffffffffffffffffffffffffffffffff1673ffffffffffffffffffffffffffffffffffffffff16815260200182815260200192505050602060405180830381600087803b158015620004d557600080fd5b505af1158015620004ea573d6000803e3d6000fd5b505050506040513d60208110156200050157600080fd5b8101908080519060200190929190505050508760068190555080156200052e578760078190555062000552565b6200054b62093a8089620008e760201b620022b51790919060201c565b6007819055505b86600860006101000a81548163ffffffff021916908363ffffffff16021790555084600a90805190602001906200058b92919062000b05565b5083600c8190555080600d60016101000a81548160ff0219169083151502179055506040518060400160405280600c81526020017f446f6e616c64205472756d700000000000000000000000000000000000000000815250600b600080815260200190815260200160002090805190602001906200060b92919062000b05565b506040518060400160405280600981526020017f4a6f6520426964656e0000000000000000000000000000000000000000000000815250600b60006001815260200190815260200160002090805190602001906200066b92919062000b05565b5060006002905060606040518060800160405280605e815260200162003550605e913990506000429050620006ab83838b898e866200097060201b60201c565b6009819055505050505050505050505050505050505062000bb4565b600033905090565b620006df620006c760201b60201c565b73ffffffffffffffffffffffffffffffffffffffff166000809054906101000a900473ffffffffffffffffffffffffffffffffffffffff1673ffffffffffffffffffffffffffffffffffffffff1614620007a1576040517f08c379a00000000000000000000000000000000000000000000000000000000081526004018080602001828103825260208152602001807f4f776e61626c653a2063616c6c6572206973206e6f7420746865206f776e657281525060200191505060405180910390fd5b600073ffffffffffffffffffffffffffffffffffffffff168173ffffffffffffffffffffffffffffffffffffffff16141562000829576040517f08c379a00000000000000000000000000000000000000000000000000000000081526004018080602001828103825260268152602001806200352a6026913960400191505060405180910390fd5b8073ffffffffffffffffffffffffffffffffffffffff166000809054906101000a900473ffffffffffffffffffffffffffffffffffffffff1673ffffffffffffffffffffffffffffffffffffffff167f8be0079c531659141344cd1fd0a4f28419497f9722a3daafe3b4186f6b6457e060405160405180910390a3806000806101000a81548173ffffffffffffffffffffffffffffffffffffffff021916908373ffffffffffffffffffffffffffffffffffffffff16021790555050565b60008082840190508381101562000966576040517f08c379a000000000000000000000000000000000000000000000000000000000815260040180806020018281038252601b8152602001807f536166654d6174683a206164646974696f6e206f766572666c6f77000000000081525060200191505060405180910390fd5b8091505092915050565b6000600560009054906101000a900473ffffffffffffffffffffffffffffffffffffffff1673ffffffffffffffffffffffffffffffffffffffff1663762c38fd8888888888886040518763ffffffff1660e01b815260040180878152602001806020018673ffffffffffffffffffffffffffffffffffffffff1673ffffffffffffffffffffffffffffffffffffffff1681526020018563ffffffff1663ffffffff1681526020018463ffffffff1663ffffffff168152602001838152602001828103825287818151815260200191508051906020019080838360005b8381101562000a6957808201518184015260208101905062000a4c565b50505050905090810190601f16801562000a975780820380516001836020036101000a031916815260200191505b50975050505050505050602060405180830381600087803b15801562000abc57600080fd5b505af115801562000ad1573d6000803e3d6000fd5b505050506040513d602081101562000ae857600080fd5b810190808051906020019092919050505090509695505050505050565b828054600181600116156101000203166002900490600052602060002090601f016020900481019282601f1062000b4857805160ff191683800117855562000b79565b8280016001018555821562000b79579182015b8281111562000b7857825182559160200191906001019062000b5b565b5b50905062000b88919062000b8c565b5090565b62000bb191905b8082111562000bad57600081600090555060010162000b93565b5090565b90565b6129668062000bc46000396000f3fe6080604052600436106101f25760003560e01c80638043c9c01161010d578063c19d93fb116100a0578063ee72b06d1161006f578063ee72b06d1461097d578063f2fde38b14610994578063f4b9fa75146109e5578063fd27b51e14610a3c578063fe5e185314610a67576101f9565b8063c19d93fb1461084f578063cbf1304d14610888578063cd9ea342146108f7578063e9d337b814610926576101f9565b8063a0c1f15e116100dc578063a0c1f15e14610727578063ad5d28621461077e578063b06a5c52146107cd578063bc8802a2146107f8576101f9565b80638043c9c0146105e6578063894ba833146106765780638da5cb5b146106a55780639b34ae03146106fc576101f9565b806349200d77116101855780634ecc79f7116101545780634ecc79f7146104c15780635c975abb146104ec57806369fb06641461051b578063715018a6146105cf576101f9565b806349200d77146103fb5780634afe62b5146104265780634b3197131461046b5780634b8755ca14610496576101f9565b806335c1d349116101c157806335c1d349146102c35780633ca558331461033e5780633ccfd60b1461039557806342fb065d146103ac576101f9565b8063052fd203146101fb5780630b60365c1461024a578063232ea3ad1461027557806333b16d93146102ac576101f9565b366101f957005b005b34801561020757600080fd5b506102346004803603602081101561021e57600080fd5b8101908080359060200190929190505050610a92565b6040518082815260200191505060405180910390f35b34801561025657600080fd5b5061025f610aaa565b6040518082815260200191505060405180910390f35b34801561028157600080fd5b5061028a610bc4565b604051808263ffffffff1663ffffffff16815260200191505060405180910390f35b3480156102b857600080fd5b506102c1610bda565b005b3480156102cf57600080fd5b506102fc600480360360208110156102e657600080fd5b8101908080359060200190929190505050610cef565b604051808273ffffffffffffffffffffffffffffffffffffffff1673ffffffffffffffffffffffffffffffffffffffff16815260200191505060405180910390f35b34801561034a57600080fd5b50610353610d2b565b604051808273ffffffffffffffffffffffffffffffffffffffff1673ffffffffffffffffffffffffffffffffffffffff16815260200191505060405180910390f35b3480156103a157600080fd5b506103aa610d51565b005b3480156103b857600080fd5b506103e5600480360360208110156103cf57600080fd5b8101908080359060200190929190505050611027565b6040518082815260200191505060405180910390f35b34801561040757600080fd5b50610410611081565b6040518082815260200191505060405180910390f35b34801561043257600080fd5b506104696004803603604081101561044957600080fd5b810190808035906020019092919080359060200190929190505050611087565b005b34801561047757600080fd5b506104806114bb565b6040518082815260200191505060405180910390f35b3480156104a257600080fd5b506104ab6114c1565b6040518082815260200191505060405180910390f35b3480156104cd57600080fd5b506104d66114c7565b6040518082815260200191505060405180910390f35b3480156104f857600080fd5b506105016114cd565b604051808215151515815260200191505060405180910390f35b34801561052757600080fd5b506105546004803603602081101561053e57600080fd5b81019080803590602001909291905050506114e3565b6040518080602001828103825283818151815260200191508051906020019080838360005b83811015610594578082015181840152602081019050610579565b50505050905090810190601f1680156105c15780820380516001836020036101000a031916815260200191505b509250505060405180910390f35b3480156105db57600080fd5b506105e4611593565b005b3480156105f257600080fd5b506105fb61171b565b6040518080602001828103825283818151815260200191508051906020019080838360005b8381101561063b578082015181840152602081019050610620565b50505050905090810190601f1680156106685780820380516001836020036101000a031916815260200191505b509250505060405180910390f35b34801561068257600080fd5b5061068b6117b9565b604051808215151515815260200191505060405180910390f35b3480156106b157600080fd5b506106ba61188f565b604051808273ffffffffffffffffffffffffffffffffffffffff1673ffffffffffffffffffffffffffffffffffffffff16815260200191505060405180910390f35b34801561070857600080fd5b506107116118b8565b6040518082815260200191505060405180910390f35b34801561073357600080fd5b5061073c6118be565b604051808273ffffffffffffffffffffffffffffffffffffffff1673ffffffffffffffffffffffffffffffffffffffff16815260200191505060405180910390f35b34801561078a57600080fd5b506107b7600480360360208110156107a157600080fd5b81019080803590602001909291905050506118e4565b6040518082815260200191505060405180910390f35b3480156107d957600080fd5b506107e26119aa565b6040518082815260200191505060405180910390f35b34801561080457600080fd5b5061080d6119b0565b604051808273ffffffffffffffffffffffffffffffffffffffff1673ffffffffffffffffffffffffffffffffffffffff16815260200191505060405180910390f35b34801561085b57600080fd5b506108646119d6565b6040518082600381111561087457fe5b60ff16815260200191505060405180910390f35b34801561089457600080fd5b506108e1600480360360408110156108ab57600080fd5b81019080803573ffffffffffffffffffffffffffffffffffffffff169060200190929190803590602001909291905050506119e9565b6040518082815260200191505060405180910390f35b34801561090357600080fd5b5061090c611a0e565b604051808215151515815260200191505060405180910390f35b34801561093257600080fd5b5061093b611a21565b604051808273ffffffffffffffffffffffffffffffffffffffff1673ffffffffffffffffffffffffffffffffffffffff16815260200191505060405180910390f35b34801561098957600080fd5b50610992611a47565b005b3480156109a057600080fd5b506109e3600480360360208110156109b757600080fd5b81019080803573ffffffffffffffffffffffffffffffffffffffff169060200190929190505050611c23565b005b3480156109f157600080fd5b506109fa611e30565b604051808273ffffffffffffffffffffffffffffffffffffffff1673ffffffffffffffffffffffffffffffffffffffff16815260200191505060405180910390f35b348015610a4857600080fd5b50610a51611e56565b6040518082815260200191505060405180910390f35b348015610a7357600080fd5b50610a7c611e63565b6040518082815260200191505060405180910390f35b600f6020528060005260406000206000915090505481565b600080610ac4601454601054611e6990919063ffffffff16565b90506000600260009054906101000a900473ffffffffffffffffffffffffffffffffffffffff1673ffffffffffffffffffffffffffffffffffffffff166370a08231306040518263ffffffff1660e01b8152600401808273ffffffffffffffffffffffffffffffffffffffff1673ffffffffffffffffffffffffffffffffffffffff16815260200191505060206040518083038186803b158015610b6757600080fd5b505afa158015610b7b573d6000803e3d6000fd5b505050506040513d6020811015610b9157600080fd5b810190808051906020019092919050505090506000610bb98383611e6990919063ffffffff16565b905080935050505090565b600860009054906101000a900463ffffffff1681565b600060149054906101000a900460ff1615610c5d576040517f08c379a00000000000000000000000000000000000000000000000000000000081526004018080602001828103825260108152602001807f5061757361626c653a207061757365640000000000000000000000000000000081525060200191505060405180910390fd5b610c65611eb3565b610cd7576040517f08c379a00000000000000000000000000000000000000000000000000000000081526004018080602001828103825260188152602001807f4f7261636c6520686173206e6f742066696e616c69736564000000000000000081525060200191505060405180910390fd5b610cdf611f6a565b601381905550610ced611a47565b565b60118181548110610cfc57fe5b906000526020600020016000915054906101000a900473ffffffffffffffffffffffffffffffffffffffff1681565b600460009054906101000a900473ffffffffffffffffffffffffffffffffffffffff1681565b6003806003811115610d5f57fe5b600d60009054906101000a900460ff166003811115610d7a57fe5b14610dd0576040517f08c379a000000000000000000000000000000000000000000000000000000000815260040180806020018281038252602681526020018061290b6026913960400191505060405180910390fd5b600060149054906101000a900460ff1615610e53576040517f08c379a00000000000000000000000000000000000000000000000000000000081526004018080602001828103825260108152602001807f5061757361626c653a207061757365640000000000000000000000000000000081525060200191505060405180910390fd5b601260003373ffffffffffffffffffffffffffffffffffffffff1673ffffffffffffffffffffffffffffffffffffffff16815260200190815260200160002060009054906101000a900460ff1615610f13576040517f08c379a00000000000000000000000000000000000000000000000000000000081526004018080602001828103825260118152602001807f416c72656164792077697468647261776e00000000000000000000000000000081525060200191505060405180910390fd5b6001601260003373ffffffffffffffffffffffffffffffffffffffff1673ffffffffffffffffffffffffffffffffffffffff16815260200190815260200160002060006101000a81548160ff0219169083151502179055506000610f786013546118e4565b9050600081111561101b57600260009054906101000a900473ffffffffffffffffffffffffffffffffffffffff1673ffffffffffffffffffffffffffffffffffffffff1663db006a75826040518263ffffffff1660e01b815260040180828152602001915050600060405180830381600087803b158015610ff857600080fd5b505af115801561100c573d6000803e3d6000fd5b5050505061101a3382612029565b5b611023612183565b5050565b6000600e60003373ffffffffffffffffffffffffffffffffffffffff1673ffffffffffffffffffffffffffffffffffffffff1681526020019081526020016000206000838152602001908152602001600020549050919050565b600c5481565b600180600381111561109557fe5b600d60009054906101000a900460ff1660038111156110b057fe5b14611106576040517f08c379a000000000000000000000000000000000000000000000000000000000815260040180806020018281038252602681526020018061290b6026913960400191505060405180910390fd5b600060149054906101000a900460ff1615611189576040517f08c379a00000000000000000000000000000000000000000000000000000000081526004018080602001828103825260108152602001807f5061757361626c653a207061757365640000000000000000000000000000000081525060200191505060405180910390fd5b6000600e60003373ffffffffffffffffffffffffffffffffffffffff1673ffffffffffffffffffffffffffffffffffffffff1681526020019081526020016000206000858152602001908152602001600020541415611246576011339080600181540180825580915050600190039060005260206000200160009091909190916101000a81548173ffffffffffffffffffffffffffffffffffffffff021916908373ffffffffffffffffffffffffffffffffffffffff1602179055505b3373ffffffffffffffffffffffffffffffffffffffff167fef3b3ae531a4f494c95e537ec1fe385cfe5c1146cb4c1d850b24bad38595804960405160405180910390a26112ec82600e60003373ffffffffffffffffffffffffffffffffffffffff1673ffffffffffffffffffffffffffffffffffffffff1681526020019081526020016000206000868152602001908152602001600020546122b590919063ffffffff16565b600e60003373ffffffffffffffffffffffffffffffffffffffff1673ffffffffffffffffffffffffffffffffffffffff168152602001908152602001600020600085815260200190815260200160002081905550611355826010546122b590919063ffffffff16565b60108190555061138182600f6000868152602001908152602001600020546122b590919063ffffffff16565b600f600085815260200190815260200160002081905550600d60019054906101000a900460ff16156113bb576113b68261233d565b6113c6565b6113c533836123cd565b5b600360009054906101000a900473ffffffffffffffffffffffffffffffffffffffff1673ffffffffffffffffffffffffffffffffffffffff1663d2d0e066600160009054906101000a900473ffffffffffffffffffffffffffffffffffffffff168460006040518463ffffffff1660e01b8152600401808473ffffffffffffffffffffffffffffffffffffffff1673ffffffffffffffffffffffffffffffffffffffff1681526020018381526020018261ffff1681526020019350505050600060405180830381600087803b15801561149e57600080fd5b505af11580156114b2573d6000803e3d6000fd5b50505050505050565b60145481565b60075481565b60065481565b60008060149054906101000a900460ff16905090565b600b6020528060005260406000206000915090508054600181600116156101000203166002900480601f01602080910402602001604051908101604052809291908181526020018280546001816001161561010002031660029004801561158b5780601f106115605761010080835404028352916020019161158b565b820191906000526020600020905b81548152906001019060200180831161156e57829003601f168201915b505050505081565b61159b61255b565b73ffffffffffffffffffffffffffffffffffffffff166000809054906101000a900473ffffffffffffffffffffffffffffffffffffffff1673ffffffffffffffffffffffffffffffffffffffff161461165c576040517f08c379a00000000000000000000000000000000000000000000000000000000081526004018080602001828103825260208152602001807f4f776e61626c653a2063616c6c6572206973206e6f7420746865206f776e657281525060200191505060405180910390fd5b600073ffffffffffffffffffffffffffffffffffffffff166000809054906101000a900473ffffffffffffffffffffffffffffffffffffffff1673ffffffffffffffffffffffffffffffffffffffff167f8be0079c531659141344cd1fd0a4f28419497f9722a3daafe3b4186f6b6457e060405160405180910390a360008060006101000a81548173ffffffffffffffffffffffffffffffffffffffff021916908373ffffffffffffffffffffffffffffffffffffffff160217905550565b600a8054600181600116156101000203166002900480601f0160208091040260200160405190810160405280929190818152602001828054600181600116156101000203166002900480156117b15780601f10611786576101008083540402835291602001916117b1565b820191906000526020600020905b81548152906001019060200180831161179457829003601f168201915b505050505081565b60006117c361255b565b73ffffffffffffffffffffffffffffffffffffffff166000809054906101000a900473ffffffffffffffffffffffffffffffffffffffff1673ffffffffffffffffffffffffffffffffffffffff1614611884576040517f08c379a00000000000000000000000000000000000000000000000000000000081526004018080602001828103825260208152602001807f4f776e61626c653a2063616c6c6572206973206e6f7420746865206f776e657281525060200191505060405180910390fd5b61188c612563565b90565b60008060009054906101000a900473ffffffffffffffffffffffffffffffffffffffff16905090565b60135481565b600260009054906101000a900473ffffffffffffffffffffffffffffffffffffffff1681565b6000806000600e60003373ffffffffffffffffffffffffffffffffffffffff1673ffffffffffffffffffffffffffffffffffffffff168152602001908152602001600020600085815260200190815260200160002054905060008111156119a057600061194f610aaa565b9050600061196a601454601054611e6990919063ffffffff16565b9050600081111561199d5761199a8161198c848661266d90919063ffffffff16565b6126f390919063ffffffff16565b93505b50505b8192505050919050565b60095481565b600560009054906101000a900473ffffffffffffffffffffffffffffffffffffffff1681565b600d60009054906101000a900460ff1681565b600e602052816000526040600020602052806000526040600020600091509150505481565b600d60019054906101000a900460ff1681565b600360009054906101000a900473ffffffffffffffffffffffffffffffffffffffff1681565b600060149054906101000a900460ff1615611aca576040517f08c379a00000000000000000000000000000000000000000000000000000000081526004018080602001828103825260108152602001807f5061757361626c653a207061757365640000000000000000000000000000000081525060200191505060405180910390fd5b60006003811115611ad757fe5b600d60009054906101000a900460ff166003811115611af257fe5b148015611b00575042600654105b80611b3d575060016003811115611b1357fe5b600d60009054906101000a900460ff166003811115611b2e57fe5b148015611b3c575042600754105b5b80611b7c575060026003811115611b5057fe5b600d60009054906101000a900460ff166003811115611b6b57fe5b148015611b7b5750604560135414155b5b15611c21576001600d60009054906101000a900460ff166003811115611b9e57fe5b016003811115611baa57fe5b600d60006101000a81548160ff02191690836003811115611bc757fe5b02179055507f551dc40198cc79684bb69e4931dba4ac16e4598792ee1c0a5000aeea366d7bb6600d60009054906101000a900460ff1660405180826003811115611c0d57fe5b60ff16815260200191505060405180910390a15b565b611c2b61255b565b73ffffffffffffffffffffffffffffffffffffffff166000809054906101000a900473ffffffffffffffffffffffffffffffffffffffff1673ffffffffffffffffffffffffffffffffffffffff1614611cec576040517f08c379a00000000000000000000000000000000000000000000000000000000081526004018080602001828103825260208152602001807f4f776e61626c653a2063616c6c6572206973206e6f7420746865206f776e657281525060200191505060405180910390fd5b600073ffffffffffffffffffffffffffffffffffffffff168173ffffffffffffffffffffffffffffffffffffffff161415611d72576040517f08c379a00000000000000000000000000000000000000000000000000000000081526004018080602001828103825260268152602001806128c46026913960400191505060405180910390fd5b8073ffffffffffffffffffffffffffffffffffffffff166000809054906101000a900473ffffffffffffffffffffffffffffffffffffffff1673ffffffffffffffffffffffffffffffffffffffff167f8be0079c531659141344cd1fd0a4f28419497f9722a3daafe3b4186f6b6457e060405160405180910390a3806000806101000a81548173ffffffffffffffffffffffffffffffffffffffff021916908373ffffffffffffffffffffffffffffffffffffffff16021790555050565b600160009054906101000a900473ffffffffffffffffffffffffffffffffffffffff1681565b6000601180549050905090565b60105481565b6000611eab83836040518060400160405280601e81526020017f536166654d6174683a207375627472616374696f6e206f766572666c6f77000081525061273d565b905092915050565b6000600560009054906101000a900473ffffffffffffffffffffffffffffffffffffffff1673ffffffffffffffffffffffffffffffffffffffff16637f8d429e6009546040518263ffffffff1660e01b81526004018082815260200191505060206040518083038186803b158015611f2a57600080fd5b505afa158015611f3e573d6000803e3d6000fd5b505050506040513d6020811015611f5457600080fd5b8101908080519060200190929190505050905090565b600080600560009054906101000a900473ffffffffffffffffffffffffffffffffffffffff1673ffffffffffffffffffffffffffffffffffffffff1663d09cc57e6009546040518263ffffffff1660e01b81526004018082815260200191505060206040518083038186803b158015611fe257600080fd5b505afa158015611ff6573d6000803e3d6000fd5b505050506040513d602081101561200c57600080fd5b810190808051906020019092919050505090508060001c91505090565b600160009054906101000a900473ffffffffffffffffffffffffffffffffffffffff1673ffffffffffffffffffffffffffffffffffffffff1663a9059cbb83836040518363ffffffff1660e01b8152600401808373ffffffffffffffffffffffffffffffffffffffff1673ffffffffffffffffffffffffffffffffffffffff16815260200182815260200192505050602060405180830381600087803b1580156120d257600080fd5b505af11580156120e6573d6000803e3d6000fd5b505050506040513d60208110156120fc57600080fd5b810190808051906020019092919050505061217f576040517f08c379a00000000000000000000000000000000000000000000000000000000081526004018080602001828103825260148152602001807f43617368207472616e73666572206661696c656400000000000000000000000081525060200191505060405180910390fd5b5050565b60008090505b600c548110156122b2576000600e60003373ffffffffffffffffffffffffffffffffffffffff1673ffffffffffffffffffffffffffffffffffffffff168152602001908152602001600020600083815260200190815260200160002054905060008111156122a457612206816014546122b590919063ffffffff16565b601481905550600260009054906101000a900473ffffffffffffffffffffffffffffffffffffffff1673ffffffffffffffffffffffffffffffffffffffff1663db006a75826040518263ffffffff1660e01b815260040180828152602001915050600060405180830381600087803b15801561228157600080fd5b505af1158015612295573d6000803e3d6000fd5b505050506122a33382612029565b5b508080600101915050612189565b50565b600080828401905083811015612333576040517f08c379a000000000000000000000000000000000000000000000000000000000815260040180806020018281038252601b8152602001807f536166654d6174683a206164646974696f6e206f766572666c6f77000000000081525060200191505060405180910390fd5b8091505092915050565b600160009054906101000a900473ffffffffffffffffffffffffffffffffffffffff1673ffffffffffffffffffffffffffffffffffffffff1663a0712d68826040518263ffffffff1660e01b815260040180828152602001915050600060405180830381600087803b1580156123b257600080fd5b505af11580156123c6573d6000803e3d6000fd5b5050505050565b600160009054906101000a900473ffffffffffffffffffffffffffffffffffffffff1673ffffffffffffffffffffffffffffffffffffffff166323b872dd8330846040518463ffffffff1660e01b8152600401808473ffffffffffffffffffffffffffffffffffffffff1673ffffffffffffffffffffffffffffffffffffffff1681526020018373ffffffffffffffffffffffffffffffffffffffff1673ffffffffffffffffffffffffffffffffffffffff1681526020018281526020019350505050602060405180830381600087803b1580156124aa57600080fd5b505af11580156124be573d6000803e3d6000fd5b505050506040513d60208110156124d457600080fd5b8101908080519060200190929190505050612557576040517f08c379a00000000000000000000000000000000000000000000000000000000081526004018080602001828103825260148152602001807f43617368207472616e73666572206661696c656400000000000000000000000081525060200191505060405180910390fd5b5050565b600033905090565b600060149054906101000a900460ff16156125e6576040517f08c379a00000000000000000000000000000000000000000000000000000000081526004018080602001828103825260108152602001807f5061757361626c653a207061757365640000000000000000000000000000000081525060200191505060405180910390fd5b6001600060146101000a81548160ff0219169083151502179055507f62e78cea01bee320cd4e420270b5ea74000d11b0c9f74754ebdbfc544b05a25861262a61255b565b604051808273ffffffffffffffffffffffffffffffffffffffff1673ffffffffffffffffffffffffffffffffffffffff16815260200191505060405180910390a1565b60008083141561268057600090506126ed565b600082840290508284828161269157fe5b04146126e8576040517f08c379a00000000000000000000000000000000000000000000000000000000081526004018080602001828103825260218152602001806128ea6021913960400191505060405180910390fd5b809150505b92915050565b600061273583836040518060400160405280601a81526020017f536166654d6174683a206469766973696f6e206279207a65726f0000000000008152506127fd565b905092915050565b60008383111582906127ea576040517f08c379a00000000000000000000000000000000000000000000000000000000081526004018080602001828103825283818151815260200191508051906020019080838360005b838110156127af578082015181840152602081019050612794565b50505050905090810190601f1680156127dc5780820380516001836020036101000a031916815260200191505b509250505060405180910390fd5b5060008385039050809150509392505050565b600080831182906128a9576040517f08c379a00000000000000000000000000000000000000000000000000000000081526004018080602001828103825283818151815260200191508051906020019080838360005b8381101561286e578082015181840152602081019050612853565b50505050905090810190601f16801561289b5780820380516001836020036101000a031916815260200191505b509250505060405180910390fd5b5060008385816128b557fe5b04905080915050939250505056fe4f776e61626c653a206e6577206f776e657220697320746865207a65726f2061646472657373536166654d6174683a206d756c7469706c69636174696f6e206f766572666c6f7766756e6374696f6e2063616e6e6f742062652063616c6c656420617420746869732074696d65a2646970667358221220873107c8338395ba4a3b7f6e84093dc105e5da7d048c6be3298fc509f25346f764736f6c634300060600334f776e61626c653a206e6577206f776e657220697320746865207a65726f206164647265737357686f2077696c6c2077696e2074686520323032302055532047656e6572616c20456c656374696f6ee2909f22446f6e616c64205472756d70222c224a6f6520426964656e22e2909f6e6577732d706f6c6974696373e2909f656e5f55534f776e61626c653a206e6577206f776e657220697320746865207a65726f2061646472657373a26469706673582212209e6b1c945bb6c776250e8409f4001820dc2257bd3d0445bec2ad878ddfcac07764736f6c63430006060033",
  "immutableReferences": {},
  "source": "//REMOVE ONCE WE CAN AUTOMATICALLY DEPLOY CONTRACTS\n\npragma solidity 0.6.6;\n\nimport \"@openzeppelin/contracts/access/Ownable.sol\";\nimport \"@openzeppelin/contracts/utils/Pausable.sol\";\nimport \"./BTMarket.sol\";\nimport \"./interfaces/IAave.sol\";\nimport \"./interfaces/IDai.sol\";\nimport \"./interfaces/IRealitio.sol\";\n\ncontract BTMarketFactory is Ownable, Pausable {\n\n    ////////////////////////////////////\n    //////// VARIABLES /////////////////\n    ////////////////////////////////////\n    \n    // Externals\n    Dai public dai;\n    IaToken public aToken;\n    IAaveLendingPool public aaveLendingPool;\n    IAaveLendingPoolCore public aaveLendingPoolCore;\n    IRealitio public realitio;\n\n    mapping(address => bool) mappingOfMarketPots;\n    address[] public marketPots;\n\n    event MarketPotCreated(address contractAddress);\n\n    modifier createdByThisFactory(address potAddr) {\n        require(\n            mappingOfMarketPots[potAddr],\n            \"Must be created by this factory\"\n        );\n        _;\n    }\n\n    constructor(\n        Dai _daiAddress,\n        IaToken _aTokenAddress,\n        IAaveLendingPool _aaveLpAddress,\n        IAaveLendingPoolCore _aaveLpcoreAddress,\n        IRealitio _realitioAddress\n    ) public {\n        // Externals\n        dai = _daiAddress;\n        aToken = _aTokenAddress;\n        aaveLendingPool = _aaveLpAddress;\n        aaveLendingPoolCore = _aaveLpcoreAddress;\n        realitio = _realitioAddress;\n    }\n\n    function createMarket(\n        uint _marketOpeningTime,\n        uint32 _marketResolutionTime,\n        address _arbitrator,\n        string memory _eventName,\n        uint _numberOfOutcomes,\n        uint32 _timeout\n    )\n        public\n        onlyOwner\n        whenNotPaused\n        returns (BTMarket)\n    {\n        BTMarket newContract = new BTMarket({\n            _daiAddress: dai,\n            _aTokenAddress: aToken, \n            _aaveLpAddress: aaveLendingPool, \n            _aaveLpcoreAddress: aaveLendingPoolCore, \n            _realitioAddress: realitio, \n            _marketOpeningTime: _marketOpeningTime,\n            _marketResolutionTime: _marketResolutionTime,\n            _arbitrator: _arbitrator,\n            _eventName: _eventName,\n            _numberOfOutcomes: _numberOfOutcomes,\n            _timeout: _timeout,\n            _owner: msg.sender,\n            _testMode: true});\n\n        address newAddress = address(newContract);\n        marketPots.push(newAddress);\n        mappingOfMarketPots[newAddress] = true;\n        emit MarketPotCreated(address(newAddress));\n        return newContract;\n    }\n\n    function getMarketPots() public view returns (address[] memory) {\n        return marketPots;\n    }\n\n    function destroy() public onlyOwner whenPaused {\n        selfdestruct(msg.sender);\n    }\n\n    function disableMarketPot(address payable potAddress)\n        public\n        onlyOwner\n        createdByThisFactory(potAddress)\n        returns (bool)\n    {\n        return BTMarket(potAddress).disableContract();\n    }\n}\n",
  "sourcePath": "/Users/mcplums/Repos/BetTogether/contracts/BTMarketFactory.sol",
  "compiler": {
    "name": "solc",
    "version": "0.6.6+commit.6c089d02.Emscripten.clang"
  },
  "schemaVersion": "3.1.0",
  "updatedAt": "2020-05-06T10:16:33.803Z",
  "devdoc": {
    "methods": {
      "owner()": {
        "details": "Returns the address of the current owner."
      },
      "paused()": {
        "details": "Returns true if the contract is paused, and false otherwise."
      },
      "renounceOwnership()": {
        "details": "Leaves the contract without owner. It will not be possible to call `onlyOwner` functions anymore. Can only be called by the current owner.     * NOTE: Renouncing ownership will leave the contract without an owner, thereby removing any functionality that is only available to the owner."
      },
      "transferOwnership(address)": {
        "details": "Transfers ownership of the contract to a new account (`newOwner`). Can only be called by the current owner."
      }
    }
  },
  "userdoc": {
    "methods": {}
  }
}