{
  "contractName": "BTMarketFactory",
  "abi": [
    {
      "inputs": [
        {
          "internalType": "contract Dai",
          "name": "_daiAddress",
          "type": "address"
        },
        {
          "internalType": "contract IaToken",
          "name": "_aTokenAddress",
          "type": "address"
        },
        {
          "internalType": "contract IAaveLendingPool",
          "name": "_aaveLpAddress",
          "type": "address"
        },
        {
          "internalType": "contract IAaveLendingPoolCore",
          "name": "_aaveLpcoreAddress",
          "type": "address"
        },
        {
          "internalType": "contract IRealitio",
          "name": "_realitioAddress",
          "type": "address"
        }
      ],
      "stateMutability": "nonpayable",
      "type": "constructor"
    },
    {
      "anonymous": false,
      "inputs": [
        {
          "indexed": false,
          "internalType": "address",
          "name": "contractAddress",
          "type": "address"
        }
      ],
      "name": "MarketCreated",
      "type": "event"
    },
    {
      "anonymous": false,
      "inputs": [
        {
          "indexed": true,
          "internalType": "address",
          "name": "previousOwner",
          "type": "address"
        },
        {
          "indexed": true,
          "internalType": "address",
          "name": "newOwner",
          "type": "address"
        }
      ],
      "name": "OwnershipTransferred",
      "type": "event"
    },
    {
      "anonymous": false,
      "inputs": [
        {
          "indexed": false,
          "internalType": "address",
          "name": "account",
          "type": "address"
        }
      ],
      "name": "Paused",
      "type": "event"
    },
    {
      "anonymous": false,
      "inputs": [
        {
          "indexed": false,
          "internalType": "address",
          "name": "account",
          "type": "address"
        }
      ],
      "name": "Unpaused",
      "type": "event"
    },
    {
      "inputs": [],
      "name": "aToken",
      "outputs": [
        {
          "internalType": "contract IaToken",
          "name": "",
          "type": "address"
        }
      ],
      "stateMutability": "view",
      "type": "function",
      "constant": true
    },
    {
      "inputs": [],
      "name": "aaveLendingPool",
      "outputs": [
        {
          "internalType": "contract IAaveLendingPool",
          "name": "",
          "type": "address"
        }
      ],
      "stateMutability": "view",
      "type": "function",
      "constant": true
    },
    {
      "inputs": [],
      "name": "aaveLendingPoolCore",
      "outputs": [
        {
          "internalType": "contract IAaveLendingPoolCore",
          "name": "",
          "type": "address"
        }
      ],
      "stateMutability": "view",
      "type": "function",
      "constant": true
    },
    {
      "inputs": [],
      "name": "dai",
      "outputs": [
        {
          "internalType": "contract Dai",
          "name": "",
          "type": "address"
        }
      ],
      "stateMutability": "view",
      "type": "function",
      "constant": true
    },
    {
      "inputs": [
        {
          "internalType": "address",
          "name": "",
          "type": "address"
        }
      ],
      "name": "mappingOfMarkets",
      "outputs": [
        {
          "internalType": "bool",
          "name": "",
          "type": "bool"
        }
      ],
      "stateMutability": "view",
      "type": "function",
      "constant": true
    },
    {
      "inputs": [
        {
          "internalType": "uint256",
          "name": "",
          "type": "uint256"
        }
      ],
      "name": "markets",
      "outputs": [
        {
          "internalType": "address",
          "name": "",
          "type": "address"
        }
      ],
      "stateMutability": "view",
      "type": "function",
      "constant": true
    },
    {
      "inputs": [],
      "name": "owner",
      "outputs": [
        {
          "internalType": "address",
          "name": "",
          "type": "address"
        }
      ],
      "stateMutability": "view",
      "type": "function",
      "constant": true
    },
    {
      "inputs": [],
      "name": "paused",
      "outputs": [
        {
          "internalType": "bool",
          "name": "",
          "type": "bool"
        }
      ],
      "stateMutability": "view",
      "type": "function",
      "constant": true
    },
    {
      "inputs": [],
      "name": "realitio",
      "outputs": [
        {
          "internalType": "contract IRealitio",
          "name": "",
          "type": "address"
        }
      ],
      "stateMutability": "view",
      "type": "function",
      "constant": true
    },
    {
      "inputs": [],
      "name": "renounceOwnership",
      "outputs": [],
      "stateMutability": "nonpayable",
      "type": "function"
    },
    {
      "inputs": [
        {
          "internalType": "address",
          "name": "newOwner",
          "type": "address"
        }
      ],
      "name": "transferOwnership",
      "outputs": [],
      "stateMutability": "nonpayable",
      "type": "function"
    },
    {
      "inputs": [
        {
          "internalType": "uint256",
          "name": "_marketOpeningTime",
          "type": "uint256"
        },
        {
          "internalType": "uint32",
          "name": "_marketResolutionTime",
          "type": "uint32"
        },
        {
          "internalType": "address",
          "name": "_arbitrator",
          "type": "address"
        },
        {
          "internalType": "string",
          "name": "_eventName",
          "type": "string"
        },
        {
          "internalType": "uint256",
          "name": "_numberOfOutcomes",
          "type": "uint256"
        },
        {
          "internalType": "uint32",
          "name": "_timeout",
          "type": "uint32"
        }
      ],
      "name": "createMarket",
      "outputs": [
        {
          "internalType": "contract BTMarket",
          "name": "",
          "type": "address"
        }
      ],
      "stateMutability": "nonpayable",
      "type": "function"
    },
    {
      "inputs": [],
      "name": "getMarkets",
      "outputs": [
        {
          "internalType": "address[]",
          "name": "",
          "type": "address[]"
        }
      ],
      "stateMutability": "view",
      "type": "function",
      "constant": true
    },
    {
      "inputs": [],
      "name": "destroy",
      "outputs": [],
      "stateMutability": "nonpayable",
      "type": "function"
    },
    {
      "inputs": [
        {
          "internalType": "address payable",
          "name": "marketAddress",
          "type": "address"
        }
      ],
      "name": "disableMarket",
      "outputs": [
        {
          "internalType": "bool",
          "name": "",
          "type": "bool"
        }
      ],
      "stateMutability": "nonpayable",
      "type": "function"
    }
  ],
  "bytecode": "0x608060405234801561001057600080fd5b50604051614e1e380380614e1e833981810160405260a081101561003357600080fd5b810190808051906020019092919080519060200190929190805190602001909291908051906020019092919080519060200190929190505050600061007c61028360201b60201c565b9050806000806101000a81548173ffffffffffffffffffffffffffffffffffffffff021916908373ffffffffffffffffffffffffffffffffffffffff1602179055508073ffffffffffffffffffffffffffffffffffffffff16600073ffffffffffffffffffffffffffffffffffffffff167f8be0079c531659141344cd1fd0a4f28419497f9722a3daafe3b4186f6b6457e060405160405180910390a35060008060146101000a81548160ff02191690831515021790555084600160006101000a81548173ffffffffffffffffffffffffffffffffffffffff021916908373ffffffffffffffffffffffffffffffffffffffff16021790555083600260006101000a81548173ffffffffffffffffffffffffffffffffffffffff021916908373ffffffffffffffffffffffffffffffffffffffff16021790555082600360006101000a81548173ffffffffffffffffffffffffffffffffffffffff021916908373ffffffffffffffffffffffffffffffffffffffff16021790555081600460006101000a81548173ffffffffffffffffffffffffffffffffffffffff021916908373ffffffffffffffffffffffffffffffffffffffff16021790555080600560006101000a81548173ffffffffffffffffffffffffffffffffffffffff021916908373ffffffffffffffffffffffffffffffffffffffff160217905550505050505061028b565b600033905090565b614b848061029a6000396000f3fe60806040523480156200001157600080fd5b50600436106200010c5760003560e01c8063bc8802a211620000a5578063ec2c9016116200006f578063ec2c901614620004ee578063f2fde38b1462000551578063f4b9fa751462000598578063f55a898c14620005e4576200010c565b8063bc8802a214620002a2578063d3f8fb8114620002ee578063df233e38146200034d578063e9d337b814620004a2576200010c565b806383197ef011620000e757806383197ef0146200018d5780638da5cb5b1462000199578063a0c1f15e14620001e5578063b1283e771462000231576200010c565b80633ca5583314620001115780635c975abb146200015d578063715018a61462000181575b600080fd5b6200011b62000643565b604051808273ffffffffffffffffffffffffffffffffffffffff1673ffffffffffffffffffffffffffffffffffffffff16815260200191505060405180910390f35b6200016762000669565b604051808215151515815260200191505060405180910390f35b6200018b6200067f565b005b620001976200080a565b005b620001a362000972565b604051808273ffffffffffffffffffffffffffffffffffffffff1673ffffffffffffffffffffffffffffffffffffffff16815260200191505060405180910390f35b620001ef6200099b565b604051808273ffffffffffffffffffffffffffffffffffffffff1673ffffffffffffffffffffffffffffffffffffffff16815260200191505060405180910390f35b62000260600480360360208110156200024957600080fd5b8101908080359060200190929190505050620009c1565b604051808273ffffffffffffffffffffffffffffffffffffffff1673ffffffffffffffffffffffffffffffffffffffff16815260200191505060405180910390f35b620002ac620009fe565b604051808273ffffffffffffffffffffffffffffffffffffffff1673ffffffffffffffffffffffffffffffffffffffff16815260200191505060405180910390f35b62000333600480360360208110156200030657600080fd5b81019080803573ffffffffffffffffffffffffffffffffffffffff16906020019092919050505062000a24565b604051808215151515815260200191505060405180910390f35b62000460600480360360c08110156200036557600080fd5b8101908080359060200190929190803563ffffffff169060200190929190803573ffffffffffffffffffffffffffffffffffffffff16906020019092919080359060200190640100000000811115620003bd57600080fd5b820183602082011115620003d057600080fd5b80359060200191846001830284011164010000000083111715620003f357600080fd5b91908080601f016020809104026020016040519081016040528093929190818152602001838380828437600081840152601f19601f82011690508083019250505050505050919291929080359060200190929190803563ffffffff16906020019092919050505062000a44565b604051808273ffffffffffffffffffffffffffffffffffffffff1673ffffffffffffffffffffffffffffffffffffffff16815260200191505060405180910390f35b620004ac62000ef9565b604051808273ffffffffffffffffffffffffffffffffffffffff1673ffffffffffffffffffffffffffffffffffffffff16815260200191505060405180910390f35b620004f862000f1f565b6040518080602001828103825283818151815260200191508051906020019060200280838360005b838110156200053d57808201518184015260208101905062000520565b505050509050019250505060405180910390f35b62000596600480360360208110156200056957600080fd5b81019080803573ffffffffffffffffffffffffffffffffffffffff16906020019092919050505062000faf565b005b620005a2620011c1565b604051808273ffffffffffffffffffffffffffffffffffffffff1673ffffffffffffffffffffffffffffffffffffffff16815260200191505060405180910390f35b6200062960048036036020811015620005fc57600080fd5b81019080803573ffffffffffffffffffffffffffffffffffffffff169060200190929190505050620011e7565b604051808215151515815260200191505060405180910390f35b600460009054906101000a900473ffffffffffffffffffffffffffffffffffffffff1681565b60008060149054906101000a900460ff16905090565b62000689620013e8565b73ffffffffffffffffffffffffffffffffffffffff166000809054906101000a900473ffffffffffffffffffffffffffffffffffffffff1673ffffffffffffffffffffffffffffffffffffffff16146200074b576040517f08c379a00000000000000000000000000000000000000000000000000000000081526004018080602001828103825260208152602001807f4f776e61626c653a2063616c6c6572206973206e6f7420746865206f776e657281525060200191505060405180910390fd5b600073ffffffffffffffffffffffffffffffffffffffff166000809054906101000a900473ffffffffffffffffffffffffffffffffffffffff1673ffffffffffffffffffffffffffffffffffffffff167f8be0079c531659141344cd1fd0a4f28419497f9722a3daafe3b4186f6b6457e060405160405180910390a360008060006101000a81548173ffffffffffffffffffffffffffffffffffffffff021916908373ffffffffffffffffffffffffffffffffffffffff160217905550565b62000814620013e8565b73ffffffffffffffffffffffffffffffffffffffff166000809054906101000a900473ffffffffffffffffffffffffffffffffffffffff1673ffffffffffffffffffffffffffffffffffffffff1614620008d6576040517f08c379a00000000000000000000000000000000000000000000000000000000081526004018080602001828103825260208152602001807f4f776e61626c653a2063616c6c6572206973206e6f7420746865206f776e657281525060200191505060405180910390fd5b600060149054906101000a900460ff1662000959576040517f08c379a00000000000000000000000000000000000000000000000000000000081526004018080602001828103825260148152602001807f5061757361626c653a206e6f742070617573656400000000000000000000000081525060200191505060405180910390fd5b3373ffffffffffffffffffffffffffffffffffffffff16ff5b60008060009054906101000a900473ffffffffffffffffffffffffffffffffffffffff16905090565b600260009054906101000a900473ffffffffffffffffffffffffffffffffffffffff1681565b60078181548110620009cf57fe5b906000526020600020016000915054906101000a900473ffffffffffffffffffffffffffffffffffffffff1681565b600560009054906101000a900473ffffffffffffffffffffffffffffffffffffffff1681565b60066020528060005260406000206000915054906101000a900460ff1681565b60008060149054906101000a900460ff161562000ac9576040517f08c379a00000000000000000000000000000000000000000000000000000000081526004018080602001828103825260108152602001807f5061757361626c653a207061757365640000000000000000000000000000000081525060200191505060405180910390fd5b6000600160009054906101000a900473ffffffffffffffffffffffffffffffffffffffff16600260009054906101000a900473ffffffffffffffffffffffffffffffffffffffff16600360009054906101000a900473ffffffffffffffffffffffffffffffffffffffff16600460009054906101000a900473ffffffffffffffffffffffffffffffffffffffff16600560009054906101000a900473ffffffffffffffffffffffffffffffffffffffff168c8c8c8c8c8c33600160405162000b9190620013f0565b808e73ffffffffffffffffffffffffffffffffffffffff1673ffffffffffffffffffffffffffffffffffffffff1681526020018d73ffffffffffffffffffffffffffffffffffffffff1673ffffffffffffffffffffffffffffffffffffffff1681526020018c73ffffffffffffffffffffffffffffffffffffffff1673ffffffffffffffffffffffffffffffffffffffff1681526020018b73ffffffffffffffffffffffffffffffffffffffff1673ffffffffffffffffffffffffffffffffffffffff1681526020018a73ffffffffffffffffffffffffffffffffffffffff1673ffffffffffffffffffffffffffffffffffffffff1681526020018981526020018863ffffffff1663ffffffff1681526020018773ffffffffffffffffffffffffffffffffffffffff1673ffffffffffffffffffffffffffffffffffffffff168152602001806020018681526020018563ffffffff1663ffffffff1681526020018473ffffffffffffffffffffffffffffffffffffffff1673ffffffffffffffffffffffffffffffffffffffff16815260200183151515158152602001828103825287818151815260200191508051906020019080838360005b8381101562000d6857808201518184015260208101905062000d4b565b50505050905090810190601f16801562000d965780820380516001836020036101000a031916815260200191505b509e505050505050505050505050505050604051809103906000f08015801562000dc4573d6000803e3d6000fd5b50905060008190506007819080600181540180825580915050600190039060005260206000200160009091909190916101000a81548173ffffffffffffffffffffffffffffffffffffffff021916908373ffffffffffffffffffffffffffffffffffffffff1602179055506001600660008373ffffffffffffffffffffffffffffffffffffffff1673ffffffffffffffffffffffffffffffffffffffff16815260200190815260200160002060006101000a81548160ff0219169083151502179055507fb27af04ab132a0b6bba5de2a84bbbadcc31c20c33932936a992ae6ff951259c381604051808273ffffffffffffffffffffffffffffffffffffffff1673ffffffffffffffffffffffffffffffffffffffff16815260200191505060405180910390a181925050509695505050505050565b600360009054906101000a900473ffffffffffffffffffffffffffffffffffffffff1681565b6060600780548060200260200160405190810160405280929190818152602001828054801562000fa557602002820191906000526020600020905b8160009054906101000a900473ffffffffffffffffffffffffffffffffffffffff1673ffffffffffffffffffffffffffffffffffffffff168152602001906001019080831162000f5a575b5050505050905090565b62000fb9620013e8565b73ffffffffffffffffffffffffffffffffffffffff166000809054906101000a900473ffffffffffffffffffffffffffffffffffffffff1673ffffffffffffffffffffffffffffffffffffffff16146200107b576040517f08c379a00000000000000000000000000000000000000000000000000000000081526004018080602001828103825260208152602001807f4f776e61626c653a2063616c6c6572206973206e6f7420746865206f776e657281525060200191505060405180910390fd5b600073ffffffffffffffffffffffffffffffffffffffff168173ffffffffffffffffffffffffffffffffffffffff16141562001103576040517f08c379a000000000000000000000000000000000000000000000000000000000815260040180806020018281038252602681526020018062004af86026913960400191505060405180910390fd5b8073ffffffffffffffffffffffffffffffffffffffff166000809054906101000a900473ffffffffffffffffffffffffffffffffffffffff1673ffffffffffffffffffffffffffffffffffffffff167f8be0079c531659141344cd1fd0a4f28419497f9722a3daafe3b4186f6b6457e060405160405180910390a3806000806101000a81548173ffffffffffffffffffffffffffffffffffffffff021916908373ffffffffffffffffffffffffffffffffffffffff16021790555050565b600160009054906101000a900473ffffffffffffffffffffffffffffffffffffffff1681565b6000620011f3620013e8565b73ffffffffffffffffffffffffffffffffffffffff166000809054906101000a900473ffffffffffffffffffffffffffffffffffffffff1673ffffffffffffffffffffffffffffffffffffffff1614620012b5576040517f08c379a00000000000000000000000000000000000000000000000000000000081526004018080602001828103825260208152602001807f4f776e61626c653a2063616c6c6572206973206e6f7420746865206f776e657281525060200191505060405180910390fd5b81600660008273ffffffffffffffffffffffffffffffffffffffff1673ffffffffffffffffffffffffffffffffffffffff16815260200190815260200160002060009054906101000a900460ff166200135a576040517f08c379a000000000000000000000000000000000000000000000000000000000815260040180806020018281038252603181526020018062004b1e6031913960400191505060405180910390fd5b8273ffffffffffffffffffffffffffffffffffffffff1663894ba8336040518163ffffffff1660e01b8152600401602060405180830381600087803b158015620013a357600080fd5b505af1158015620013b8573d6000803e3d6000fd5b505050506040513d6020811015620013cf57600080fd5b8101908080519060200190929190505050915050919050565b600033905090565b6136f980620013ff8339019056fe608060405260456013553480156200001657600080fd5b50604051620036f9380380620036f983398181016040526101a08110156200003d57600080fd5b81019080805190602001909291908051906020019092919080519060200190929190805190602001909291908051906020019092919080519060200190929190805190602001909291908051906020019092919080516040519392919084640100000000821115620000ae57600080fd5b83820191506020820185811115620000c557600080fd5b8251866001820283011164010000000082111715620000e357600080fd5b8083526020830192505050908051906020019080838360005b8381101562000119578082015181840152602081019050620000fc565b50505050905090810190601f168015620001475780820380516001836020036101000a031916815260200191505b506040526020018051906020019092919080519060200190929190805190602001909291908051906020019092919050505060006200018b620006c760201b60201c565b9050806000806101000a81548173ffffffffffffffffffffffffffffffffffffffff021916908373ffffffffffffffffffffffffffffffffffffffff1602179055508073ffffffffffffffffffffffffffffffffffffffff16600073ffffffffffffffffffffffffffffffffffffffff167f8be0079c531659141344cd1fd0a4f28419497f9722a3daafe3b4186f6b6457e060405160405180910390a35060008060146101000a81548160ff0219169083151502179055506001600060156101000a81548160ff0219169083151502179055503373ffffffffffffffffffffffffffffffffffffffff168273ffffffffffffffffffffffffffffffffffffffff1614620002a457620002a382620006cf60201b60201c565b5b8c600160006101000a81548173ffffffffffffffffffffffffffffffffffffffff021916908373ffffffffffffffffffffffffffffffffffffffff1602179055508b600260006101000a81548173ffffffffffffffffffffffffffffffffffffffff021916908373ffffffffffffffffffffffffffffffffffffffff1602179055508a600360006101000a81548173ffffffffffffffffffffffffffffffffffffffff021916908373ffffffffffffffffffffffffffffffffffffffff16021790555089600460006101000a81548173ffffffffffffffffffffffffffffffffffffffff021916908373ffffffffffffffffffffffffffffffffffffffff16021790555088600560006101000a81548173ffffffffffffffffffffffffffffffffffffffff021916908373ffffffffffffffffffffffffffffffffffffffff160217905550600160009054906101000a900473ffffffffffffffffffffffffffffffffffffffff1673ffffffffffffffffffffffffffffffffffffffff1663095ea7b3600460009054906101000a900473ffffffffffffffffffffffffffffffffffffffff167f80000000000000000000000000000000000000000000000000000000000000006040518363ffffffff1660e01b8152600401808373ffffffffffffffffffffffffffffffffffffffff1673ffffffffffffffffffffffffffffffffffffffff16815260200182815260200192505050602060405180830381600087803b158015620004d557600080fd5b505af1158015620004ea573d6000803e3d6000fd5b505050506040513d60208110156200050157600080fd5b8101908080519060200190929190505050508760068190555080156200052e578760078190555062000552565b6200054b62093a8089620008e760201b620024001790919060201c565b6007819055505b86600860006101000a81548163ffffffff021916908363ffffffff16021790555084600a90805190602001906200058b92919062000b05565b5083600c8190555080600d60016101000a81548160ff0219169083151502179055506040518060400160405280600c81526020017f446f6e616c64205472756d700000000000000000000000000000000000000000815250600b600080815260200190815260200160002090805190602001906200060b92919062000b05565b506040518060400160405280600981526020017f4a6f6520426964656e0000000000000000000000000000000000000000000000815250600b60006001815260200190815260200160002090805190602001906200066b92919062000b05565b5060006002905060606040518060800160405280605e81526020016200369b605e913990506000429050620006ab83838b898e866200097060201b60201c565b6009819055505050505050505050505050505050505062000bb4565b600033905090565b620006df620006c760201b60201c565b73ffffffffffffffffffffffffffffffffffffffff166000809054906101000a900473ffffffffffffffffffffffffffffffffffffffff1673ffffffffffffffffffffffffffffffffffffffff1614620007a1576040517f08c379a00000000000000000000000000000000000000000000000000000000081526004018080602001828103825260208152602001807f4f776e61626c653a2063616c6c6572206973206e6f7420746865206f776e657281525060200191505060405180910390fd5b600073ffffffffffffffffffffffffffffffffffffffff168173ffffffffffffffffffffffffffffffffffffffff16141562000829576040517f08c379a0000000000000000000000000000000000000000000000000000000008152600401808060200182810382526026815260200180620036756026913960400191505060405180910390fd5b8073ffffffffffffffffffffffffffffffffffffffff166000809054906101000a900473ffffffffffffffffffffffffffffffffffffffff1673ffffffffffffffffffffffffffffffffffffffff167f8be0079c531659141344cd1fd0a4f28419497f9722a3daafe3b4186f6b6457e060405160405180910390a3806000806101000a81548173ffffffffffffffffffffffffffffffffffffffff021916908373ffffffffffffffffffffffffffffffffffffffff16021790555050565b60008082840190508381101562000966576040517f08c379a000000000000000000000000000000000000000000000000000000000815260040180806020018281038252601b8152602001807f536166654d6174683a206164646974696f6e206f766572666c6f77000000000081525060200191505060405180910390fd5b8091505092915050565b6000600560009054906101000a900473ffffffffffffffffffffffffffffffffffffffff1673ffffffffffffffffffffffffffffffffffffffff1663762c38fd8888888888886040518763ffffffff1660e01b815260040180878152602001806020018673ffffffffffffffffffffffffffffffffffffffff1673ffffffffffffffffffffffffffffffffffffffff1681526020018563ffffffff1663ffffffff1681526020018463ffffffff1663ffffffff168152602001838152602001828103825287818151815260200191508051906020019080838360005b8381101562000a6957808201518184015260208101905062000a4c565b50505050905090810190601f16801562000a975780820380516001836020036101000a031916815260200191505b50975050505050505050602060405180830381600087803b15801562000abc57600080fd5b505af115801562000ad1573d6000803e3d6000fd5b505050506040513d602081101562000ae857600080fd5b810190808051906020019092919050505090509695505050505050565b828054600181600116156101000203166002900490600052602060002090601f016020900481019282601f1062000b4857805160ff191683800117855562000b79565b8280016001018555821562000b79579182015b8281111562000b7857825182559160200191906001019062000b5b565b5b50905062000b88919062000b8c565b5090565b62000bb191905b8082111562000bad57600081600090555060010162000b93565b5090565b90565b612ab18062000bc46000396000f3fe6080604052600436106101fd5760003560e01c8063894ba8331161010d578063c19d93fb116100a0578063ee72b06d1161006f578063ee72b06d146109f1578063f2fde38b14610a08578063f4b9fa7514610a59578063fd27b51e14610ab0578063fe5e185314610adb57610204565b8063c19d93fb146108c3578063cbf1304d146108fc578063cd9ea3421461096b578063e9d337b81461099a57610204565b8063a0c1f15e116100dc578063a0c1f15e1461079b578063ad5d2862146107f2578063b06a5c5214610841578063bc8802a21461086c57610204565b8063894ba833146106815780638da5cb5b146106b0578063906d6241146107075780639b34ae031461077057610204565b806349200d77116101905780634ecc79f71161015f5780634ecc79f7146104cc5780635c975abb146104f757806369fb066414610526578063715018a6146105da5780638043c9c0146105f157610204565b806349200d77146104065780634afe62b5146104315780634b319713146104765780634b8755ca146104a157610204565b806333b16d93116101cc57806333b16d931461030657806335c1d3491461031d5780633ca55833146103985780633ccfd60b146103ef57610204565b8063052fd203146102065780630b60365c14610255578063149b5d5814610280578063232ea3ad146102cf57610204565b3661020457005b005b34801561021257600080fd5b5061023f6004803603602081101561022957600080fd5b8101908080359060200190929190505050610b06565b6040518082815260200191505060405180910390f35b34801561026157600080fd5b5061026a610b1e565b6040518082815260200191505060405180910390f35b34801561028c57600080fd5b506102b9600480360360208110156102a357600080fd5b8101908080359060200190929190505050610c38565b6040518082815260200191505060405180910390f35b3480156102db57600080fd5b506102e4610c92565b604051808263ffffffff1663ffffffff16815260200191505060405180910390f35b34801561031257600080fd5b5061031b610ca8565b005b34801561032957600080fd5b506103566004803603602081101561034057600080fd5b8101908080359060200190929190505050610dbd565b604051808273ffffffffffffffffffffffffffffffffffffffff1673ffffffffffffffffffffffffffffffffffffffff16815260200191505060405180910390f35b3480156103a457600080fd5b506103ad610df9565b604051808273ffffffffffffffffffffffffffffffffffffffff1673ffffffffffffffffffffffffffffffffffffffff16815260200191505060405180910390f35b3480156103fb57600080fd5b50610404610e1f565b005b34801561041257600080fd5b5061041b6111ac565b6040518082815260200191505060405180910390f35b34801561043d57600080fd5b506104746004803603604081101561045457600080fd5b8101908080359060200190929190803590602001909291905050506111b2565b005b34801561048257600080fd5b5061048b6115e6565b6040518082815260200191505060405180910390f35b3480156104ad57600080fd5b506104b66115ec565b6040518082815260200191505060405180910390f35b3480156104d857600080fd5b506104e16115f2565b6040518082815260200191505060405180910390f35b34801561050357600080fd5b5061050c6115f8565b604051808215151515815260200191505060405180910390f35b34801561053257600080fd5b5061055f6004803603602081101561054957600080fd5b810190808035906020019092919050505061160e565b6040518080602001828103825283818151815260200191508051906020019080838360005b8381101561059f578082015181840152602081019050610584565b50505050905090810190601f1680156105cc5780820380516001836020036101000a031916815260200191505b509250505060405180910390f35b3480156105e657600080fd5b506105ef6116be565b005b3480156105fd57600080fd5b50610606611846565b6040518080602001828103825283818151815260200191508051906020019080838360005b8381101561064657808201518184015260208101905061062b565b50505050905090810190601f1680156106735780820380516001836020036101000a031916815260200191505b509250505060405180910390f35b34801561068d57600080fd5b506106966118e4565b604051808215151515815260200191505060405180910390f35b3480156106bc57600080fd5b506106c56119ba565b604051808273ffffffffffffffffffffffffffffffffffffffff1673ffffffffffffffffffffffffffffffffffffffff16815260200191505060405180910390f35b34801561071357600080fd5b506107566004803603602081101561072a57600080fd5b81019080803573ffffffffffffffffffffffffffffffffffffffff1690602001909291905050506119e3565b604051808215151515815260200191505060405180910390f35b34801561077c57600080fd5b50610785611a03565b6040518082815260200191505060405180910390f35b3480156107a757600080fd5b506107b0611a09565b604051808273ffffffffffffffffffffffffffffffffffffffff1673ffffffffffffffffffffffffffffffffffffffff16815260200191505060405180910390f35b3480156107fe57600080fd5b5061082b6004803603602081101561081557600080fd5b8101908080359060200190929190505050611a2f565b6040518082815260200191505060405180910390f35b34801561084d57600080fd5b50610856611af5565b6040518082815260200191505060405180910390f35b34801561087857600080fd5b50610881611afb565b604051808273ffffffffffffffffffffffffffffffffffffffff1673ffffffffffffffffffffffffffffffffffffffff16815260200191505060405180910390f35b3480156108cf57600080fd5b506108d8611b21565b604051808260038111156108e857fe5b60ff16815260200191505060405180910390f35b34801561090857600080fd5b506109556004803603604081101561091f57600080fd5b81019080803573ffffffffffffffffffffffffffffffffffffffff16906020019092919080359060200190929190505050611b34565b6040518082815260200191505060405180910390f35b34801561097757600080fd5b50610980611b59565b604051808215151515815260200191505060405180910390f35b3480156109a657600080fd5b506109af611b6c565b604051808273ffffffffffffffffffffffffffffffffffffffff1673ffffffffffffffffffffffffffffffffffffffff16815260200191505060405180910390f35b3480156109fd57600080fd5b50610a06611b92565b005b348015610a1457600080fd5b50610a5760048036036020811015610a2b57600080fd5b81019080803573ffffffffffffffffffffffffffffffffffffffff169060200190929190505050611d6e565b005b348015610a6557600080fd5b50610a6e611f7b565b604051808273ffffffffffffffffffffffffffffffffffffffff1673ffffffffffffffffffffffffffffffffffffffff16815260200191505060405180910390f35b348015610abc57600080fd5b50610ac5611fa1565b6040518082815260200191505060405180910390f35b348015610ae757600080fd5b50610af0611fae565b6040518082815260200191505060405180910390f35b600f6020528060005260406000206000915090505481565b600080610b38601454601054611fb490919063ffffffff16565b90506000600260009054906101000a900473ffffffffffffffffffffffffffffffffffffffff1673ffffffffffffffffffffffffffffffffffffffff166370a08231306040518263ffffffff1660e01b8152600401808273ffffffffffffffffffffffffffffffffffffffff1673ffffffffffffffffffffffffffffffffffffffff16815260200191505060206040518083038186803b158015610bdb57600080fd5b505afa158015610bef573d6000803e3d6000fd5b505050506040513d6020811015610c0557600080fd5b810190808051906020019092919050505090506000610c2d8383611fb490919063ffffffff16565b905080935050505090565b6000600e60003373ffffffffffffffffffffffffffffffffffffffff1673ffffffffffffffffffffffffffffffffffffffff1681526020019081526020016000206000838152602001908152602001600020549050919050565b600860009054906101000a900463ffffffff1681565b600060149054906101000a900460ff1615610d2b576040517f08c379a00000000000000000000000000000000000000000000000000000000081526004018080602001828103825260108152602001807f5061757361626c653a207061757365640000000000000000000000000000000081525060200191505060405180910390fd5b610d33611ffe565b610da5576040517f08c379a00000000000000000000000000000000000000000000000000000000081526004018080602001828103825260188152602001807f4f7261636c6520686173206e6f742066696e616c69736564000000000000000081525060200191505060405180910390fd5b610dad6120b5565b601381905550610dbb611b92565b565b60118181548110610dca57fe5b906000526020600020016000915054906101000a900473ffffffffffffffffffffffffffffffffffffffff1681565b600460009054906101000a900473ffffffffffffffffffffffffffffffffffffffff1681565b6003806003811115610e2d57fe5b600d60009054906101000a900460ff166003811115610e4857fe5b14610e9e576040517f08c379a0000000000000000000000000000000000000000000000000000000008152600401808060200182810382526026815260200180612a566026913960400191505060405180910390fd5b600060149054906101000a900460ff1615610f21576040517f08c379a00000000000000000000000000000000000000000000000000000000081526004018080602001828103825260108152602001807f5061757361626c653a207061757365640000000000000000000000000000000081525060200191505060405180910390fd5b600060159054906101000a900460ff16610fa3576040517f08c379a000000000000000000000000000000000000000000000000000000000815260040180806020018281038252601f8152602001807f5265656e7472616e637947756172643a207265656e7472616e742063616c6c0081525060200191505060405180910390fd5b60008060156101000a81548160ff021916908315150217905550601260003373ffffffffffffffffffffffffffffffffffffffff1673ffffffffffffffffffffffffffffffffffffffff16815260200190815260200160002060009054906101000a900460ff161561107d576040517f08c379a00000000000000000000000000000000000000000000000000000000081526004018080602001828103825260118152602001807f416c72656164792077697468647261776e00000000000000000000000000000081525060200191505060405180910390fd5b6001601260003373ffffffffffffffffffffffffffffffffffffffff1673ffffffffffffffffffffffffffffffffffffffff16815260200190815260200160002060006101000a81548160ff02191690831515021790555060006110e2601354611a2f565b9050600081111561118557600260009054906101000a900473ffffffffffffffffffffffffffffffffffffffff1673ffffffffffffffffffffffffffffffffffffffff1663db006a75826040518263ffffffff1660e01b815260040180828152602001915050600060405180830381600087803b15801561116257600080fd5b505af1158015611176573d6000803e3d6000fd5b505050506111843382612174565b5b61118d6122ce565b506001600060156101000a81548160ff02191690831515021790555050565b600c5481565b60018060038111156111c057fe5b600d60009054906101000a900460ff1660038111156111db57fe5b14611231576040517f08c379a0000000000000000000000000000000000000000000000000000000008152600401808060200182810382526026815260200180612a566026913960400191505060405180910390fd5b600060149054906101000a900460ff16156112b4576040517f08c379a00000000000000000000000000000000000000000000000000000000081526004018080602001828103825260108152602001807f5061757361626c653a207061757365640000000000000000000000000000000081525060200191505060405180910390fd5b6000600e60003373ffffffffffffffffffffffffffffffffffffffff1673ffffffffffffffffffffffffffffffffffffffff1681526020019081526020016000206000858152602001908152602001600020541415611371576011339080600181540180825580915050600190039060005260206000200160009091909190916101000a81548173ffffffffffffffffffffffffffffffffffffffff021916908373ffffffffffffffffffffffffffffffffffffffff1602179055505b3373ffffffffffffffffffffffffffffffffffffffff167fef3b3ae531a4f494c95e537ec1fe385cfe5c1146cb4c1d850b24bad38595804960405160405180910390a261141782600e60003373ffffffffffffffffffffffffffffffffffffffff1673ffffffffffffffffffffffffffffffffffffffff16815260200190815260200160002060008681526020019081526020016000205461240090919063ffffffff16565b600e60003373ffffffffffffffffffffffffffffffffffffffff1673ffffffffffffffffffffffffffffffffffffffff1681526020019081526020016000206000858152602001908152602001600020819055506114808260105461240090919063ffffffff16565b6010819055506114ac82600f60008681526020019081526020016000205461240090919063ffffffff16565b600f600085815260200190815260200160002081905550600d60019054906101000a900460ff16156114e6576114e182612488565b6114f1565b6114f03383612518565b5b600360009054906101000a900473ffffffffffffffffffffffffffffffffffffffff1673ffffffffffffffffffffffffffffffffffffffff1663d2d0e066600160009054906101000a900473ffffffffffffffffffffffffffffffffffffffff168460006040518463ffffffff1660e01b8152600401808473ffffffffffffffffffffffffffffffffffffffff1673ffffffffffffffffffffffffffffffffffffffff1681526020018381526020018261ffff1681526020019350505050600060405180830381600087803b1580156115c957600080fd5b505af11580156115dd573d6000803e3d6000fd5b50505050505050565b60145481565b60075481565b60065481565b60008060149054906101000a900460ff16905090565b600b6020528060005260406000206000915090508054600181600116156101000203166002900480601f0160208091040260200160405190810160405280929190818152602001828054600181600116156101000203166002900480156116b65780601f1061168b576101008083540402835291602001916116b6565b820191906000526020600020905b81548152906001019060200180831161169957829003601f168201915b505050505081565b6116c66126a6565b73ffffffffffffffffffffffffffffffffffffffff166000809054906101000a900473ffffffffffffffffffffffffffffffffffffffff1673ffffffffffffffffffffffffffffffffffffffff1614611787576040517f08c379a00000000000000000000000000000000000000000000000000000000081526004018080602001828103825260208152602001807f4f776e61626c653a2063616c6c6572206973206e6f7420746865206f776e657281525060200191505060405180910390fd5b600073ffffffffffffffffffffffffffffffffffffffff166000809054906101000a900473ffffffffffffffffffffffffffffffffffffffff1673ffffffffffffffffffffffffffffffffffffffff167f8be0079c531659141344cd1fd0a4f28419497f9722a3daafe3b4186f6b6457e060405160405180910390a360008060006101000a81548173ffffffffffffffffffffffffffffffffffffffff021916908373ffffffffffffffffffffffffffffffffffffffff160217905550565b600a8054600181600116156101000203166002900480601f0160208091040260200160405190810160405280929190818152602001828054600181600116156101000203166002900480156118dc5780601f106118b1576101008083540402835291602001916118dc565b820191906000526020600020905b8154815290600101906020018083116118bf57829003601f168201915b505050505081565b60006118ee6126a6565b73ffffffffffffffffffffffffffffffffffffffff166000809054906101000a900473ffffffffffffffffffffffffffffffffffffffff1673ffffffffffffffffffffffffffffffffffffffff16146119af576040517f08c379a00000000000000000000000000000000000000000000000000000000081526004018080602001828103825260208152602001807f4f776e61626c653a2063616c6c6572206973206e6f7420746865206f776e657281525060200191505060405180910390fd5b6119b76126ae565b90565b60008060009054906101000a900473ffffffffffffffffffffffffffffffffffffffff16905090565b60126020528060005260406000206000915054906101000a900460ff1681565b60135481565b600260009054906101000a900473ffffffffffffffffffffffffffffffffffffffff1681565b6000806000600e60003373ffffffffffffffffffffffffffffffffffffffff1673ffffffffffffffffffffffffffffffffffffffff16815260200190815260200160002060008581526020019081526020016000205490506000811115611aeb576000611a9a610b1e565b90506000611ab5601454601054611fb490919063ffffffff16565b90506000811115611ae857611ae581611ad784866127b890919063ffffffff16565b61283e90919063ffffffff16565b93505b50505b8192505050919050565b60095481565b600560009054906101000a900473ffffffffffffffffffffffffffffffffffffffff1681565b600d60009054906101000a900460ff1681565b600e602052816000526040600020602052806000526040600020600091509150505481565b600d60019054906101000a900460ff1681565b600360009054906101000a900473ffffffffffffffffffffffffffffffffffffffff1681565b600060149054906101000a900460ff1615611c15576040517f08c379a00000000000000000000000000000000000000000000000000000000081526004018080602001828103825260108152602001807f5061757361626c653a207061757365640000000000000000000000000000000081525060200191505060405180910390fd5b60006003811115611c2257fe5b600d60009054906101000a900460ff166003811115611c3d57fe5b148015611c4b575042600654105b80611c88575060016003811115611c5e57fe5b600d60009054906101000a900460ff166003811115611c7957fe5b148015611c87575042600754105b5b80611cc7575060026003811115611c9b57fe5b600d60009054906101000a900460ff166003811115611cb657fe5b148015611cc65750604560135414155b5b15611d6c576001600d60009054906101000a900460ff166003811115611ce957fe5b016003811115611cf557fe5b600d60006101000a81548160ff02191690836003811115611d1257fe5b02179055507f551dc40198cc79684bb69e4931dba4ac16e4598792ee1c0a5000aeea366d7bb6600d60009054906101000a900460ff1660405180826003811115611d5857fe5b60ff16815260200191505060405180910390a15b565b611d766126a6565b73ffffffffffffffffffffffffffffffffffffffff166000809054906101000a900473ffffffffffffffffffffffffffffffffffffffff1673ffffffffffffffffffffffffffffffffffffffff1614611e37576040517f08c379a00000000000000000000000000000000000000000000000000000000081526004018080602001828103825260208152602001807f4f776e61626c653a2063616c6c6572206973206e6f7420746865206f776e657281525060200191505060405180910390fd5b600073ffffffffffffffffffffffffffffffffffffffff168173ffffffffffffffffffffffffffffffffffffffff161415611ebd576040517f08c379a0000000000000000000000000000000000000000000000000000000008152600401808060200182810382526026815260200180612a0f6026913960400191505060405180910390fd5b8073ffffffffffffffffffffffffffffffffffffffff166000809054906101000a900473ffffffffffffffffffffffffffffffffffffffff1673ffffffffffffffffffffffffffffffffffffffff167f8be0079c531659141344cd1fd0a4f28419497f9722a3daafe3b4186f6b6457e060405160405180910390a3806000806101000a81548173ffffffffffffffffffffffffffffffffffffffff021916908373ffffffffffffffffffffffffffffffffffffffff16021790555050565b600160009054906101000a900473ffffffffffffffffffffffffffffffffffffffff1681565b6000601180549050905090565b60105481565b6000611ff683836040518060400160405280601e81526020017f536166654d6174683a207375627472616374696f6e206f766572666c6f770000815250612888565b905092915050565b6000600560009054906101000a900473ffffffffffffffffffffffffffffffffffffffff1673ffffffffffffffffffffffffffffffffffffffff16637f8d429e6009546040518263ffffffff1660e01b81526004018082815260200191505060206040518083038186803b15801561207557600080fd5b505afa158015612089573d6000803e3d6000fd5b505050506040513d602081101561209f57600080fd5b8101908080519060200190929190505050905090565b600080600560009054906101000a900473ffffffffffffffffffffffffffffffffffffffff1673ffffffffffffffffffffffffffffffffffffffff1663d09cc57e6009546040518263ffffffff1660e01b81526004018082815260200191505060206040518083038186803b15801561212d57600080fd5b505afa158015612141573d6000803e3d6000fd5b505050506040513d602081101561215757600080fd5b810190808051906020019092919050505090508060001c91505090565b600160009054906101000a900473ffffffffffffffffffffffffffffffffffffffff1673ffffffffffffffffffffffffffffffffffffffff1663a9059cbb83836040518363ffffffff1660e01b8152600401808373ffffffffffffffffffffffffffffffffffffffff1673ffffffffffffffffffffffffffffffffffffffff16815260200182815260200192505050602060405180830381600087803b15801561221d57600080fd5b505af1158015612231573d6000803e3d6000fd5b505050506040513d602081101561224757600080fd5b81019080805190602001909291905050506122ca576040517f08c379a00000000000000000000000000000000000000000000000000000000081526004018080602001828103825260148152602001807f43617368207472616e73666572206661696c656400000000000000000000000081525060200191505060405180910390fd5b5050565b60008090505b600c548110156123fd576000600e60003373ffffffffffffffffffffffffffffffffffffffff1673ffffffffffffffffffffffffffffffffffffffff168152602001908152602001600020600083815260200190815260200160002054905060008111156123ef576123518160145461240090919063ffffffff16565b601481905550600260009054906101000a900473ffffffffffffffffffffffffffffffffffffffff1673ffffffffffffffffffffffffffffffffffffffff1663db006a75826040518263ffffffff1660e01b815260040180828152602001915050600060405180830381600087803b1580156123cc57600080fd5b505af11580156123e0573d6000803e3d6000fd5b505050506123ee3382612174565b5b5080806001019150506122d4565b50565b60008082840190508381101561247e576040517f08c379a000000000000000000000000000000000000000000000000000000000815260040180806020018281038252601b8152602001807f536166654d6174683a206164646974696f6e206f766572666c6f77000000000081525060200191505060405180910390fd5b8091505092915050565b600160009054906101000a900473ffffffffffffffffffffffffffffffffffffffff1673ffffffffffffffffffffffffffffffffffffffff1663a0712d68826040518263ffffffff1660e01b815260040180828152602001915050600060405180830381600087803b1580156124fd57600080fd5b505af1158015612511573d6000803e3d6000fd5b5050505050565b600160009054906101000a900473ffffffffffffffffffffffffffffffffffffffff1673ffffffffffffffffffffffffffffffffffffffff166323b872dd8330846040518463ffffffff1660e01b8152600401808473ffffffffffffffffffffffffffffffffffffffff1673ffffffffffffffffffffffffffffffffffffffff1681526020018373ffffffffffffffffffffffffffffffffffffffff1673ffffffffffffffffffffffffffffffffffffffff1681526020018281526020019350505050602060405180830381600087803b1580156125f557600080fd5b505af1158015612609573d6000803e3d6000fd5b505050506040513d602081101561261f57600080fd5b81019080805190602001909291905050506126a2576040517f08c379a00000000000000000000000000000000000000000000000000000000081526004018080602001828103825260148152602001807f43617368207472616e73666572206661696c656400000000000000000000000081525060200191505060405180910390fd5b5050565b600033905090565b600060149054906101000a900460ff1615612731576040517f08c379a00000000000000000000000000000000000000000000000000000000081526004018080602001828103825260108152602001807f5061757361626c653a207061757365640000000000000000000000000000000081525060200191505060405180910390fd5b6001600060146101000a81548160ff0219169083151502179055507f62e78cea01bee320cd4e420270b5ea74000d11b0c9f74754ebdbfc544b05a2586127756126a6565b604051808273ffffffffffffffffffffffffffffffffffffffff1673ffffffffffffffffffffffffffffffffffffffff16815260200191505060405180910390a1565b6000808314156127cb5760009050612838565b60008284029050828482816127dc57fe5b0414612833576040517f08c379a0000000000000000000000000000000000000000000000000000000008152600401808060200182810382526021815260200180612a356021913960400191505060405180910390fd5b809150505b92915050565b600061288083836040518060400160405280601a81526020017f536166654d6174683a206469766973696f6e206279207a65726f000000000000815250612948565b905092915050565b6000838311158290612935576040517f08c379a00000000000000000000000000000000000000000000000000000000081526004018080602001828103825283818151815260200191508051906020019080838360005b838110156128fa5780820151818401526020810190506128df565b50505050905090810190601f1680156129275780820380516001836020036101000a031916815260200191505b509250505060405180910390fd5b5060008385039050809150509392505050565b600080831182906129f4576040517f08c379a00000000000000000000000000000000000000000000000000000000081526004018080602001828103825283818151815260200191508051906020019080838360005b838110156129b957808201518184015260208101905061299e565b50505050905090810190601f1680156129e65780820380516001836020036101000a031916815260200191505b509250505060405180910390fd5b506000838581612a0057fe5b04905080915050939250505056fe4f776e61626c653a206e6577206f776e657220697320746865207a65726f2061646472657373536166654d6174683a206d756c7469706c69636174696f6e206f766572666c6f7766756e6374696f6e2063616e6e6f742062652063616c6c656420617420746869732074696d65a264697066735822122086e585004c39269f2c0f27fc267545f5917d437815dd74eee830d407affa3d2a64736f6c634300060700334f776e61626c653a206e6577206f776e657220697320746865207a65726f206164647265737357686f2077696c6c2077696e2074686520323032302055532047656e6572616c20456c656374696f6ee2909f22446f6e616c64205472756d70222c224a6f6520426964656e22e2909f6e6577732d706f6c6974696373e2909f656e5f55534f776e61626c653a206e6577206f776e657220697320746865207a65726f20616464726573734d757374277665206265656e20637265617465642062792074686520636f72726573706f6e64696e6720666163746f7279a2646970667358221220ad5082424e277b58fd43d6106644d92f649ceac5ecda23f9e14976a9c99c0f8564736f6c63430006070033",
  "immutableReferences": {},
  "source": "pragma solidity 0.6.7;\r\n\r\nimport \"@openzeppelin/contracts/access/Ownable.sol\";\r\nimport \"@openzeppelin/contracts/utils/Pausable.sol\";\r\nimport \"./BTMarket.sol\";\r\nimport \"./interfaces/IAave.sol\";\r\nimport \"./interfaces/IDai.sol\";\r\nimport \"./interfaces/IRealitio.sol\";\r\n\r\n\r\ncontract BTMarketFactory is Ownable, Pausable {\r\n  Dai public dai;\r\n  IaToken public aToken;\r\n  IAaveLendingPool public aaveLendingPool;\r\n  IAaveLendingPoolCore public aaveLendingPoolCore;\r\n  IRealitio public realitio;\r\n  mapping(address => bool) public mappingOfMarkets;\r\n  address[] public markets;\r\n\r\n  event MarketCreated(address contractAddress);\r\n\r\n  modifier createdByThisFactory(address marketAddress) {\r\n    require(\r\n      mappingOfMarkets[marketAddress],\r\n      \"Must've been created by the corresponding factory\"\r\n    );\r\n    _;\r\n  }\r\n\r\n  constructor(\r\n    Dai _daiAddress,\r\n    IaToken _aTokenAddress,\r\n    IAaveLendingPool _aaveLpAddress,\r\n    IAaveLendingPoolCore _aaveLpcoreAddress,\r\n    IRealitio _realitioAddress\r\n  ) public {\r\n    dai = _daiAddress;\r\n    aToken = _aTokenAddress;\r\n    aaveLendingPool = _aaveLpAddress;\r\n    aaveLendingPoolCore = _aaveLpcoreAddress;\r\n    realitio = _realitioAddress;\r\n  }\r\n\r\n  function createMarket(\r\n    uint256 _marketOpeningTime,\r\n    uint32 _marketResolutionTime,\r\n    address _arbitrator,\r\n    string memory _eventName,\r\n    uint256 _numberOfOutcomes,\r\n    uint32 _timeout\r\n  ) public /* onlyOwner TODO removed for development */ whenNotPaused returns (BTMarket) {\r\n    BTMarket newContract = new BTMarket({\r\n      _daiAddress: dai,\r\n      _aTokenAddress: aToken,\r\n      _aaveLpAddress: aaveLendingPool,\r\n      _aaveLpcoreAddress: aaveLendingPoolCore,\r\n      _realitioAddress: realitio,\r\n      _marketOpeningTime: _marketOpeningTime,\r\n      _marketResolutionTime: _marketResolutionTime,\r\n      _arbitrator: _arbitrator,\r\n      _eventName: _eventName,\r\n      _numberOfOutcomes: _numberOfOutcomes,\r\n      _timeout: _timeout,\r\n      _owner: msg.sender,\r\n      _testMode: true\r\n    });\r\n    address newAddress = address(newContract);\r\n    markets.push(newAddress);\r\n    mappingOfMarkets[newAddress] = true;\r\n    emit MarketCreated(address(newAddress));\r\n    return newContract;\r\n  }\r\n\r\n  function getMarkets() public view returns (address[] memory) {\r\n    return markets;\r\n  }\r\n\r\n  function destroy() public onlyOwner whenPaused {\r\n    selfdestruct(msg.sender);\r\n  }\r\n\r\n  function disableMarket(address payable marketAddress)\r\n    public\r\n    onlyOwner\r\n    createdByThisFactory(marketAddress)\r\n    returns (bool)\r\n  {\r\n    return BTMarket(marketAddress).disableContract();\r\n  }\r\n}\r\n",
  "sourcePath": "C:\\Users\\mail\\Personal\\ETH-global\\BetTogether-Contracts\\contracts\\BTMarketFactory.sol",
  "compiler": {
    "name": "solc",
    "version": "0.6.7+commit.b8d736ae.Emscripten.clang"
  },
  "schemaVersion": "3.1.0",
  "updatedAt": "2020-05-09T23:29:34.856Z",
  "networkType": "ethereum",
  "devdoc": {
    "methods": {
      "owner()": {
        "details": "Returns the address of the current owner."
      },
      "paused()": {
        "details": "Returns true if the contract is paused, and false otherwise."
      },
      "renounceOwnership()": {
        "details": "Leaves the contract without owner. It will not be possible to call `onlyOwner` functions anymore. Can only be called by the current owner.     * NOTE: Renouncing ownership will leave the contract without an owner, thereby removing any functionality that is only available to the owner."
      },
      "transferOwnership(address)": {
        "details": "Transfers ownership of the contract to a new account (`newOwner`). Can only be called by the current owner."
      }
    }
  },
  "userdoc": {
    "methods": {}
  }
}