{
  "contractName": "BTMarket",
  "abi": [
    {
      "inputs": [
        {
          "internalType": "contract Dai",
          "name": "_daiAddress",
          "type": "address"
        },
        {
          "internalType": "contract IaToken",
          "name": "_aTokenAddress",
          "type": "address"
        },
        {
          "internalType": "contract IAaveLendingPool",
          "name": "_aaveLpAddress",
          "type": "address"
        },
        {
          "internalType": "contract IAaveLendingPoolCore",
          "name": "_aaveLpcoreAddress",
          "type": "address"
        },
        {
          "internalType": "contract IRealitio",
          "name": "_realitioAddress",
          "type": "address"
        },
        {
          "internalType": "uint256",
          "name": "_marketOpeningTime",
          "type": "uint256"
        },
        {
          "internalType": "uint32",
          "name": "_marketResolutionTime",
          "type": "uint32"
        },
        {
          "internalType": "address",
          "name": "_arbitrator",
          "type": "address"
        },
        {
          "internalType": "string",
          "name": "_question",
          "type": "string"
        },
        {
          "internalType": "uint256",
          "name": "_numberOfOutcomes",
          "type": "uint256"
        },
        {
          "internalType": "address",
          "name": "_owner",
          "type": "address"
        },
        {
          "internalType": "bool",
          "name": "_testMode",
          "type": "bool"
        }
      ],
      "stateMutability": "nonpayable",
      "type": "constructor"
    },
    {
      "anonymous": false,
      "inputs": [
        {
          "indexed": true,
          "internalType": "address",
          "name": "previousOwner",
          "type": "address"
        },
        {
          "indexed": true,
          "internalType": "address",
          "name": "newOwner",
          "type": "address"
        }
      ],
      "name": "OwnershipTransferred",
      "type": "event"
    },
    {
      "anonymous": false,
      "inputs": [
        {
          "indexed": true,
          "internalType": "address",
          "name": "participant",
          "type": "address"
        }
      ],
      "name": "ParticipantEntered",
      "type": "event"
    },
    {
      "anonymous": false,
      "inputs": [
        {
          "indexed": true,
          "internalType": "address",
          "name": "participant",
          "type": "address"
        }
      ],
      "name": "ParticipantWithdrawn",
      "type": "event"
    },
    {
      "anonymous": false,
      "inputs": [
        {
          "indexed": false,
          "internalType": "address",
          "name": "account",
          "type": "address"
        }
      ],
      "name": "Paused",
      "type": "event"
    },
    {
      "anonymous": false,
      "inputs": [
        {
          "indexed": false,
          "internalType": "enum BTMarket.States",
          "name": "state",
          "type": "uint8"
        }
      ],
      "name": "StateChanged",
      "type": "event"
    },
    {
      "anonymous": false,
      "inputs": [
        {
          "indexed": false,
          "internalType": "address",
          "name": "account",
          "type": "address"
        }
      ],
      "name": "Unpaused",
      "type": "event"
    },
    {
      "anonymous": false,
      "inputs": [
        {
          "indexed": true,
          "internalType": "address",
          "name": "winner",
          "type": "address"
        }
      ],
      "name": "WinnerSelected",
      "type": "event"
    },
    {
      "stateMutability": "payable",
      "type": "fallback",
      "payable": true
    },
    {
      "inputs": [],
      "name": "aToken",
      "outputs": [
        {
          "internalType": "contract IaToken",
          "name": "",
          "type": "address"
        }
      ],
      "stateMutability": "view",
      "type": "function",
      "constant": true
    },
    {
      "inputs": [],
      "name": "aaveLendingPool",
      "outputs": [
        {
          "internalType": "contract IAaveLendingPool",
          "name": "",
          "type": "address"
        }
      ],
      "stateMutability": "view",
      "type": "function",
      "constant": true
    },
    {
      "inputs": [],
      "name": "aaveLendingPoolCore",
      "outputs": [
        {
          "internalType": "contract IAaveLendingPoolCore",
          "name": "",
          "type": "address"
        }
      ],
      "stateMutability": "view",
      "type": "function",
      "constant": true
    },
    {
      "inputs": [
        {
          "internalType": "address",
          "name": "",
          "type": "address"
        },
        {
          "internalType": "uint256",
          "name": "",
          "type": "uint256"
        }
      ],
      "name": "balances",
      "outputs": [
        {
          "internalType": "uint256",
          "name": "",
          "type": "uint256"
        }
      ],
      "stateMutability": "view",
      "type": "function",
      "constant": true
    },
    {
      "inputs": [],
      "name": "dai",
      "outputs": [
        {
          "internalType": "contract Dai",
          "name": "",
          "type": "address"
        }
      ],
      "stateMutability": "view",
      "type": "function",
      "constant": true
    },
    {
      "inputs": [],
      "name": "eventName",
      "outputs": [
        {
          "internalType": "string",
          "name": "",
          "type": "string"
        }
      ],
      "stateMutability": "view",
      "type": "function",
      "constant": true
    },
    {
      "inputs": [],
      "name": "marketLockingTime",
      "outputs": [
        {
          "internalType": "uint256",
          "name": "",
          "type": "uint256"
        }
      ],
      "stateMutability": "view",
      "type": "function",
      "constant": true
    },
    {
      "inputs": [],
      "name": "marketOpeningTime",
      "outputs": [
        {
          "internalType": "uint256",
          "name": "",
          "type": "uint256"
        }
      ],
      "stateMutability": "view",
      "type": "function",
      "constant": true
    },
    {
      "inputs": [],
      "name": "marketResolutionTime",
      "outputs": [
        {
          "internalType": "uint32",
          "name": "",
          "type": "uint32"
        }
      ],
      "stateMutability": "view",
      "type": "function",
      "constant": true
    },
    {
      "inputs": [],
      "name": "numberOfOutcomes",
      "outputs": [
        {
          "internalType": "uint256",
          "name": "",
          "type": "uint256"
        }
      ],
      "stateMutability": "view",
      "type": "function",
      "constant": true
    },
    {
      "inputs": [
        {
          "internalType": "uint256",
          "name": "",
          "type": "uint256"
        }
      ],
      "name": "outcomeNames",
      "outputs": [
        {
          "internalType": "string",
          "name": "",
          "type": "string"
        }
      ],
      "stateMutability": "view",
      "type": "function",
      "constant": true
    },
    {
      "inputs": [],
      "name": "owner",
      "outputs": [
        {
          "internalType": "address",
          "name": "",
          "type": "address"
        }
      ],
      "stateMutability": "view",
      "type": "function",
      "constant": true
    },
    {
      "inputs": [
        {
          "internalType": "uint256",
          "name": "",
          "type": "uint256"
        }
      ],
      "name": "participants",
      "outputs": [
        {
          "internalType": "address",
          "name": "",
          "type": "address"
        }
      ],
      "stateMutability": "view",
      "type": "function",
      "constant": true
    },
    {
      "inputs": [],
      "name": "paused",
      "outputs": [
        {
          "internalType": "bool",
          "name": "",
          "type": "bool"
        }
      ],
      "stateMutability": "view",
      "type": "function",
      "constant": true
    },
    {
      "inputs": [],
      "name": "questionId",
      "outputs": [
        {
          "internalType": "bytes32",
          "name": "",
          "type": "bytes32"
        }
      ],
      "stateMutability": "view",
      "type": "function",
      "constant": true
    },
    {
      "inputs": [],
      "name": "realitio",
      "outputs": [
        {
          "internalType": "contract IRealitio",
          "name": "",
          "type": "address"
        }
      ],
      "stateMutability": "view",
      "type": "function",
      "constant": true
    },
    {
      "inputs": [],
      "name": "renounceOwnership",
      "outputs": [],
      "stateMutability": "nonpayable",
      "type": "function"
    },
    {
      "inputs": [],
      "name": "state",
      "outputs": [
        {
          "internalType": "enum BTMarket.States",
          "name": "",
          "type": "uint8"
        }
      ],
      "stateMutability": "view",
      "type": "function",
      "constant": true
    },
    {
      "inputs": [],
      "name": "testMode",
      "outputs": [
        {
          "internalType": "bool",
          "name": "",
          "type": "bool"
        }
      ],
      "stateMutability": "view",
      "type": "function",
      "constant": true
    },
    {
      "inputs": [],
      "name": "totalBet",
      "outputs": [
        {
          "internalType": "uint256",
          "name": "",
          "type": "uint256"
        }
      ],
      "stateMutability": "view",
      "type": "function",
      "constant": true
    },
    {
      "inputs": [
        {
          "internalType": "uint256",
          "name": "",
          "type": "uint256"
        }
      ],
      "name": "totalBetPerOutcome",
      "outputs": [
        {
          "internalType": "uint256",
          "name": "",
          "type": "uint256"
        }
      ],
      "stateMutability": "view",
      "type": "function",
      "constant": true
    },
    {
      "inputs": [],
      "name": "totalWithdrawn",
      "outputs": [
        {
          "internalType": "uint256",
          "name": "",
          "type": "uint256"
        }
      ],
      "stateMutability": "view",
      "type": "function",
      "constant": true
    },
    {
      "inputs": [
        {
          "internalType": "address",
          "name": "newOwner",
          "type": "address"
        }
      ],
      "name": "transferOwnership",
      "outputs": [],
      "stateMutability": "nonpayable",
      "type": "function"
    },
    {
      "inputs": [],
      "name": "winningOutcome",
      "outputs": [
        {
          "internalType": "uint256",
          "name": "",
          "type": "uint256"
        }
      ],
      "stateMutability": "view",
      "type": "function",
      "constant": true
    },
    {
      "inputs": [
        {
          "internalType": "address",
          "name": "",
          "type": "address"
        }
      ],
      "name": "withdrawnBool",
      "outputs": [
        {
          "internalType": "bool",
          "name": "",
          "type": "bool"
        }
      ],
      "stateMutability": "view",
      "type": "function",
      "constant": true
    },
    {
      "stateMutability": "payable",
      "type": "receive",
      "payable": true
    },
    {
      "inputs": [
        {
          "internalType": "string",
          "name": "_eventName",
          "type": "string"
        }
      ],
      "name": "setEventName",
      "outputs": [],
      "stateMutability": "nonpayable",
      "type": "function"
    },
    {
      "inputs": [
        {
          "internalType": "uint256",
          "name": "_outcomeId",
          "type": "uint256"
        },
        {
          "internalType": "string",
          "name": "_outcomeName",
          "type": "string"
        }
      ],
      "name": "setOutcomeName",
      "outputs": [],
      "stateMutability": "nonpayable",
      "type": "function"
    },
    {
      "inputs": [],
      "name": "getMarketSize",
      "outputs": [
        {
          "internalType": "uint256",
          "name": "",
          "type": "uint256"
        }
      ],
      "stateMutability": "view",
      "type": "function",
      "constant": true
    },
    {
      "inputs": [
        {
          "internalType": "uint256",
          "name": "_outcome",
          "type": "uint256"
        }
      ],
      "name": "getParticipantsBet",
      "outputs": [
        {
          "internalType": "uint256",
          "name": "",
          "type": "uint256"
        }
      ],
      "stateMutability": "view",
      "type": "function",
      "constant": true
    },
    {
      "inputs": [],
      "name": "getTotalInterest",
      "outputs": [
        {
          "internalType": "uint256",
          "name": "",
          "type": "uint256"
        }
      ],
      "stateMutability": "view",
      "type": "function",
      "constant": true
    },
    {
      "inputs": [
        {
          "internalType": "uint256",
          "name": "_outcome",
          "type": "uint256"
        }
      ],
      "name": "getWinnings",
      "outputs": [
        {
          "internalType": "uint256",
          "name": "",
          "type": "uint256"
        }
      ],
      "stateMutability": "view",
      "type": "function",
      "constant": true
    },
    {
      "inputs": [
        {
          "internalType": "uint256",
          "name": "_outcome",
          "type": "uint256"
        },
        {
          "internalType": "uint256",
          "name": "_dai",
          "type": "uint256"
        }
      ],
      "name": "placeBet",
      "outputs": [],
      "stateMutability": "nonpayable",
      "type": "function"
    },
    {
      "inputs": [],
      "name": "determineWinner",
      "outputs": [],
      "stateMutability": "nonpayable",
      "type": "function"
    },
    {
      "inputs": [],
      "name": "incrementState",
      "outputs": [],
      "stateMutability": "nonpayable",
      "type": "function"
    },
    {
      "inputs": [],
      "name": "withdraw",
      "outputs": [],
      "stateMutability": "nonpayable",
      "type": "function"
    },
    {
      "inputs": [],
      "name": "disableContract",
      "outputs": [
        {
          "internalType": "bool",
          "name": "",
          "type": "bool"
        }
      ],
      "stateMutability": "nonpayable",
      "type": "function"
    },
    {
      "inputs": [],
      "name": "enableContract",
      "outputs": [
        {
          "internalType": "bool",
          "name": "",
          "type": "bool"
        }
      ],
      "stateMutability": "nonpayable",
      "type": "function"
    }
  ],
  "bytecode": "0x608060405260456013553480156200001657600080fd5b5060405162003bb538038062003bb583398181016040526101808110156200003d57600080fd5b81019080805190602001909291908051906020019092919080519060200190929190805190602001909291908051906020019092919080519060200190929190805190602001909291908051906020019092919080516040519392919084640100000000821115620000ae57600080fd5b83820191506020820185811115620000c557600080fd5b8251866001820283011164010000000082111715620000e357600080fd5b8083526020830192505050908051906020019080838360005b8381101562000119578082015181840152602081019050620000fc565b50505050905090810190601f168015620001475780820380516001836020036101000a031916815260200191505b50604052602001805190602001909291908051906020019092919080519060200190929190505050600062000181620005d260201b60201c565b9050806000806101000a81548173ffffffffffffffffffffffffffffffffffffffff021916908373ffffffffffffffffffffffffffffffffffffffff1602179055508073ffffffffffffffffffffffffffffffffffffffff16600073ffffffffffffffffffffffffffffffffffffffff167f8be0079c531659141344cd1fd0a4f28419497f9722a3daafe3b4186f6b6457e060405160405180910390a35060008060146101000a81548160ff0219169083151502179055506001600060156101000a81548160ff0219169083151502179055503373ffffffffffffffffffffffffffffffffffffffff168273ffffffffffffffffffffffffffffffffffffffff16146200029a576200029982620005da60201b60201c565b5b8b600160006101000a81548173ffffffffffffffffffffffffffffffffffffffff021916908373ffffffffffffffffffffffffffffffffffffffff1602179055508a600260006101000a81548173ffffffffffffffffffffffffffffffffffffffff021916908373ffffffffffffffffffffffffffffffffffffffff16021790555089600360006101000a81548173ffffffffffffffffffffffffffffffffffffffff021916908373ffffffffffffffffffffffffffffffffffffffff16021790555088600460006101000a81548173ffffffffffffffffffffffffffffffffffffffff021916908373ffffffffffffffffffffffffffffffffffffffff16021790555087600560006101000a81548173ffffffffffffffffffffffffffffffffffffffff021916908373ffffffffffffffffffffffffffffffffffffffff160217905550600160009054906101000a900473ffffffffffffffffffffffffffffffffffffffff1673ffffffffffffffffffffffffffffffffffffffff1663095ea7b3600460009054906101000a900473ffffffffffffffffffffffffffffffffffffffff167f80000000000000000000000000000000000000000000000000000000000000006040518363ffffffff1660e01b8152600401808373ffffffffffffffffffffffffffffffffffffffff1673ffffffffffffffffffffffffffffffffffffffff16815260200182815260200192505050602060405180830381600087803b158015620004cb57600080fd5b505af1158015620004e0573d6000803e3d6000fd5b505050506040513d6020811015620004f757600080fd5b8101908080519060200190929190505050508660068190555085600860006101000a81548163ffffffff021916908363ffffffff16021790555082600c8190555080600d60016101000a81548160ff021916908315150217905550600081156200056c5787600781905550601e905062000596565b6200058962093a8089620007f260201b62002a211790919060201c565b6007819055506201518090505b6000600290506000429050620005b782888a868d866200087b60201b60201c565b60098190555050505050505050505050505050505062000a10565b600033905090565b620005ea620005d260201b60201c565b73ffffffffffffffffffffffffffffffffffffffff166000809054906101000a900473ffffffffffffffffffffffffffffffffffffffff1673ffffffffffffffffffffffffffffffffffffffff1614620006ac576040517f08c379a00000000000000000000000000000000000000000000000000000000081526004018080602001828103825260208152602001807f4f776e61626c653a2063616c6c6572206973206e6f7420746865206f776e657281525060200191505060405180910390fd5b600073ffffffffffffffffffffffffffffffffffffffff168173ffffffffffffffffffffffffffffffffffffffff16141562000734576040517f08c379a000000000000000000000000000000000000000000000000000000000815260040180806020018281038252602681526020018062003b8f6026913960400191505060405180910390fd5b8073ffffffffffffffffffffffffffffffffffffffff166000809054906101000a900473ffffffffffffffffffffffffffffffffffffffff1673ffffffffffffffffffffffffffffffffffffffff167f8be0079c531659141344cd1fd0a4f28419497f9722a3daafe3b4186f6b6457e060405160405180910390a3806000806101000a81548173ffffffffffffffffffffffffffffffffffffffff021916908373ffffffffffffffffffffffffffffffffffffffff16021790555050565b60008082840190508381101562000871576040517f08c379a000000000000000000000000000000000000000000000000000000000815260040180806020018281038252601b8152602001807f536166654d6174683a206164646974696f6e206f766572666c6f77000000000081525060200191505060405180910390fd5b8091505092915050565b6000600560009054906101000a900473ffffffffffffffffffffffffffffffffffffffff1673ffffffffffffffffffffffffffffffffffffffff1663762c38fd8888888888886040518763ffffffff1660e01b815260040180878152602001806020018673ffffffffffffffffffffffffffffffffffffffff1673ffffffffffffffffffffffffffffffffffffffff1681526020018563ffffffff1663ffffffff1681526020018463ffffffff1663ffffffff168152602001838152602001828103825287818151815260200191508051906020019080838360005b838110156200097457808201518184015260208101905062000957565b50505050905090810190601f168015620009a25780820380516001836020036101000a031916815260200191505b50975050505050505050602060405180830381600087803b158015620009c757600080fd5b505af1158015620009dc573d6000803e3d6000fd5b505050506040513d6020811015620009f357600080fd5b810190808051906020019092919050505090509695505050505050565b61316f8062000a206000396000f3fe60806040526004361061021e5760003560e01c80638043c9c011610123578063bc8802a2116100ab578063ee72b06d1161006f578063ee72b06d14610b57578063f2fde38b14610b6e578063f4b9fa7514610bbf578063fd27b51e14610c16578063fe5e185314610c4157610225565b8063bc8802a2146109d2578063c19d93fb14610a29578063cbf1304d14610a62578063cd9ea34214610ad1578063e9d337b814610b0057610225565b8063991d4f5d116100f2578063991d4f5d146108505780639b34ae03146108d6578063a0c1f15e14610901578063ad5d286214610958578063b06a5c52146109a757610225565b80638043c9c0146106d1578063894ba833146107615780638da5cb5b14610790578063906d6241146107e757610225565b80633ccfd60b116101a65780634b8755ca116101755780634b8755ca146105a55780634ecc79f7146105d0578063505b4cb2146105fb5780635c975abb1461068b578063715018a6146106ba57610225565b80633ccfd60b146104f357806349200d771461050a5780634afe62b5146105355780634b3197131461057a57610225565b806327acae74116101ed57806327acae741461032757806333b16d93146103db57806335c1d349146103f2578063367edd321461046d5780633ca558331461049c57610225565b8063052fd203146102275780630b60365c14610276578063149b5d58146102a1578063232ea3ad146102f057610225565b3661022557005b005b34801561023357600080fd5b506102606004803603602081101561024a57600080fd5b8101908080359060200190929190505050610c6c565b6040518082815260200191505060405180910390f35b34801561028257600080fd5b5061028b610c84565b6040518082815260200191505060405180910390f35b3480156102ad57600080fd5b506102da600480360360208110156102c457600080fd5b8101908080359060200190929190505050610d9e565b6040518082815260200191505060405180910390f35b3480156102fc57600080fd5b50610305610df8565b604051808263ffffffff1663ffffffff16815260200191505060405180910390f35b34801561033357600080fd5b506103606004803603602081101561034a57600080fd5b8101908080359060200190929190505050610e0e565b6040518080602001828103825283818151815260200191508051906020019080838360005b838110156103a0578082015181840152602081019050610385565b50505050905090810190601f1680156103cd5780820380516001836020036101000a031916815260200191505b509250505060405180910390f35b3480156103e757600080fd5b506103f0610ebe565b005b3480156103fe57600080fd5b5061042b6004803603602081101561041557600080fd5b8101908080359060200190929190505050610fd3565b604051808273ffffffffffffffffffffffffffffffffffffffff1673ffffffffffffffffffffffffffffffffffffffff16815260200191505060405180910390f35b34801561047957600080fd5b5061048261100f565b604051808215151515815260200191505060405180910390f35b3480156104a857600080fd5b506104b1611167565b604051808273ffffffffffffffffffffffffffffffffffffffff1673ffffffffffffffffffffffffffffffffffffffff16815260200191505060405180910390f35b3480156104ff57600080fd5b5061050861118d565b005b34801561051657600080fd5b5061051f61151a565b6040518082815260200191505060405180910390f35b34801561054157600080fd5b506105786004803603604081101561055857600080fd5b810190808035906020019092919080359060200190929190505050611520565b005b34801561058657600080fd5b5061058f611954565b6040518082815260200191505060405180910390f35b3480156105b157600080fd5b506105ba61195a565b6040518082815260200191505060405180910390f35b3480156105dc57600080fd5b506105e5611960565b6040518082815260200191505060405180910390f35b34801561060757600080fd5b506106896004803603604081101561061e57600080fd5b81019080803590602001909291908035906020019064010000000081111561064557600080fd5b82018360208201111561065757600080fd5b8035906020019184600183028401116401000000008311171561067957600080fd5b9091929391929390505050611966565b005b34801561069757600080fd5b506106a0611a57565b604051808215151515815260200191505060405180910390f35b3480156106c657600080fd5b506106cf611a6d565b005b3480156106dd57600080fd5b506106e6611bf5565b6040518080602001828103825283818151815260200191508051906020019080838360005b8381101561072657808201518184015260208101905061070b565b50505050905090810190601f1680156107535780820380516001836020036101000a031916815260200191505b509250505060405180910390f35b34801561076d57600080fd5b50610776611c93565b604051808215151515815260200191505060405180910390f35b34801561079c57600080fd5b506107a5611dec565b604051808273ffffffffffffffffffffffffffffffffffffffff1673ffffffffffffffffffffffffffffffffffffffff16815260200191505060405180910390f35b3480156107f357600080fd5b506108366004803603602081101561080a57600080fd5b81019080803573ffffffffffffffffffffffffffffffffffffffff169060200190929190505050611e15565b604051808215151515815260200191505060405180910390f35b34801561085c57600080fd5b506108d46004803603602081101561087357600080fd5b810190808035906020019064010000000081111561089057600080fd5b8201836020820111156108a257600080fd5b803590602001918460018302840111640100000000831117156108c457600080fd5b9091929391929390505050611e35565b005b3480156108e257600080fd5b506108eb611f14565b6040518082815260200191505060405180910390f35b34801561090d57600080fd5b50610916611f1a565b604051808273ffffffffffffffffffffffffffffffffffffffff1673ffffffffffffffffffffffffffffffffffffffff16815260200191505060405180910390f35b34801561096457600080fd5b506109916004803603602081101561097b57600080fd5b8101908080359060200190929190505050611f40565b6040518082815260200191505060405180910390f35b3480156109b357600080fd5b506109bc612006565b6040518082815260200191505060405180910390f35b3480156109de57600080fd5b506109e761200c565b604051808273ffffffffffffffffffffffffffffffffffffffff1673ffffffffffffffffffffffffffffffffffffffff16815260200191505060405180910390f35b348015610a3557600080fd5b50610a3e612032565b60405180826003811115610a4e57fe5b60ff16815260200191505060405180910390f35b348015610a6e57600080fd5b50610abb60048036036040811015610a8557600080fd5b81019080803573ffffffffffffffffffffffffffffffffffffffff16906020019092919080359060200190929190505050612045565b6040518082815260200191505060405180910390f35b348015610add57600080fd5b50610ae661206a565b604051808215151515815260200191505060405180910390f35b348015610b0c57600080fd5b50610b1561207d565b604051808273ffffffffffffffffffffffffffffffffffffffff1673ffffffffffffffffffffffffffffffffffffffff16815260200191505060405180910390f35b348015610b6357600080fd5b50610b6c6120a3565b005b348015610b7a57600080fd5b50610bbd60048036036020811015610b9157600080fd5b81019080803573ffffffffffffffffffffffffffffffffffffffff16906020019092919050505061227f565b005b348015610bcb57600080fd5b50610bd461248c565b604051808273ffffffffffffffffffffffffffffffffffffffff1673ffffffffffffffffffffffffffffffffffffffff16815260200191505060405180910390f35b348015610c2257600080fd5b50610c2b6124b2565b6040518082815260200191505060405180910390f35b348015610c4d57600080fd5b50610c566124bf565b6040518082815260200191505060405180910390f35b600f6020528060005260406000206000915090505481565b600080610c9e6014546010546124c590919063ffffffff16565b90506000600260009054906101000a900473ffffffffffffffffffffffffffffffffffffffff1673ffffffffffffffffffffffffffffffffffffffff166370a08231306040518263ffffffff1660e01b8152600401808273ffffffffffffffffffffffffffffffffffffffff1673ffffffffffffffffffffffffffffffffffffffff16815260200191505060206040518083038186803b158015610d4157600080fd5b505afa158015610d55573d6000803e3d6000fd5b505050506040513d6020811015610d6b57600080fd5b810190808051906020019092919050505090506000610d9383836124c590919063ffffffff16565b905080935050505090565b6000600e60003373ffffffffffffffffffffffffffffffffffffffff1673ffffffffffffffffffffffffffffffffffffffff1681526020019081526020016000206000838152602001908152602001600020549050919050565b600860009054906101000a900463ffffffff1681565b600b6020528060005260406000206000915090508054600181600116156101000203166002900480601f016020809104026020016040519081016040528092919081815260200182805460018160011615610100020316600290048015610eb65780601f10610e8b57610100808354040283529160200191610eb6565b820191906000526020600020905b815481529060010190602001808311610e9957829003601f168201915b505050505081565b600060149054906101000a900460ff1615610f41576040517f08c379a00000000000000000000000000000000000000000000000000000000081526004018080602001828103825260108152602001807f5061757361626c653a207061757365640000000000000000000000000000000081525060200191505060405180910390fd5b610f4961250f565b610fbb576040517f08c379a00000000000000000000000000000000000000000000000000000000081526004018080602001828103825260188152602001807f4f7261636c6520686173206e6f742066696e616c69736564000000000000000081525060200191505060405180910390fd5b610fc36125c6565b601381905550610fd16120a3565b565b60118181548110610fe057fe5b906000526020600020016000915054906101000a900473ffffffffffffffffffffffffffffffffffffffff1681565b6000611019612685565b73ffffffffffffffffffffffffffffffffffffffff166000809054906101000a900473ffffffffffffffffffffffffffffffffffffffff1673ffffffffffffffffffffffffffffffffffffffff16146110da576040517f08c379a00000000000000000000000000000000000000000000000000000000081526004018080602001828103825260208152602001807f4f776e61626c653a2063616c6c6572206973206e6f7420746865206f776e657281525060200191505060405180910390fd5b600060149054906101000a900460ff1661115c576040517f08c379a00000000000000000000000000000000000000000000000000000000081526004018080602001828103825260148152602001807f5061757361626c653a206e6f742070617573656400000000000000000000000081525060200191505060405180910390fd5b61116461268d565b90565b600460009054906101000a900473ffffffffffffffffffffffffffffffffffffffff1681565b600380600381111561119b57fe5b600d60009054906101000a900460ff1660038111156111b657fe5b1461120c576040517f08c379a00000000000000000000000000000000000000000000000000000000081526004018080602001828103825260268152602001806131146026913960400191505060405180910390fd5b600060149054906101000a900460ff161561128f576040517f08c379a00000000000000000000000000000000000000000000000000000000081526004018080602001828103825260108152602001807f5061757361626c653a207061757365640000000000000000000000000000000081525060200191505060405180910390fd5b600060159054906101000a900460ff16611311576040517f08c379a000000000000000000000000000000000000000000000000000000000815260040180806020018281038252601f8152602001807f5265656e7472616e637947756172643a207265656e7472616e742063616c6c0081525060200191505060405180910390fd5b60008060156101000a81548160ff021916908315150217905550601260003373ffffffffffffffffffffffffffffffffffffffff1673ffffffffffffffffffffffffffffffffffffffff16815260200190815260200160002060009054906101000a900460ff16156113eb576040517f08c379a00000000000000000000000000000000000000000000000000000000081526004018080602001828103825260118152602001807f416c72656164792077697468647261776e00000000000000000000000000000081525060200191505060405180910390fd5b6001601260003373ffffffffffffffffffffffffffffffffffffffff1673ffffffffffffffffffffffffffffffffffffffff16815260200190815260200160002060006101000a81548160ff0219169083151502179055506000611450601354611f40565b905060008111156114f357600260009054906101000a900473ffffffffffffffffffffffffffffffffffffffff1673ffffffffffffffffffffffffffffffffffffffff1663db006a75826040518263ffffffff1660e01b815260040180828152602001915050600060405180830381600087803b1580156114d057600080fd5b505af11580156114e4573d6000803e3d6000fd5b505050506114f23382612795565b5b6114fb6128ef565b506001600060156101000a81548160ff02191690831515021790555050565b600c5481565b600180600381111561152e57fe5b600d60009054906101000a900460ff16600381111561154957fe5b1461159f576040517f08c379a00000000000000000000000000000000000000000000000000000000081526004018080602001828103825260268152602001806131146026913960400191505060405180910390fd5b600060149054906101000a900460ff1615611622576040517f08c379a00000000000000000000000000000000000000000000000000000000081526004018080602001828103825260108152602001807f5061757361626c653a207061757365640000000000000000000000000000000081525060200191505060405180910390fd5b6000600e60003373ffffffffffffffffffffffffffffffffffffffff1673ffffffffffffffffffffffffffffffffffffffff16815260200190815260200160002060008581526020019081526020016000205414156116df576011339080600181540180825580915050600190039060005260206000200160009091909190916101000a81548173ffffffffffffffffffffffffffffffffffffffff021916908373ffffffffffffffffffffffffffffffffffffffff1602179055505b3373ffffffffffffffffffffffffffffffffffffffff167fef3b3ae531a4f494c95e537ec1fe385cfe5c1146cb4c1d850b24bad38595804960405160405180910390a261178582600e60003373ffffffffffffffffffffffffffffffffffffffff1673ffffffffffffffffffffffffffffffffffffffff168152602001908152602001600020600086815260200190815260200160002054612a2190919063ffffffff16565b600e60003373ffffffffffffffffffffffffffffffffffffffff1673ffffffffffffffffffffffffffffffffffffffff1681526020019081526020016000206000858152602001908152602001600020819055506117ee82601054612a2190919063ffffffff16565b60108190555061181a82600f600086815260200190815260200160002054612a2190919063ffffffff16565b600f600085815260200190815260200160002081905550600d60019054906101000a900460ff16156118545761184f82612aa9565b61185f565b61185e3383612b39565b5b600360009054906101000a900473ffffffffffffffffffffffffffffffffffffffff1673ffffffffffffffffffffffffffffffffffffffff1663d2d0e066600160009054906101000a900473ffffffffffffffffffffffffffffffffffffffff168460006040518463ffffffff1660e01b8152600401808473ffffffffffffffffffffffffffffffffffffffff1673ffffffffffffffffffffffffffffffffffffffff1681526020018381526020018261ffff1681526020019350505050600060405180830381600087803b15801561193757600080fd5b505af115801561194b573d6000803e3d6000fd5b50505050505050565b60145481565b60075481565b60065481565b61196e612685565b73ffffffffffffffffffffffffffffffffffffffff166000809054906101000a900473ffffffffffffffffffffffffffffffffffffffff1673ffffffffffffffffffffffffffffffffffffffff1614611a2f576040517f08c379a00000000000000000000000000000000000000000000000000000000081526004018080602001828103825260208152602001807f4f776e61626c653a2063616c6c6572206973206e6f7420746865206f776e657281525060200191505060405180910390fd5b8181600b60008681526020019081526020016000209190611a51929190613027565b50505050565b60008060149054906101000a900460ff16905090565b611a75612685565b73ffffffffffffffffffffffffffffffffffffffff166000809054906101000a900473ffffffffffffffffffffffffffffffffffffffff1673ffffffffffffffffffffffffffffffffffffffff1614611b36576040517f08c379a00000000000000000000000000000000000000000000000000000000081526004018080602001828103825260208152602001807f4f776e61626c653a2063616c6c6572206973206e6f7420746865206f776e657281525060200191505060405180910390fd5b600073ffffffffffffffffffffffffffffffffffffffff166000809054906101000a900473ffffffffffffffffffffffffffffffffffffffff1673ffffffffffffffffffffffffffffffffffffffff167f8be0079c531659141344cd1fd0a4f28419497f9722a3daafe3b4186f6b6457e060405160405180910390a360008060006101000a81548173ffffffffffffffffffffffffffffffffffffffff021916908373ffffffffffffffffffffffffffffffffffffffff160217905550565b600a8054600181600116156101000203166002900480601f016020809104026020016040519081016040528092919081815260200182805460018160011615610100020316600290048015611c8b5780601f10611c6057610100808354040283529160200191611c8b565b820191906000526020600020905b815481529060010190602001808311611c6e57829003601f168201915b505050505081565b6000611c9d612685565b73ffffffffffffffffffffffffffffffffffffffff166000809054906101000a900473ffffffffffffffffffffffffffffffffffffffff1673ffffffffffffffffffffffffffffffffffffffff1614611d5e576040517f08c379a00000000000000000000000000000000000000000000000000000000081526004018080602001828103825260208152602001807f4f776e61626c653a2063616c6c6572206973206e6f7420746865206f776e657281525060200191505060405180910390fd5b600060149054906101000a900460ff1615611de1576040517f08c379a00000000000000000000000000000000000000000000000000000000081526004018080602001828103825260108152602001807f5061757361626c653a207061757365640000000000000000000000000000000081525060200191505060405180910390fd5b611de9612cc7565b90565b60008060009054906101000a900473ffffffffffffffffffffffffffffffffffffffff16905090565b60126020528060005260406000206000915054906101000a900460ff1681565b611e3d612685565b73ffffffffffffffffffffffffffffffffffffffff166000809054906101000a900473ffffffffffffffffffffffffffffffffffffffff1673ffffffffffffffffffffffffffffffffffffffff1614611efe576040517f08c379a00000000000000000000000000000000000000000000000000000000081526004018080602001828103825260208152602001807f4f776e61626c653a2063616c6c6572206973206e6f7420746865206f776e657281525060200191505060405180910390fd5b8181600a9190611f0f929190613027565b505050565b60135481565b600260009054906101000a900473ffffffffffffffffffffffffffffffffffffffff1681565b6000806000600e60003373ffffffffffffffffffffffffffffffffffffffff1673ffffffffffffffffffffffffffffffffffffffff16815260200190815260200160002060008581526020019081526020016000205490506000811115611ffc576000611fab610c84565b90506000611fc66014546010546124c590919063ffffffff16565b90506000811115611ff957611ff681611fe88486612dd190919063ffffffff16565b612e5790919063ffffffff16565b93505b50505b8192505050919050565b60095481565b600560009054906101000a900473ffffffffffffffffffffffffffffffffffffffff1681565b600d60009054906101000a900460ff1681565b600e602052816000526040600020602052806000526040600020600091509150505481565b600d60019054906101000a900460ff1681565b600360009054906101000a900473ffffffffffffffffffffffffffffffffffffffff1681565b600060149054906101000a900460ff1615612126576040517f08c379a00000000000000000000000000000000000000000000000000000000081526004018080602001828103825260108152602001807f5061757361626c653a207061757365640000000000000000000000000000000081525060200191505060405180910390fd5b6000600381111561213357fe5b600d60009054906101000a900460ff16600381111561214e57fe5b14801561215c575042600654105b8061219957506001600381111561216f57fe5b600d60009054906101000a900460ff16600381111561218a57fe5b148015612198575042600754105b5b806121d85750600260038111156121ac57fe5b600d60009054906101000a900460ff1660038111156121c757fe5b1480156121d75750604560135414155b5b1561227d576001600d60009054906101000a900460ff1660038111156121fa57fe5b01600381111561220657fe5b600d60006101000a81548160ff0219169083600381111561222357fe5b02179055507f551dc40198cc79684bb69e4931dba4ac16e4598792ee1c0a5000aeea366d7bb6600d60009054906101000a900460ff166040518082600381111561226957fe5b60ff16815260200191505060405180910390a15b565b612287612685565b73ffffffffffffffffffffffffffffffffffffffff166000809054906101000a900473ffffffffffffffffffffffffffffffffffffffff1673ffffffffffffffffffffffffffffffffffffffff1614612348576040517f08c379a00000000000000000000000000000000000000000000000000000000081526004018080602001828103825260208152602001807f4f776e61626c653a2063616c6c6572206973206e6f7420746865206f776e657281525060200191505060405180910390fd5b600073ffffffffffffffffffffffffffffffffffffffff168173ffffffffffffffffffffffffffffffffffffffff1614156123ce576040517f08c379a00000000000000000000000000000000000000000000000000000000081526004018080602001828103825260268152602001806130cd6026913960400191505060405180910390fd5b8073ffffffffffffffffffffffffffffffffffffffff166000809054906101000a900473ffffffffffffffffffffffffffffffffffffffff1673ffffffffffffffffffffffffffffffffffffffff167f8be0079c531659141344cd1fd0a4f28419497f9722a3daafe3b4186f6b6457e060405160405180910390a3806000806101000a81548173ffffffffffffffffffffffffffffffffffffffff021916908373ffffffffffffffffffffffffffffffffffffffff16021790555050565b600160009054906101000a900473ffffffffffffffffffffffffffffffffffffffff1681565b6000601180549050905090565b60105481565b600061250783836040518060400160405280601e81526020017f536166654d6174683a207375627472616374696f6e206f766572666c6f770000815250612ea1565b905092915050565b6000600560009054906101000a900473ffffffffffffffffffffffffffffffffffffffff1673ffffffffffffffffffffffffffffffffffffffff16637f8d429e6009546040518263ffffffff1660e01b81526004018082815260200191505060206040518083038186803b15801561258657600080fd5b505afa15801561259a573d6000803e3d6000fd5b505050506040513d60208110156125b057600080fd5b8101908080519060200190929190505050905090565b600080600560009054906101000a900473ffffffffffffffffffffffffffffffffffffffff1673ffffffffffffffffffffffffffffffffffffffff1663d09cc57e6009546040518263ffffffff1660e01b81526004018082815260200191505060206040518083038186803b15801561263e57600080fd5b505afa158015612652573d6000803e3d6000fd5b505050506040513d602081101561266857600080fd5b810190808051906020019092919050505090508060001c91505090565b600033905090565b600060149054906101000a900460ff1661270f576040517f08c379a00000000000000000000000000000000000000000000000000000000081526004018080602001828103825260148152602001807f5061757361626c653a206e6f742070617573656400000000000000000000000081525060200191505060405180910390fd5b60008060146101000a81548160ff0219169083151502179055507f5db9ee0a495bf2e6ff9c91a7834c1ba4fdd244a5e8aa4e537bd38aeae4b073aa612752612685565b604051808273ffffffffffffffffffffffffffffffffffffffff1673ffffffffffffffffffffffffffffffffffffffff16815260200191505060405180910390a1565b600160009054906101000a900473ffffffffffffffffffffffffffffffffffffffff1673ffffffffffffffffffffffffffffffffffffffff1663a9059cbb83836040518363ffffffff1660e01b8152600401808373ffffffffffffffffffffffffffffffffffffffff1673ffffffffffffffffffffffffffffffffffffffff16815260200182815260200192505050602060405180830381600087803b15801561283e57600080fd5b505af1158015612852573d6000803e3d6000fd5b505050506040513d602081101561286857600080fd5b81019080805190602001909291905050506128eb576040517f08c379a00000000000000000000000000000000000000000000000000000000081526004018080602001828103825260148152602001807f43617368207472616e73666572206661696c656400000000000000000000000081525060200191505060405180910390fd5b5050565b60008090505b600c54811015612a1e576000600e60003373ffffffffffffffffffffffffffffffffffffffff1673ffffffffffffffffffffffffffffffffffffffff16815260200190815260200160002060008381526020019081526020016000205490506000811115612a105761297281601454612a2190919063ffffffff16565b601481905550600260009054906101000a900473ffffffffffffffffffffffffffffffffffffffff1673ffffffffffffffffffffffffffffffffffffffff1663db006a75826040518263ffffffff1660e01b815260040180828152602001915050600060405180830381600087803b1580156129ed57600080fd5b505af1158015612a01573d6000803e3d6000fd5b50505050612a0f3382612795565b5b5080806001019150506128f5565b50565b600080828401905083811015612a9f576040517f08c379a000000000000000000000000000000000000000000000000000000000815260040180806020018281038252601b8152602001807f536166654d6174683a206164646974696f6e206f766572666c6f77000000000081525060200191505060405180910390fd5b8091505092915050565b600160009054906101000a900473ffffffffffffffffffffffffffffffffffffffff1673ffffffffffffffffffffffffffffffffffffffff1663a0712d68826040518263ffffffff1660e01b815260040180828152602001915050600060405180830381600087803b158015612b1e57600080fd5b505af1158015612b32573d6000803e3d6000fd5b5050505050565b600160009054906101000a900473ffffffffffffffffffffffffffffffffffffffff1673ffffffffffffffffffffffffffffffffffffffff166323b872dd8330846040518463ffffffff1660e01b8152600401808473ffffffffffffffffffffffffffffffffffffffff1673ffffffffffffffffffffffffffffffffffffffff1681526020018373ffffffffffffffffffffffffffffffffffffffff1673ffffffffffffffffffffffffffffffffffffffff1681526020018281526020019350505050602060405180830381600087803b158015612c1657600080fd5b505af1158015612c2a573d6000803e3d6000fd5b505050506040513d6020811015612c4057600080fd5b8101908080519060200190929190505050612cc3576040517f08c379a00000000000000000000000000000000000000000000000000000000081526004018080602001828103825260148152602001807f43617368207472616e73666572206661696c656400000000000000000000000081525060200191505060405180910390fd5b5050565b600060149054906101000a900460ff1615612d4a576040517f08c379a00000000000000000000000000000000000000000000000000000000081526004018080602001828103825260108152602001807f5061757361626c653a207061757365640000000000000000000000000000000081525060200191505060405180910390fd5b6001600060146101000a81548160ff0219169083151502179055507f62e78cea01bee320cd4e420270b5ea74000d11b0c9f74754ebdbfc544b05a258612d8e612685565b604051808273ffffffffffffffffffffffffffffffffffffffff1673ffffffffffffffffffffffffffffffffffffffff16815260200191505060405180910390a1565b600080831415612de45760009050612e51565b6000828402905082848281612df557fe5b0414612e4c576040517f08c379a00000000000000000000000000000000000000000000000000000000081526004018080602001828103825260218152602001806130f36021913960400191505060405180910390fd5b809150505b92915050565b6000612e9983836040518060400160405280601a81526020017f536166654d6174683a206469766973696f6e206279207a65726f000000000000815250612f61565b905092915050565b6000838311158290612f4e576040517f08c379a00000000000000000000000000000000000000000000000000000000081526004018080602001828103825283818151815260200191508051906020019080838360005b83811015612f13578082015181840152602081019050612ef8565b50505050905090810190601f168015612f405780820380516001836020036101000a031916815260200191505b509250505060405180910390fd5b5060008385039050809150509392505050565b6000808311829061300d576040517f08c379a00000000000000000000000000000000000000000000000000000000081526004018080602001828103825283818151815260200191508051906020019080838360005b83811015612fd2578082015181840152602081019050612fb7565b50505050905090810190601f168015612fff5780820380516001836020036101000a031916815260200191505b509250505060405180910390fd5b50600083858161301957fe5b049050809150509392505050565b828054600181600116156101000203166002900490600052602060002090601f016020900481019282601f1061306857803560ff1916838001178555613096565b82800160010185558215613096579182015b8281111561309557823582559160200191906001019061307a565b5b5090506130a391906130a7565b5090565b6130c991905b808211156130c55760008160009055506001016130ad565b5090565b9056fe4f776e61626c653a206e6577206f776e657220697320746865207a65726f2061646472657373536166654d6174683a206d756c7469706c69636174696f6e206f766572666c6f7766756e6374696f6e2063616e6e6f742062652063616c6c656420617420746869732074696d65a26469706673582212201834cf5a757919f7e5399ab622e0cde7a7eed02af4fa32d824becd5e5303464664736f6c634300060700334f776e61626c653a206e6577206f776e657220697320746865207a65726f2061646472657373",
  "immutableReferences": {},
  "source": "pragma solidity 0.6.7;\n\nimport \"@nomiclabs/buidler/console.sol\";\nimport \"@openzeppelin/contracts/token/ERC20/ERC20.sol\";\nimport \"@openzeppelin/contracts/math/SafeMath.sol\";\nimport \"@openzeppelin/contracts/utils/ReentrancyGuard.sol\";\nimport \"@openzeppelin/contracts/utils/Pausable.sol\";\nimport \"@openzeppelin/contracts/access/Ownable.sol\";\nimport \"./interfaces/IAave.sol\";\nimport \"./interfaces/IDai.sol\";\nimport \"./interfaces/IRealitio.sol\";\n\n\ncontract BTMarket is Ownable, Pausable, ReentrancyGuard {\n  using SafeMath for uint256;\n\n  ////////////////////////////////////\n  //////// VARIABLES /////////////////\n  ////////////////////////////////////\n\n  //////// Externals ////////\n  Dai public dai;\n  IaToken public aToken;\n  IAaveLendingPool public aaveLendingPool;\n  IAaveLendingPoolCore public aaveLendingPoolCore;\n  IRealitio public realitio;\n\n  //////// Market Details ////////\n  uint256 public marketOpeningTime; // when the market is opened for bets\n  uint256 public marketLockingTime; // when the market is no longer open for bets\n  uint32 public marketResolutionTime; // the time the realitio market is able to be answered, uint32 cos Realitio needs it\n  bytes32 public questionId; // the question ID of the question on realitio\n  string public eventName;\n  mapping(uint256 => string) public outcomeNames;\n  uint256 public numberOfOutcomes;\n  enum States { WAITING, OPEN, LOCKED, WITHDRAW }\n  States public state;\n  bool public testMode;\n\n  //////// Betting variables ////////\n  mapping(address => mapping(uint256 => uint256)) public balances;\n  mapping(uint256 => uint256) public totalBetPerOutcome;\n  uint256 public totalBet;\n  address[] public participants;\n  mapping(address => bool) public withdrawnBool; //so participants can only withdraw once\n  uint256 public winningOutcome = 69; // start with incorrect winning outcome\n  uint256 public totalWithdrawn;\n\n  ////////////////////////////////////\n  //////// CONSTRUCTOR ///////////////\n  ////////////////////////////////////\n  constructor(\n    Dai _daiAddress,\n    IaToken _aTokenAddress,\n    IAaveLendingPool _aaveLpAddress,\n    IAaveLendingPoolCore _aaveLpcoreAddress,\n    IRealitio _realitioAddress,\n    uint256 _marketOpeningTime,\n    uint32 _marketResolutionTime,\n    address _arbitrator,\n    string memory _question,\n    uint256 _numberOfOutcomes,\n    address _owner,\n    bool _testMode\n  ) public {\n    if (_owner != msg.sender) {\n      transferOwnership(_owner);\n    }\n    // Externals\n    dai = _daiAddress;\n    aToken = _aTokenAddress;\n    aaveLendingPool = _aaveLpAddress;\n    aaveLendingPoolCore = _aaveLpcoreAddress;\n    realitio = _realitioAddress;\n\n    // Approvals\n    dai.approve(address(aaveLendingPoolCore), 2**255);\n\n    // Pass arguments to public variables\n    marketOpeningTime = _marketOpeningTime;\n    marketResolutionTime = _marketResolutionTime;\n    numberOfOutcomes = _numberOfOutcomes;\n    testMode = _testMode;\n\n    uint32 _timeout;\n    // timeout = how long realitio waits for a dispute before confirming an answer \n    // set to 24 hours. should this be hardcoded or might we want to change this?\n    if (_testMode) {\n      marketLockingTime = _marketOpeningTime;\n      _timeout = 30;\n    } else {\n      marketLockingTime = _marketOpeningTime.add(604800); // one week\n      _timeout = 86400;\n    }\n\n    // Create the question on Realitio\n    uint256 _templateId = 2;\n    uint256 _nonce = now; // <- should probably change this to zero for mainnet\n    questionId = _postQuestion(\n      _templateId,\n      _question,\n      _arbitrator,\n      _timeout,\n      _marketResolutionTime,\n      _nonce\n    );\n  }\n\n  ////////////////////////////////////\n  //////// EVENTS ////////////////////\n  ////////////////////////////////////\n  event ParticipantEntered(address indexed participant);\n  event ParticipantWithdrawn(address indexed participant);\n  event StateChanged(States state);\n  event WinnerSelected(address indexed winner);\n\n  ////////////////////////////////////\n  //////// SET NAMES /////////////////\n  ////////////////////////////////////\n  // you cannot pass an array of strings as an argument\n  // string manipulation is also difficult, so it is not easy to parse the relevant \n  // ... info from the _question string. So, manually set this info\n  // probably redundant, the front end can store this, just adding in case\n\n  function setEventName(string calldata _eventName) external onlyOwner {\n    eventName = _eventName;\n  }\n\n  function setOutcomeName(uint _outcomeId, string calldata _outcomeName) external onlyOwner {\n    outcomeNames[_outcomeId] = _outcomeName;\n  }\n\n  ////////////////////////////////////\n  //////// MODIFIERS /////////////////\n  ////////////////////////////////////\n  modifier checkState(States currentState) {\n    require(state == currentState, \"function cannot be called at this time\");\n    _;\n  }\n\n  ////////////////////////////////////\n  ////////// VIEW FUNCTIONS //////////\n  ////////////////////////////////////\n  function getMarketSize() public view returns (uint256) {\n    return participants.length;\n  }\n\n  function getParticipantsBet(uint256 _outcome) public view returns (uint256) {\n    return balances[msg.sender][_outcome];\n  }\n\n  function getTotalInterest() public view returns (uint256) {\n    uint256 _remainingPrincipal = totalBet.sub(totalWithdrawn);\n    uint256 _totalAdaibalances = aToken.balanceOf(address(this));\n    uint256 _totalInterest = _totalAdaibalances.sub(_remainingPrincipal);\n    return _totalInterest;\n  }\n\n  /// @dev Returns total winnings for a participant based on current accumulated interest\n  /// @dev ... and assuming the passed _outcome wins.\n  function getWinnings(uint256 _outcome) public view returns (uint256) {\n    uint256 _winnings;\n    uint256 _amountBetOnOutcome = balances[msg.sender][_outcome];\n    if (_amountBetOnOutcome > 0) {\n      uint256 _totalInterest = getTotalInterest();\n      // console.log(totalBet);\n      // console.log(totalWithdrawn);\n      uint256 _remainingPrincipal = totalBet.sub(totalWithdrawn);\n      if (_remainingPrincipal > 0) {\n        _winnings = (_amountBetOnOutcome.mul(_totalInterest)).div(\n          _remainingPrincipal\n        );\n      }\n    }\n    return _winnings;\n  }\n\n  // need the interest rate for this\n  // function getEstimatedReturn(uint _outcome) returns (uint) {\n  //     uint _timeLocked = marketResolutionTime.\n  // }\n\n  ////////////////////////////////////\n  //////// REALIITO FUNCTIONS ////////\n  ////////////////////////////////////\n\n  /// @notice posts the question to realit.io\n  function _postQuestion(\n    uint256 template_id,\n    string memory question,\n    address arbitrator,\n    uint32 timeout,\n    uint32 opening_ts,\n    uint256 nonce\n  ) internal returns (bytes32) {\n    return\n      realitio.askQuestion(\n        template_id,\n        question,\n        arbitrator,\n        timeout,\n        opening_ts,\n        nonce\n      );\n  }\n\n  /// @notice gets the winning outcome from realitio\n  /// @dev this function call will revert if it has not yet resolved\n  function _determineWinner() internal view returns (uint256) {\n    bytes32 _winningOutcome = realitio.resultFor(questionId);\n    return uint256(_winningOutcome);\n  }\n\n  /// @notice has the question been finalized on realitio?\n  function _isQuestionFinalized() internal view returns (bool) {\n    return realitio.isFinalized(questionId);\n  }\n\n  ////////////////////////////////////\n  ////////// DAI FUNCTIONS///////////\n  ////////////////////////////////////\n\n  /// @notice common function for all outgoing DAI transfers\n  function _sendCash(address _to, uint256 _amount) internal {\n    require(dai.transfer(_to, _amount), \"Cash transfer failed\");\n  }\n\n  /// @notice common function for all incoming DAI transfers\n  function _receiveCash(address _from, uint256 _amount) internal {\n    require(\n      dai.transferFrom(_from, address(this), _amount),\n      \"Cash transfer failed\"\n    );\n  }\n\n  /// @notice mints Dai, will only work on a testnet\n  function _mintCash(uint256 _amount) internal {\n    dai.mint(_amount);\n  }\n\n  ////////////////////////////////////\n  //////// EXTERNAL FUNCTIONS ////////\n  ////////////////////////////////////\n  function placeBet(uint256 _outcome, uint256 _dai)\n    external\n    checkState(States.OPEN)\n    whenNotPaused\n  {\n    if (balances[msg.sender][_outcome] == 0) participants.push(msg.sender);\n    emit ParticipantEntered(msg.sender);\n    // increment three variables- balances, totalBet, totalBetPerOutcome\n    balances[msg.sender][_outcome] = balances[msg.sender][_outcome].add(_dai);\n    totalBet = totalBet.add(_dai);\n    totalBetPerOutcome[_outcome] = totalBetPerOutcome[_outcome].add(_dai);\n    if (testMode) {\n      _mintCash(_dai);\n    } else {\n      _receiveCash(msg.sender, _dai);\n    }\n    aaveLendingPool.deposit(address(dai), _dai, 0);\n  }\n\n  function determineWinner() external whenNotPaused {\n    require(_isQuestionFinalized(), \"Oracle has not finalised\");\n    winningOutcome = _determineWinner();\n    incrementState();\n  }\n\n  // keep this public as it's called by determineWinner\n  function incrementState() public whenNotPaused {\n    if (\n      ((state == States.WAITING) && (marketOpeningTime < now)) ||\n      ((state == States.OPEN) && (marketLockingTime < now)) ||\n      ((state == States.LOCKED) && (winningOutcome != 69))\n    ) {\n      state = States(uint256(state) + 1);\n      emit StateChanged(state);\n    }\n  }\n\n  function withdraw()\n    external\n    checkState(States.WITHDRAW)\n    whenNotPaused\n    nonReentrant\n  {\n    require(!withdrawnBool[msg.sender], \"Already withdrawn\");\n    withdrawnBool[msg.sender] = true;\n    // first, send winnings, if any\n    uint256 _winnings = getWinnings(winningOutcome);\n    if (_winnings > 0) {\n      aToken.redeem(_winnings);\n      _sendCash(msg.sender, _winnings);\n    }\n    // second, return pariticpant's original bet\n    _returnBet();\n  }\n\n  ////////////////////////////////////\n  //////// INTERNAL FUNCTIONS ////////\n  ////////////////////////////////////\n  function _returnBet() internal {\n    for (uint256 i = 0; i < numberOfOutcomes; i++) {\n      uint256 _amountBetOnOutcome = balances[msg.sender][i];\n      if (_amountBetOnOutcome > 0) {\n        // effects\n        totalWithdrawn = totalWithdrawn.add(_amountBetOnOutcome);\n        // interactions\n        aToken.redeem(_amountBetOnOutcome);\n        _sendCash(msg.sender, _amountBetOnOutcome);\n      }\n    }\n  }\n\n  ////////////////////////////////////\n  ///// BOILERPLATE FUNCTIONS ////////\n  ////////////////////////////////////\n  function disableContract() public onlyOwner whenNotPaused returns (bool) {\n    _pause();\n  }\n\n  function enableContract() public onlyOwner whenPaused returns (bool) {\n    _unpause();\n  }\n\n  receive() external payable {}\n\n  fallback() external payable {}\n}\n",
  "sourcePath": "/Users/mcplums/Repos/BetTogether/contracts/BTMarket.sol",
  "compiler": {
    "name": "solc",
    "version": "0.6.7+commit.b8d736ae.Emscripten.clang"
  },
  "schemaVersion": "3.1.0",
  "updatedAt": "2020-05-12T09:47:17.417Z",
  "networkType": "ethereum",
  "devdoc": {
    "methods": {
      "getWinnings(uint256)": {
        "details": "Returns total winnings for a participant based on current accumulated interest... and assuming the passed _outcome wins."
      },
      "owner()": {
        "details": "Returns the address of the current owner."
      },
      "paused()": {
        "details": "Returns true if the contract is paused, and false otherwise."
      },
      "renounceOwnership()": {
        "details": "Leaves the contract without owner. It will not be possible to call `onlyOwner` functions anymore. Can only be called by the current owner.     * NOTE: Renouncing ownership will leave the contract without an owner, thereby removing any functionality that is only available to the owner."
      },
      "transferOwnership(address)": {
        "details": "Transfers ownership of the contract to a new account (`newOwner`). Can only be called by the current owner."
      }
    }
  },
  "userdoc": {
    "methods": {
      "constructor": "///////////////////////////////// ///// CONSTRUCTOR /////////////// /////////////////////////////////",
      "disableContract()": {
        "notice": "///////////////////////////////// // BOILERPLATE FUNCTIONS //////// /////////////////////////////////"
      },
      "getMarketSize()": {
        "notice": "///////////////////////////////// /////// VIEW FUNCTIONS ////////// /////////////////////////////////"
      },
      "placeBet(uint256,uint256)": {
        "notice": "///////////////////////////////// ///// EXTERNAL FUNCTIONS //////// /////////////////////////////////"
      },
      "setEventName(string)": {
        "notice": "///////////////////////////////// ///// SET NAMES ///////////////// /////////////////////////////////"
      }
    }
  }
}