{
  "contractName": "MarketPot",
  "abi": [
    {
      "inputs": [
        {
          "internalType": "contract Dai",
          "name": "_daiAddress",
          "type": "address"
        },
        {
          "internalType": "contract IaToken",
          "name": "_aTokenAddress",
          "type": "address"
        },
        {
          "internalType": "contract IAaveLendingPool",
          "name": "_aaveLpAddress",
          "type": "address"
        },
        {
          "internalType": "contract IAaveLendingPoolCore",
          "name": "_aaveLpcoreAddress",
          "type": "address"
        },
        {
          "internalType": "contract IRealitio",
          "name": "_realitioAddress",
          "type": "address"
        },
        {
          "internalType": "uint256",
          "name": "_marketOpeningTime",
          "type": "uint256"
        },
        {
          "internalType": "uint32",
          "name": "_marketResolutionTime",
          "type": "uint32"
        },
        {
          "internalType": "address",
          "name": "_arbitrator",
          "type": "address"
        },
        {
          "internalType": "string",
          "name": "_eventName",
          "type": "string"
        },
        {
          "internalType": "uint256",
          "name": "_numberOfOutcomes",
          "type": "uint256"
        },
        {
          "internalType": "address",
          "name": "_owner",
          "type": "address"
        }
      ],
      "stateMutability": "nonpayable",
      "type": "constructor"
    },
    {
      "anonymous": false,
      "inputs": [
        {
          "indexed": true,
          "internalType": "address",
          "name": "previousOwner",
          "type": "address"
        },
        {
          "indexed": true,
          "internalType": "address",
          "name": "newOwner",
          "type": "address"
        }
      ],
      "name": "OwnershipTransferred",
      "type": "event"
    },
    {
      "anonymous": false,
      "inputs": [
        {
          "indexed": true,
          "internalType": "address",
          "name": "participant",
          "type": "address"
        }
      ],
      "name": "ParticipantEntered",
      "type": "event"
    },
    {
      "anonymous": false,
      "inputs": [
        {
          "indexed": false,
          "internalType": "address",
          "name": "account",
          "type": "address"
        }
      ],
      "name": "Paused",
      "type": "event"
    },
    {
      "anonymous": false,
      "inputs": [
        {
          "indexed": false,
          "internalType": "enum MarketPot.States",
          "name": "state",
          "type": "uint8"
        }
      ],
      "name": "StateChanged",
      "type": "event"
    },
    {
      "anonymous": false,
      "inputs": [
        {
          "indexed": false,
          "internalType": "address",
          "name": "account",
          "type": "address"
        }
      ],
      "name": "Unpaused",
      "type": "event"
    },
    {
      "anonymous": false,
      "inputs": [
        {
          "indexed": true,
          "internalType": "address",
          "name": "winner",
          "type": "address"
        }
      ],
      "name": "WinnerSelected",
      "type": "event"
    },
    {
      "stateMutability": "payable",
      "type": "fallback"
    },
    {
      "inputs": [],
      "name": "a",
      "outputs": [
        {
          "internalType": "uint256",
          "name": "",
          "type": "uint256"
        }
      ],
      "stateMutability": "view",
      "type": "function"
    },
    {
      "inputs": [],
      "name": "aToken",
      "outputs": [
        {
          "internalType": "contract IaToken",
          "name": "",
          "type": "address"
        }
      ],
      "stateMutability": "view",
      "type": "function"
    },
    {
      "inputs": [],
      "name": "aaveLendingPool",
      "outputs": [
        {
          "internalType": "contract IAaveLendingPool",
          "name": "",
          "type": "address"
        }
      ],
      "stateMutability": "view",
      "type": "function"
    },
    {
      "inputs": [],
      "name": "aaveLendingPoolCore",
      "outputs": [
        {
          "internalType": "contract IAaveLendingPoolCore",
          "name": "",
          "type": "address"
        }
      ],
      "stateMutability": "view",
      "type": "function"
    },
    {
      "inputs": [
        {
          "internalType": "address",
          "name": "",
          "type": "address"
        },
        {
          "internalType": "uint256",
          "name": "",
          "type": "uint256"
        }
      ],
      "name": "balances",
      "outputs": [
        {
          "internalType": "uint256",
          "name": "",
          "type": "uint256"
        }
      ],
      "stateMutability": "view",
      "type": "function"
    },
    {
      "inputs": [],
      "name": "dai",
      "outputs": [
        {
          "internalType": "contract Dai",
          "name": "",
          "type": "address"
        }
      ],
      "stateMutability": "view",
      "type": "function"
    },
    {
      "inputs": [],
      "name": "eventName",
      "outputs": [
        {
          "internalType": "string",
          "name": "",
          "type": "string"
        }
      ],
      "stateMutability": "view",
      "type": "function"
    },
    {
      "inputs": [
        {
          "internalType": "uint256",
          "name": "",
          "type": "uint256"
        }
      ],
      "name": "eventOutcomes",
      "outputs": [
        {
          "internalType": "string",
          "name": "",
          "type": "string"
        }
      ],
      "stateMutability": "view",
      "type": "function"
    },
    {
      "inputs": [],
      "name": "marketLockingTime",
      "outputs": [
        {
          "internalType": "uint256",
          "name": "",
          "type": "uint256"
        }
      ],
      "stateMutability": "view",
      "type": "function"
    },
    {
      "inputs": [],
      "name": "marketOpeningTime",
      "outputs": [
        {
          "internalType": "uint256",
          "name": "",
          "type": "uint256"
        }
      ],
      "stateMutability": "view",
      "type": "function"
    },
    {
      "inputs": [],
      "name": "marketResolutionTime",
      "outputs": [
        {
          "internalType": "uint32",
          "name": "",
          "type": "uint32"
        }
      ],
      "stateMutability": "view",
      "type": "function"
    },
    {
      "inputs": [],
      "name": "numberOfOutcomes",
      "outputs": [
        {
          "internalType": "uint256",
          "name": "",
          "type": "uint256"
        }
      ],
      "stateMutability": "view",
      "type": "function"
    },
    {
      "inputs": [],
      "name": "owner",
      "outputs": [
        {
          "internalType": "address",
          "name": "",
          "type": "address"
        }
      ],
      "stateMutability": "view",
      "type": "function"
    },
    {
      "inputs": [
        {
          "internalType": "uint256",
          "name": "",
          "type": "uint256"
        }
      ],
      "name": "participants",
      "outputs": [
        {
          "internalType": "address",
          "name": "",
          "type": "address"
        }
      ],
      "stateMutability": "view",
      "type": "function"
    },
    {
      "inputs": [],
      "name": "paused",
      "outputs": [
        {
          "internalType": "bool",
          "name": "",
          "type": "bool"
        }
      ],
      "stateMutability": "view",
      "type": "function"
    },
    {
      "inputs": [],
      "name": "questionId",
      "outputs": [
        {
          "internalType": "bytes32",
          "name": "",
          "type": "bytes32"
        }
      ],
      "stateMutability": "view",
      "type": "function"
    },
    {
      "inputs": [],
      "name": "realitio",
      "outputs": [
        {
          "internalType": "contract IRealitio",
          "name": "",
          "type": "address"
        }
      ],
      "stateMutability": "view",
      "type": "function"
    },
    {
      "inputs": [],
      "name": "renounceOwnership",
      "outputs": [],
      "stateMutability": "nonpayable",
      "type": "function"
    },
    {
      "inputs": [],
      "name": "state",
      "outputs": [
        {
          "internalType": "enum MarketPot.States",
          "name": "",
          "type": "uint8"
        }
      ],
      "stateMutability": "view",
      "type": "function"
    },
    {
      "inputs": [],
      "name": "totalBet",
      "outputs": [
        {
          "internalType": "uint256",
          "name": "",
          "type": "uint256"
        }
      ],
      "stateMutability": "view",
      "type": "function"
    },
    {
      "inputs": [
        {
          "internalType": "uint256",
          "name": "",
          "type": "uint256"
        }
      ],
      "name": "totalBetPerOutcome",
      "outputs": [
        {
          "internalType": "uint256",
          "name": "",
          "type": "uint256"
        }
      ],
      "stateMutability": "view",
      "type": "function"
    },
    {
      "inputs": [],
      "name": "totalWithdrawn",
      "outputs": [
        {
          "internalType": "uint256",
          "name": "",
          "type": "uint256"
        }
      ],
      "stateMutability": "view",
      "type": "function"
    },
    {
      "inputs": [
        {
          "internalType": "address",
          "name": "newOwner",
          "type": "address"
        }
      ],
      "name": "transferOwnership",
      "outputs": [],
      "stateMutability": "nonpayable",
      "type": "function"
    },
    {
      "inputs": [],
      "name": "winningOutcome",
      "outputs": [
        {
          "internalType": "uint256",
          "name": "",
          "type": "uint256"
        }
      ],
      "stateMutability": "view",
      "type": "function"
    },
    {
      "stateMutability": "payable",
      "type": "receive"
    },
    {
      "inputs": [],
      "name": "getMarketSize",
      "outputs": [
        {
          "internalType": "uint256",
          "name": "",
          "type": "uint256"
        }
      ],
      "stateMutability": "view",
      "type": "function"
    },
    {
      "inputs": [
        {
          "internalType": "uint256",
          "name": "_outcome",
          "type": "uint256"
        }
      ],
      "name": "getUserBet",
      "outputs": [
        {
          "internalType": "uint256",
          "name": "",
          "type": "uint256"
        }
      ],
      "stateMutability": "view",
      "type": "function"
    },
    {
      "inputs": [
        {
          "internalType": "uint256",
          "name": "_outcome",
          "type": "uint256"
        }
      ],
      "name": "getWinnings",
      "outputs": [
        {
          "internalType": "uint256",
          "name": "",
          "type": "uint256"
        }
      ],
      "stateMutability": "view",
      "type": "function"
    },
    {
      "inputs": [
        {
          "internalType": "uint256",
          "name": "_outcome",
          "type": "uint256"
        },
        {
          "internalType": "uint256",
          "name": "_dai",
          "type": "uint256"
        }
      ],
      "name": "placeBet",
      "outputs": [],
      "stateMutability": "nonpayable",
      "type": "function"
    },
    {
      "inputs": [],
      "name": "determineWinner",
      "outputs": [],
      "stateMutability": "nonpayable",
      "type": "function"
    },
    {
      "inputs": [],
      "name": "incrementState",
      "outputs": [],
      "stateMutability": "nonpayable",
      "type": "function"
    },
    {
      "inputs": [],
      "name": "withdraw",
      "outputs": [],
      "stateMutability": "nonpayable",
      "type": "function"
    },
    {
      "inputs": [],
      "name": "disableContract",
      "outputs": [
        {
          "internalType": "bool",
          "name": "",
          "type": "bool"
        }
      ],
      "stateMutability": "nonpayable",
      "type": "function"
    }
  ],
  "bytecode": "0x608060405260456012553480156200001657600080fd5b506040516200323e3803806200323e83398181016040526101608110156200003d57600080fd5b81019080805190602001909291908051906020019092919080519060200190929190805190602001909291908051906020019092919080519060200190929190805190602001909291908051906020019092919080516040519392919084640100000000821115620000ae57600080fd5b83820191506020820185811115620000c557600080fd5b8251866001820283011164010000000082111715620000e357600080fd5b8083526020830192505050908051906020019080838360005b8381101562000119578082015181840152602081019050620000fc565b50505050905090810190601f168015620001475780820380516001836020036101000a031916815260200191505b5060405260200180519060200190929190805190602001909291905050506000620001776200056160201b60201c565b9050806000806101000a81548173ffffffffffffffffffffffffffffffffffffffff021916908373ffffffffffffffffffffffffffffffffffffffff1602179055508073ffffffffffffffffffffffffffffffffffffffff16600073ffffffffffffffffffffffffffffffffffffffff167f8be0079c531659141344cd1fd0a4f28419497f9722a3daafe3b4186f6b6457e060405160405180910390a35060008060146101000a81548160ff0219169083151502179055506001600060156101000a81548160ff0219169083151502179055503373ffffffffffffffffffffffffffffffffffffffff168173ffffffffffffffffffffffffffffffffffffffff161462000290576200028f816200056960201b60201c565b5b8a600160006101000a81548173ffffffffffffffffffffffffffffffffffffffff021916908373ffffffffffffffffffffffffffffffffffffffff16021790555089600260006101000a81548173ffffffffffffffffffffffffffffffffffffffff021916908373ffffffffffffffffffffffffffffffffffffffff16021790555088600360006101000a81548173ffffffffffffffffffffffffffffffffffffffff021916908373ffffffffffffffffffffffffffffffffffffffff16021790555087600460006101000a81548173ffffffffffffffffffffffffffffffffffffffff021916908373ffffffffffffffffffffffffffffffffffffffff16021790555086600560006101000a81548173ffffffffffffffffffffffffffffffffffffffff021916908373ffffffffffffffffffffffffffffffffffffffff16021790555085600681905550620003f962093a80876200078160201b62001f971790919060201c565b60078190555084600860006101000a81548163ffffffff021916908363ffffffff16021790555082600a9080519060200190620004389291906200099f565b5081600c819055506040518060400160405280600c81526020017f446f6e616c64205472756d700000000000000000000000000000000000000000815250600b600080815260200190815260200160002090805190602001906200049e9291906200099f565b506040518060400160405280600981526020017f4a6f6520426964656e0000000000000000000000000000000000000000000000815250600b6000600181526020019081526020016000209080519060200190620004fe9291906200099f565b5060006002905060606040518060800160405280605e8152602001620031e0605e91399050600080905060006201518090506200054684848a848d876200080a60201b60201c565b60098190555050505050505050505050505050505062000a4e565b600033905090565b620005796200056160201b60201c565b73ffffffffffffffffffffffffffffffffffffffff166000809054906101000a900473ffffffffffffffffffffffffffffffffffffffff1673ffffffffffffffffffffffffffffffffffffffff16146200063b576040517f08c379a00000000000000000000000000000000000000000000000000000000081526004018080602001828103825260208152602001807f4f776e61626c653a2063616c6c6572206973206e6f7420746865206f776e657281525060200191505060405180910390fd5b600073ffffffffffffffffffffffffffffffffffffffff168173ffffffffffffffffffffffffffffffffffffffff161415620006c3576040517f08c379a0000000000000000000000000000000000000000000000000000000008152600401808060200182810382526026815260200180620031ba6026913960400191505060405180910390fd5b8073ffffffffffffffffffffffffffffffffffffffff166000809054906101000a900473ffffffffffffffffffffffffffffffffffffffff1673ffffffffffffffffffffffffffffffffffffffff167f8be0079c531659141344cd1fd0a4f28419497f9722a3daafe3b4186f6b6457e060405160405180910390a3806000806101000a81548173ffffffffffffffffffffffffffffffffffffffff021916908373ffffffffffffffffffffffffffffffffffffffff16021790555050565b60008082840190508381101562000800576040517f08c379a000000000000000000000000000000000000000000000000000000000815260040180806020018281038252601b8152602001807f536166654d6174683a206164646974696f6e206f766572666c6f77000000000081525060200191505060405180910390fd5b8091505092915050565b6000600560009054906101000a900473ffffffffffffffffffffffffffffffffffffffff1673ffffffffffffffffffffffffffffffffffffffff1663762c38fd8888888888886040518763ffffffff1660e01b815260040180878152602001806020018673ffffffffffffffffffffffffffffffffffffffff1673ffffffffffffffffffffffffffffffffffffffff1681526020018563ffffffff1663ffffffff1681526020018463ffffffff1663ffffffff168152602001838152602001828103825287818151815260200191508051906020019080838360005b8381101562000903578082015181840152602081019050620008e6565b50505050905090810190601f168015620009315780820380516001836020036101000a031916815260200191505b50975050505050505050602060405180830381600087803b1580156200095657600080fd5b505af11580156200096b573d6000803e3d6000fd5b505050506040513d60208110156200098257600080fd5b810190808051906020019092919050505090509695505050505050565b828054600181600116156101000203166002900490600052602060002090601f016020900481019282601f10620009e257805160ff191683800117855562000a13565b8280016001018555821562000a13579182015b8281111562000a12578251825591602001919060010190620009f5565b5b50905062000a22919062000a26565b5090565b62000a4b91905b8082111562000a4757600081600090555060010162000a2d565b5090565b90565b61275c8062000a5e6000396000f3fe6080604052600436106101e75760003560e01c80638043c9c011610102578063c19d93fb11610095578063f2fde38b11610064578063f2fde38b1461095a578063f4b9fa75146109ab578063fd27b51e14610a02578063fe5e185314610a2d576101ee565b8063c19d93fb14610844578063cbf1304d1461087d578063e9d337b8146108ec578063ee72b06d14610943576101ee565b8063a0c1f15e116100d1578063a0c1f15e1461071c578063ad5d286214610773578063b06a5c52146107c2578063bc8802a2146107ed576101ee565b80638043c9c0146105db578063894ba8331461066b5780638da5cb5b1461069a5780639b34ae03146106f1576101ee565b806349200d771161017a5780634ecc79f7116101495780634ecc79f7146104b65780635c975abb146104e157806369fb066414610510578063715018a6146105c4576101ee565b806349200d77146103f05780634afe62b51461041b5780634b319713146104605780634b8755ca1461048b576101ee565b806335c1d349116101b657806335c1d349146102b85780633ca55833146103335780633ccfd60b1461038a57806342fb065d146103a1576101ee565b8063052fd203146101f05780630dbe671f1461023f578063232ea3ad1461026a57806333b16d93146102a1576101ee565b366101ee57005b005b3480156101fc57600080fd5b506102296004803603602081101561021357600080fd5b8101908080359060200190929190505050610a58565b6040518082815260200191505060405180910390f35b34801561024b57600080fd5b50610254610a70565b6040518082815260200191505060405180910390f35b34801561027657600080fd5b5061027f610a76565b604051808263ffffffff1663ffffffff16815260200191505060405180910390f35b3480156102ad57600080fd5b506102b6610a8c565b005b3480156102c457600080fd5b506102f1600480360360208110156102db57600080fd5b8101908080359060200190929190505050610ba1565b604051808273ffffffffffffffffffffffffffffffffffffffff1673ffffffffffffffffffffffffffffffffffffffff16815260200191505060405180910390f35b34801561033f57600080fd5b50610348610bdd565b604051808273ffffffffffffffffffffffffffffffffffffffff1673ffffffffffffffffffffffffffffffffffffffff16815260200191505060405180910390f35b34801561039657600080fd5b5061039f610c03565b005b3480156103ad57600080fd5b506103da600480360360208110156103c457600080fd5b8101908080359060200190929190505050610ef4565b6040518082815260200191505060405180910390f35b3480156103fc57600080fd5b50610405610f4e565b6040518082815260200191505060405180910390f35b34801561042757600080fd5b5061045e6004803603604081101561043e57600080fd5b810190808035906020019092919080359060200190929190505050610f54565b005b34801561046c57600080fd5b50610475611274565b6040518082815260200191505060405180910390f35b34801561049757600080fd5b506104a061127a565b6040518082815260200191505060405180910390f35b3480156104c257600080fd5b506104cb611280565b6040518082815260200191505060405180910390f35b3480156104ed57600080fd5b506104f6611286565b604051808215151515815260200191505060405180910390f35b34801561051c57600080fd5b506105496004803603602081101561053357600080fd5b810190808035906020019092919050505061129c565b6040518080602001828103825283818151815260200191508051906020019080838360005b8381101561058957808201518184015260208101905061056e565b50505050905090810190601f1680156105b65780820380516001836020036101000a031916815260200191505b509250505060405180910390f35b3480156105d057600080fd5b506105d961134c565b005b3480156105e757600080fd5b506105f06114d4565b6040518080602001828103825283818151815260200191508051906020019080838360005b83811015610630578082015181840152602081019050610615565b50505050905090810190601f16801561065d5780820380516001836020036101000a031916815260200191505b509250505060405180910390f35b34801561067757600080fd5b50610680611572565b604051808215151515815260200191505060405180910390f35b3480156106a657600080fd5b506106af611648565b604051808273ffffffffffffffffffffffffffffffffffffffff1673ffffffffffffffffffffffffffffffffffffffff16815260200191505060405180910390f35b3480156106fd57600080fd5b50610706611671565b6040518082815260200191505060405180910390f35b34801561072857600080fd5b50610731611677565b604051808273ffffffffffffffffffffffffffffffffffffffff1673ffffffffffffffffffffffffffffffffffffffff16815260200191505060405180910390f35b34801561077f57600080fd5b506107ac6004803603602081101561079657600080fd5b810190808035906020019092919050505061169d565b6040518082815260200191505060405180910390f35b3480156107ce57600080fd5b506107d7611843565b6040518082815260200191505060405180910390f35b3480156107f957600080fd5b50610802611849565b604051808273ffffffffffffffffffffffffffffffffffffffff1673ffffffffffffffffffffffffffffffffffffffff16815260200191505060405180910390f35b34801561085057600080fd5b5061085961186f565b6040518082600381111561086957fe5b60ff16815260200191505060405180910390f35b34801561088957600080fd5b506108d6600480360360408110156108a057600080fd5b81019080803573ffffffffffffffffffffffffffffffffffffffff16906020019092919080359060200190929190505050611882565b6040518082815260200191505060405180910390f35b3480156108f857600080fd5b506109016118a7565b604051808273ffffffffffffffffffffffffffffffffffffffff1673ffffffffffffffffffffffffffffffffffffffff16815260200191505060405180910390f35b34801561094f57600080fd5b506109586118cd565b005b34801561096657600080fd5b506109a96004803603602081101561097d57600080fd5b81019080803573ffffffffffffffffffffffffffffffffffffffff169060200190929190505050611aa9565b005b3480156109b757600080fd5b506109c0611cb6565b604051808273ffffffffffffffffffffffffffffffffffffffff1673ffffffffffffffffffffffffffffffffffffffff16815260200191505060405180910390f35b348015610a0e57600080fd5b50610a17611cdc565b6040518082815260200191505060405180910390f35b348015610a3957600080fd5b50610a42611ce9565b6040518082815260200191505060405180910390f35b600e6020528060005260406000206000915090505481565b60155481565b600860009054906101000a900463ffffffff1681565b600060149054906101000a900460ff1615610b0f576040517f08c379a00000000000000000000000000000000000000000000000000000000081526004018080602001828103825260108152602001807f5061757361626c653a207061757365640000000000000000000000000000000081525060200191505060405180910390fd5b610b17611cef565b610b89576040517f08c379a00000000000000000000000000000000000000000000000000000000081526004018080602001828103825260188152602001807f4f7261636c6520686173206e6f742066696e616c69736564000000000000000081525060200191505060405180910390fd5b610b91611da6565b601281905550610b9f6118cd565b565b60108181548110610bae57fe5b906000526020600020016000915054906101000a900473ffffffffffffffffffffffffffffffffffffffff1681565b600460009054906101000a900473ffffffffffffffffffffffffffffffffffffffff1681565b6003806003811115610c1157fe5b601460009054906101000a900460ff166003811115610c2c57fe5b14610c82576040517f08c379a00000000000000000000000000000000000000000000000000000000081526004018080602001828103825260268152602001806127016026913960400191505060405180910390fd5b600060149054906101000a900460ff1615610d05576040517f08c379a00000000000000000000000000000000000000000000000000000000081526004018080602001828103825260108152602001807f5061757361626c653a207061757365640000000000000000000000000000000081525060200191505060405180910390fd5b601160003373ffffffffffffffffffffffffffffffffffffffff1673ffffffffffffffffffffffffffffffffffffffff16815260200190815260200160002060009054906101000a900460ff1615610dc5576040517f08c379a00000000000000000000000000000000000000000000000000000000081526004018080602001828103825260118152602001807f416c72656164792077697468647261776e00000000000000000000000000000081525060200191505060405180910390fd5b6001601160003373ffffffffffffffffffffffffffffffffffffffff1673ffffffffffffffffffffffffffffffffffffffff16815260200190815260200160002060006101000a81548160ff021916908315150217905550610e25611e65565b6000610e3260125461169d565b90506000811115610ef057610e5281601354611f9790919063ffffffff16565b601381905550600260009054906101000a900473ffffffffffffffffffffffffffffffffffffffff1673ffffffffffffffffffffffffffffffffffffffff1663db006a75826040518263ffffffff1660e01b815260040180828152602001915050600060405180830381600087803b158015610ecd57600080fd5b505af1158015610ee1573d6000803e3d6000fd5b50505050610eef338261201f565b5b5050565b6000600d60003373ffffffffffffffffffffffffffffffffffffffff1673ffffffffffffffffffffffffffffffffffffffff1681526020019081526020016000206000838152602001908152602001600020549050919050565b600c5481565b6001806003811115610f6257fe5b601460009054906101000a900460ff166003811115610f7d57fe5b14610fd3576040517f08c379a00000000000000000000000000000000000000000000000000000000081526004018080602001828103825260268152602001806127016026913960400191505060405180910390fd5b600060149054906101000a900460ff1615611056576040517f08c379a00000000000000000000000000000000000000000000000000000000081526004018080602001828103825260108152602001807f5061757361626c653a207061757365640000000000000000000000000000000081525060200191505060405180910390fd5b6000600d60003373ffffffffffffffffffffffffffffffffffffffff1673ffffffffffffffffffffffffffffffffffffffff1681526020019081526020016000206000858152602001908152602001600020541415611113576010339080600181540180825580915050600190039060005260206000200160009091909190916101000a81548173ffffffffffffffffffffffffffffffffffffffff021916908373ffffffffffffffffffffffffffffffffffffffff1602179055505b3373ffffffffffffffffffffffffffffffffffffffff167fef3b3ae531a4f494c95e537ec1fe385cfe5c1146cb4c1d850b24bad38595804960405160405180910390a26111b982600d60003373ffffffffffffffffffffffffffffffffffffffff1673ffffffffffffffffffffffffffffffffffffffff168152602001908152602001600020600086815260200190815260200160002054611f9790919063ffffffff16565b600d60003373ffffffffffffffffffffffffffffffffffffffff1673ffffffffffffffffffffffffffffffffffffffff16815260200190815260200160002060008581526020019081526020016000208190555061122282600f54611f9790919063ffffffff16565b600f8190555061124e82600e600086815260200190815260200160002054611f9790919063ffffffff16565b600e60008581526020019081526020016000208190555061126f3383612179565b505050565b60135481565b60075481565b60065481565b60008060149054906101000a900460ff16905090565b600b6020528060005260406000206000915090508054600181600116156101000203166002900480601f0160208091040260200160405190810160405280929190818152602001828054600181600116156101000203166002900480156113445780601f1061131957610100808354040283529160200191611344565b820191906000526020600020905b81548152906001019060200180831161132757829003601f168201915b505050505081565b611354612307565b73ffffffffffffffffffffffffffffffffffffffff166000809054906101000a900473ffffffffffffffffffffffffffffffffffffffff1673ffffffffffffffffffffffffffffffffffffffff1614611415576040517f08c379a00000000000000000000000000000000000000000000000000000000081526004018080602001828103825260208152602001807f4f776e61626c653a2063616c6c6572206973206e6f7420746865206f776e657281525060200191505060405180910390fd5b600073ffffffffffffffffffffffffffffffffffffffff166000809054906101000a900473ffffffffffffffffffffffffffffffffffffffff1673ffffffffffffffffffffffffffffffffffffffff167f8be0079c531659141344cd1fd0a4f28419497f9722a3daafe3b4186f6b6457e060405160405180910390a360008060006101000a81548173ffffffffffffffffffffffffffffffffffffffff021916908373ffffffffffffffffffffffffffffffffffffffff160217905550565b600a8054600181600116156101000203166002900480601f01602080910402602001604051908101604052809291908181526020018280546001816001161561010002031660029004801561156a5780601f1061153f5761010080835404028352916020019161156a565b820191906000526020600020905b81548152906001019060200180831161154d57829003601f168201915b505050505081565b600061157c612307565b73ffffffffffffffffffffffffffffffffffffffff166000809054906101000a900473ffffffffffffffffffffffffffffffffffffffff1673ffffffffffffffffffffffffffffffffffffffff161461163d576040517f08c379a00000000000000000000000000000000000000000000000000000000081526004018080602001828103825260208152602001807f4f776e61626c653a2063616c6c6572206973206e6f7420746865206f776e657281525060200191505060405180910390fd5b61164561230f565b90565b60008060009054906101000a900473ffffffffffffffffffffffffffffffffffffffff16905090565b60125481565b600260009054906101000a900473ffffffffffffffffffffffffffffffffffffffff1681565b6000806000600d60003373ffffffffffffffffffffffffffffffffffffffff1673ffffffffffffffffffffffffffffffffffffffff16815260200190815260200160002060008581526020019081526020016000205490506000811115611839576000611717601354600f5461241990919063ffffffff16565b90506000600260009054906101000a900473ffffffffffffffffffffffffffffffffffffffff1673ffffffffffffffffffffffffffffffffffffffff166370a08231306040518263ffffffff1660e01b8152600401808273ffffffffffffffffffffffffffffffffffffffff1673ffffffffffffffffffffffffffffffffffffffff16815260200191505060206040518083038186803b1580156117ba57600080fd5b505afa1580156117ce573d6000803e3d6000fd5b505050506040513d60208110156117e457600080fd5b81019080805190602001909291905050509050600061180c838361241990919063ffffffff16565b905061183383611825838761246390919063ffffffff16565b6124e990919063ffffffff16565b94505050505b8192505050919050565b60095481565b600560009054906101000a900473ffffffffffffffffffffffffffffffffffffffff1681565b601460009054906101000a900460ff1681565b600d602052816000526040600020602052806000526040600020600091509150505481565b600360009054906101000a900473ffffffffffffffffffffffffffffffffffffffff1681565b600060149054906101000a900460ff1615611950576040517f08c379a00000000000000000000000000000000000000000000000000000000081526004018080602001828103825260108152602001807f5061757361626c653a207061757365640000000000000000000000000000000081525060200191505060405180910390fd5b6000600381111561195d57fe5b601460009054906101000a900460ff16600381111561197857fe5b148015611986575042600654115b806119c357506001600381111561199957fe5b601460009054906101000a900460ff1660038111156119b457fe5b1480156119c2575042600754115b5b80611a025750600260038111156119d657fe5b601460009054906101000a900460ff1660038111156119f157fe5b148015611a015750604560125414155b5b15611a53576001601460009054906101000a900460ff166003811115611a2457fe5b016003811115611a3057fe5b601460006101000a81548160ff02191690836003811115611a4d57fe5b02179055505b7f551dc40198cc79684bb69e4931dba4ac16e4598792ee1c0a5000aeea366d7bb6601460009054906101000a900460ff1660405180826003811115611a9457fe5b60ff16815260200191505060405180910390a1565b611ab1612307565b73ffffffffffffffffffffffffffffffffffffffff166000809054906101000a900473ffffffffffffffffffffffffffffffffffffffff1673ffffffffffffffffffffffffffffffffffffffff1614611b72576040517f08c379a00000000000000000000000000000000000000000000000000000000081526004018080602001828103825260208152602001807f4f776e61626c653a2063616c6c6572206973206e6f7420746865206f776e657281525060200191505060405180910390fd5b600073ffffffffffffffffffffffffffffffffffffffff168173ffffffffffffffffffffffffffffffffffffffff161415611bf8576040517f08c379a00000000000000000000000000000000000000000000000000000000081526004018080602001828103825260268152602001806126ba6026913960400191505060405180910390fd5b8073ffffffffffffffffffffffffffffffffffffffff166000809054906101000a900473ffffffffffffffffffffffffffffffffffffffff1673ffffffffffffffffffffffffffffffffffffffff167f8be0079c531659141344cd1fd0a4f28419497f9722a3daafe3b4186f6b6457e060405160405180910390a3806000806101000a81548173ffffffffffffffffffffffffffffffffffffffff021916908373ffffffffffffffffffffffffffffffffffffffff16021790555050565b600160009054906101000a900473ffffffffffffffffffffffffffffffffffffffff1681565b6000601080549050905090565b600f5481565b6000600560009054906101000a900473ffffffffffffffffffffffffffffffffffffffff1673ffffffffffffffffffffffffffffffffffffffff16637f8d429e6009546040518263ffffffff1660e01b81526004018082815260200191505060206040518083038186803b158015611d6657600080fd5b505afa158015611d7a573d6000803e3d6000fd5b505050506040513d6020811015611d9057600080fd5b8101908080519060200190929190505050905090565b600080600560009054906101000a900473ffffffffffffffffffffffffffffffffffffffff1673ffffffffffffffffffffffffffffffffffffffff1663d09cc57e6009546040518263ffffffff1660e01b81526004018082815260200191505060206040518083038186803b158015611e1e57600080fd5b505afa158015611e32573d6000803e3d6000fd5b505050506040513d6020811015611e4857600080fd5b810190808051906020019092919050505090508060001c91505090565b60008090505b600c54811015611f94576000600d60003373ffffffffffffffffffffffffffffffffffffffff1673ffffffffffffffffffffffffffffffffffffffff16815260200190815260200160002060008381526020019081526020016000205490506000811115611f8657611ee881601354611f9790919063ffffffff16565b601381905550600260009054906101000a900473ffffffffffffffffffffffffffffffffffffffff1673ffffffffffffffffffffffffffffffffffffffff1663db006a75826040518263ffffffff1660e01b815260040180828152602001915050600060405180830381600087803b158015611f6357600080fd5b505af1158015611f77573d6000803e3d6000fd5b50505050611f85338261201f565b5b508080600101915050611e6b565b50565b600080828401905083811015612015576040517f08c379a000000000000000000000000000000000000000000000000000000000815260040180806020018281038252601b8152602001807f536166654d6174683a206164646974696f6e206f766572666c6f77000000000081525060200191505060405180910390fd5b8091505092915050565b600160009054906101000a900473ffffffffffffffffffffffffffffffffffffffff1673ffffffffffffffffffffffffffffffffffffffff1663a9059cbb83836040518363ffffffff1660e01b8152600401808373ffffffffffffffffffffffffffffffffffffffff1673ffffffffffffffffffffffffffffffffffffffff16815260200182815260200192505050602060405180830381600087803b1580156120c857600080fd5b505af11580156120dc573d6000803e3d6000fd5b505050506040513d60208110156120f257600080fd5b8101908080519060200190929190505050612175576040517f08c379a00000000000000000000000000000000000000000000000000000000081526004018080602001828103825260148152602001807f43617368207472616e73666572206661696c656400000000000000000000000081525060200191505060405180910390fd5b5050565b600160009054906101000a900473ffffffffffffffffffffffffffffffffffffffff1673ffffffffffffffffffffffffffffffffffffffff166323b872dd8330846040518463ffffffff1660e01b8152600401808473ffffffffffffffffffffffffffffffffffffffff1673ffffffffffffffffffffffffffffffffffffffff1681526020018373ffffffffffffffffffffffffffffffffffffffff1673ffffffffffffffffffffffffffffffffffffffff1681526020018281526020019350505050602060405180830381600087803b15801561225657600080fd5b505af115801561226a573d6000803e3d6000fd5b505050506040513d602081101561228057600080fd5b8101908080519060200190929190505050612303576040517f08c379a00000000000000000000000000000000000000000000000000000000081526004018080602001828103825260148152602001807f43617368207472616e73666572206661696c656400000000000000000000000081525060200191505060405180910390fd5b5050565b600033905090565b600060149054906101000a900460ff1615612392576040517f08c379a00000000000000000000000000000000000000000000000000000000081526004018080602001828103825260108152602001807f5061757361626c653a207061757365640000000000000000000000000000000081525060200191505060405180910390fd5b6001600060146101000a81548160ff0219169083151502179055507f62e78cea01bee320cd4e420270b5ea74000d11b0c9f74754ebdbfc544b05a2586123d6612307565b604051808273ffffffffffffffffffffffffffffffffffffffff1673ffffffffffffffffffffffffffffffffffffffff16815260200191505060405180910390a1565b600061245b83836040518060400160405280601e81526020017f536166654d6174683a207375627472616374696f6e206f766572666c6f770000815250612533565b905092915050565b60008083141561247657600090506124e3565b600082840290508284828161248757fe5b04146124de576040517f08c379a00000000000000000000000000000000000000000000000000000000081526004018080602001828103825260218152602001806126e06021913960400191505060405180910390fd5b809150505b92915050565b600061252b83836040518060400160405280601a81526020017f536166654d6174683a206469766973696f6e206279207a65726f0000000000008152506125f3565b905092915050565b60008383111582906125e0576040517f08c379a00000000000000000000000000000000000000000000000000000000081526004018080602001828103825283818151815260200191508051906020019080838360005b838110156125a557808201518184015260208101905061258a565b50505050905090810190601f1680156125d25780820380516001836020036101000a031916815260200191505b509250505060405180910390fd5b5060008385039050809150509392505050565b6000808311829061269f576040517f08c379a00000000000000000000000000000000000000000000000000000000081526004018080602001828103825283818151815260200191508051906020019080838360005b83811015612664578082015181840152602081019050612649565b50505050905090810190601f1680156126915780820380516001836020036101000a031916815260200191505b509250505060405180910390fd5b5060008385816126ab57fe5b04905080915050939250505056fe4f776e61626c653a206e6577206f776e657220697320746865207a65726f2061646472657373536166654d6174683a206d756c7469706c69636174696f6e206f766572666c6f7766756e6374696f6e2063616e6e6f742062652063616c6c656420617420746869732074696d65a2646970667358221220542af056a29afff451216e29ed41f386500bb39086491d36f674f50cd5491cd864736f6c634300060600334f776e61626c653a206e6577206f776e657220697320746865207a65726f206164647265737357686f2077696c6c2077696e2074686520323032302055532047656e6572616c20456c656374696f6ee2909f22446f6e616c64205472756d70222c224a6f6520426964656e22e2909f6e6577732d706f6c6974696373e2909f656e5f5553",
  "immutableReferences": {},
  "source": "pragma solidity 0.6.6;\n\nimport \"@nomiclabs/buidler/console.sol\";\nimport \"@openzeppelin/contracts/token/ERC20/ERC20.sol\";\nimport \"@openzeppelin/contracts/math/SafeMath.sol\";\nimport \"@openzeppelin/contracts/utils/ReentrancyGuard.sol\";\nimport \"@openzeppelin/contracts/utils/Pausable.sol\";\nimport \"@openzeppelin/contracts/access/Ownable.sol\";\nimport \"./interfaces/IAave.sol\";\nimport \"./interfaces/IDai.sol\";\nimport \"./interfaces/IRealitio.sol\";\n\ncontract MarketPot is Ownable, Pausable, ReentrancyGuard {\n    using SafeMath for uint;\n\n    ////////////////////////////////////\n    //////// VARIABLES /////////////////\n    ////////////////////////////////////\n\n    //////// Externals ////////\n    Dai public dai;\n    IaToken public aToken;\n    IAaveLendingPool public aaveLendingPool;\n    IAaveLendingPoolCore public aaveLendingPoolCore;\n    IRealitio public realitio;\n\n    //////// Market Details ////////\n    uint public marketOpeningTime; // when the market is opened for bets\n    uint public marketLockingTime; // when the market is no longer open for bets\n    uint32 public marketResolutionTime; // the time the realitio market is able to be answered, uint32 cos Realitio needs it\n    bytes32 public questionId; // the question ID of the question on realitio\n    string public eventName;\n    mapping (uint => string) public eventOutcomes;\n    uint public numberOfOutcomes; \n\n    //////// Betting variables ////////\n    mapping(address => mapping(uint => uint)) public balances;\n    mapping(uint => uint) public totalBetPerOutcome;\n    uint public totalBet;\n    address[] public participants;\n    mapping (address => bool) withdrawnBool; //so users can only withdraw once\n    uint public winningOutcome = 69; // start with incorrect winning outcome\n    uint public totalWithdrawn;\n    enum States {WAITING, OPEN, LOCKED, WITHDRAW}\n    States public state; // \n\n    // Testing\n    uint public a;\n\n    ////////////////////////////////////\n    //////// CONSTRUCTOR ///////////////\n    ////////////////////////////////////\n    constructor(\n        Dai _daiAddress,\n        IaToken _aTokenAddress,\n        IAaveLendingPool _aaveLpAddress,\n        IAaveLendingPoolCore _aaveLpcoreAddress,\n        IRealitio _realitioAddress,\n        uint _marketOpeningTime,\n        uint32 _marketResolutionTime,\n        address _arbitrator,\n        string memory _eventName,\n        uint _numberOfOutcomes,\n        address _owner\n    ) public {\n        if (_owner != msg.sender) {\n            transferOwnership(_owner);\n        }\n\n        // Externals\n        dai = _daiAddress;\n        aToken = _aTokenAddress;\n        aaveLendingPool = _aaveLpAddress;\n        aaveLendingPoolCore = _aaveLpcoreAddress;\n        realitio = _realitioAddress;\n\n        // Pass arguments to public variables\n        marketOpeningTime = _marketOpeningTime;\n        marketLockingTime = _marketOpeningTime.add(604800); // one week\n        marketResolutionTime = _marketResolutionTime;\n        eventName = _eventName;\n        numberOfOutcomes = _numberOfOutcomes;\n        // We need to get the below from an argument eventually\n        // ... but I'm getting \"Stack too deep, try using fewer variables\" error\n        eventOutcomes[0] = \"Donald Trump\";\n        eventOutcomes[1] = \"Joe Biden\";\n\n        // Create the question on Realitio\n        uint _templateId = 2;\n        // ultimately this needs to be created from the input arguments (i.e. concatenated):\n        string memory _question = 'Who will win the 2020 US General Election\"Donald Trump\",\"Joe Biden\"news-politicsen_US';\n        // timeout = how long the market can be disputed on realitio after an answer has been submitted, 24 hours\n        uint _nonce = 0;\n        uint32 _timeout = 86400;\n        questionId = _postQuestion(\n            _templateId,\n            _question,\n            _arbitrator,\n            _timeout,\n            _marketResolutionTime,\n            _nonce\n        );\n    }\n\n    ////////////////////////////////////\n    //////// EVENTS ////////////////////\n    ////////////////////////////////////\n    event ParticipantEntered(address indexed participant);\n    event StateChanged(States state);\n    event WinnerSelected(address indexed winner);\n\n\n    ////////////////////////////////////\n    ////////// VIEW FUNCTIONS //////////\n    ////////////////////////////////////\n    function getMarketSize() public view returns (uint) {\n        return participants.length;\n    }\n\n    function getUserBet(uint _outcome) public view returns (uint) {\n        return balances[msg.sender][_outcome];\n    }\n\n    /// @dev returns total winnings for a user based on current accumulated interest\n    /// @dev ... and assuming the passed _outcome wins. \n    function getWinnings(uint _outcome) public view returns (uint) {\n        uint _winnings;\n        uint _amountBetOnOutcome = balances[msg.sender][_outcome];\n        if (_amountBetOnOutcome > 0) {\n            uint _remainingPrincipal = totalBet.sub(totalWithdrawn);\n            uint _totalAdaibalances = aToken.balanceOf(address(this)); \n            uint _totalInterest = _totalAdaibalances.sub(_remainingPrincipal);\n            _winnings = (_amountBetOnOutcome.mul(_totalInterest)).div(_remainingPrincipal);\n        }\n        return _winnings;\n    }\n\n    // need the interest rate for this\n    // function getEstimatedReturn(uint _outcome) returns (uint) {\n    //     uint _timeLocked = marketResolutionTime.\n    // }\n\n    ////////////////////////////////////\n    //////// MODIFIERS /////////////////\n    ////////////////////////////////////\n    modifier checkState(States currentState) {\n        require(\n            state == currentState,\n            \"function cannot be called at this time\"\n        );\n        _;\n    }\n\n    ////////////////////////////////////\n    //////// REALIITO FUNCTIONS ////////\n    ////////////////////////////////////\n\n    /// @notice posts the question to realit.io\n    function _postQuestion(\n        uint template_id,\n        string memory question,\n        address arbitrator,\n        uint32 timeout,\n        uint32 opening_ts,\n        uint nonce\n    ) internal returns (bytes32) {\n        return\n            realitio.askQuestion(\n                template_id,\n                question,\n                arbitrator,\n                timeout,\n                opening_ts,\n                nonce\n            );\n    }\n\n    /// @notice gets the winning outcome from realitio\n    /// @dev this function call will revert if it has not yet resolved\n    function _determineWinner() internal view returns(uint) {\n        bytes32 _winningOutcome = realitio.resultFor(questionId);\n        return uint(_winningOutcome);\n    }\n\n    /// @notice has the question been finalized on realitio?\n    function _isQuestionFinalized() internal view returns (bool) {\n        return realitio.isFinalized(questionId);\n    }\n\n    ////////////////////////////////////\n    ////////// DAI FUNCTIONS///////////\n    ////////////////////////////////////\n\n    // * internal * \n    /// @notice common function for all outgoing DAI transfers\n    function _sendCash(address _to, uint _amount) internal { \n        require(dai.transfer(_to,_amount), \"Cash transfer failed\"); \n    }\n\n    // * internal * \n    /// @notice common function for all incoming DAI transfers\n    function _receiveCash(address _from, uint _amount) internal {  \n        require(dai.transferFrom(_from, address(this), _amount), \"Cash transfer failed\");\n    }\n\n    ////////////////////////////////////\n    //////// EXTERNAL FUNCTIONS ////////\n    ////////////////////////////////////\n\n    function placeBet(uint _outcome, uint _dai)\n        external\n        checkState(States.OPEN)\n        whenNotPaused\n    {\n        if (balances[msg.sender][_outcome] == 0) participants.push(msg.sender);\n        emit ParticipantEntered(msg.sender);\n        // increment three variables- balances, totalBet, totalBetPerOutcome\n        balances[msg.sender][_outcome] = balances[msg.sender][_outcome].add(_dai);\n        totalBet = totalBet.add(_dai);\n        totalBetPerOutcome[_outcome] = totalBetPerOutcome[_outcome].add(_dai);\n        _receiveCash(msg.sender, _dai);\n    }\n\n    function determineWinner() \n        external\n        whenNotPaused\n    {\n        require(_isQuestionFinalized(), \"Oracle has not finalised\");\n        winningOutcome = _determineWinner();\n        incrementState();\n    }\n\n    function incrementState() \n        public \n        whenNotPaused \n    {\n        if(((state == States.WAITING) && (marketOpeningTime > now)) ||  \n           ((state == States.OPEN) && (marketLockingTime > now)) || \n           ((state == States.LOCKED) && (winningOutcome != 69)) )\n        {\n            state = States(uint(state) + 1);\n        }\n        emit StateChanged(state);\n    }\n\n    function withdraw()\n        external\n        checkState(States.WITHDRAW)\n        whenNotPaused\n    {\n        require(!withdrawnBool[msg.sender], \"Already withdrawn\");\n        withdrawnBool[msg.sender] = true;\n        // first, return user's original bet\n        _returnBet();\n        // get winnings\n        uint _winnings = getWinnings(winningOutcome);\n        if (_winnings > 0) {\n            // effects\n            totalWithdrawn = totalWithdrawn.add(_winnings); \n            // interaction\n            aToken.redeem(_winnings);\n            _sendCash(msg.sender, _winnings);\n        }\n    }\n\n    ////////////////////////////////////\n    //////// INTERNAL FUNCTIONS ////////\n    ////////////////////////////////////\n    function _returnBet() \n        internal \n    {\n        for (uint i = 0; i < numberOfOutcomes; i++) \n        {\n            uint _amountBetOnOutcome = balances[msg.sender][i];\n            if (_amountBetOnOutcome > 0) {\n                // effects\n                totalWithdrawn = totalWithdrawn.add(_amountBetOnOutcome);\n                // interactions\n                aToken.redeem(_amountBetOnOutcome);\n                _sendCash(msg.sender, _amountBetOnOutcome);\n            }\n        }\n    }\n\n    ////////////////////////////////////\n    ///// BOILERPLATE FUNCTIONS ////////\n    ////////////////////////////////////\n\n    function disableContract() public onlyOwner returns (bool) {\n        _pause();\n    }\n\n    receive() external payable {}\n\n    fallback() external payable {}\n}\n",
  "sourcePath": "/Users/mcplums/Repos/BetTogether/contracts/MarketPot.sol",
  "compiler": {
    "name": "solc",
    "version": "0.6.6+commit.6c089d02.Emscripten.clang"
  },
  "schemaVersion": "3.1.0",
  "updatedAt": "2020-05-04T17:05:40.372Z",
  "devdoc": {
    "methods": {
      "getWinnings(uint256)": {
        "details": "returns total winnings for a user based on current accumulated interest... and assuming the passed _outcome wins. "
      },
      "owner()": {
        "details": "Returns the address of the current owner."
      },
      "paused()": {
        "details": "Returns true if the contract is paused, and false otherwise."
      },
      "renounceOwnership()": {
        "details": "Leaves the contract without owner. It will not be possible to call `onlyOwner` functions anymore. Can only be called by the current owner.     * NOTE: Renouncing ownership will leave the contract without an owner, thereby removing any functionality that is only available to the owner."
      },
      "transferOwnership(address)": {
        "details": "Transfers ownership of the contract to a new account (`newOwner`). Can only be called by the current owner."
      }
    }
  },
  "userdoc": {
    "methods": {
      "constructor": "///////////////////////////////// ///// CONSTRUCTOR /////////////// /////////////////////////////////",
      "disableContract()": {
        "notice": "///////////////////////////////// // BOILERPLATE FUNCTIONS //////// /////////////////////////////////"
      },
      "getMarketSize()": {
        "notice": "///////////////////////////////// /////// VIEW FUNCTIONS ////////// /////////////////////////////////"
      },
      "placeBet(uint256,uint256)": {
        "notice": "///////////////////////////////// ///// EXTERNAL FUNCTIONS //////// /////////////////////////////////"
      }
    }
  }
}