{
  "contractName": "MarketPotFactory",
  "abi": [
    {
      "inputs": [
        {
          "internalType": "contract Dai",
          "name": "_daiAddress",
          "type": "address"
        },
        {
          "internalType": "contract IaToken",
          "name": "_aTokenAddress",
          "type": "address"
        },
        {
          "internalType": "contract IAaveLendingPool",
          "name": "_aaveLpAddress",
          "type": "address"
        },
        {
          "internalType": "contract IAaveLendingPoolCore",
          "name": "_aaveLpcoreAddress",
          "type": "address"
        },
        {
          "internalType": "contract IRealitio",
          "name": "_realitioAddress",
          "type": "address"
        }
      ],
      "stateMutability": "nonpayable",
      "type": "constructor"
    },
    {
      "anonymous": false,
      "inputs": [
        {
          "indexed": false,
          "internalType": "address",
          "name": "contractAddress",
          "type": "address"
        }
      ],
      "name": "MarketPotCreated",
      "type": "event"
    },
    {
      "anonymous": false,
      "inputs": [
        {
          "indexed": true,
          "internalType": "address",
          "name": "previousOwner",
          "type": "address"
        },
        {
          "indexed": true,
          "internalType": "address",
          "name": "newOwner",
          "type": "address"
        }
      ],
      "name": "OwnershipTransferred",
      "type": "event"
    },
    {
      "anonymous": false,
      "inputs": [
        {
          "indexed": false,
          "internalType": "address",
          "name": "account",
          "type": "address"
        }
      ],
      "name": "Paused",
      "type": "event"
    },
    {
      "anonymous": false,
      "inputs": [
        {
          "indexed": false,
          "internalType": "address",
          "name": "account",
          "type": "address"
        }
      ],
      "name": "Unpaused",
      "type": "event"
    },
    {
      "inputs": [],
      "name": "aToken",
      "outputs": [
        {
          "internalType": "contract IaToken",
          "name": "",
          "type": "address"
        }
      ],
      "stateMutability": "view",
      "type": "function"
    },
    {
      "inputs": [],
      "name": "aaveLendingPool",
      "outputs": [
        {
          "internalType": "contract IAaveLendingPool",
          "name": "",
          "type": "address"
        }
      ],
      "stateMutability": "view",
      "type": "function"
    },
    {
      "inputs": [],
      "name": "aaveLendingPoolCore",
      "outputs": [
        {
          "internalType": "contract IAaveLendingPoolCore",
          "name": "",
          "type": "address"
        }
      ],
      "stateMutability": "view",
      "type": "function"
    },
    {
      "inputs": [],
      "name": "dai",
      "outputs": [
        {
          "internalType": "contract Dai",
          "name": "",
          "type": "address"
        }
      ],
      "stateMutability": "view",
      "type": "function"
    },
    {
      "inputs": [
        {
          "internalType": "uint256",
          "name": "",
          "type": "uint256"
        }
      ],
      "name": "marketPots",
      "outputs": [
        {
          "internalType": "address",
          "name": "",
          "type": "address"
        }
      ],
      "stateMutability": "view",
      "type": "function"
    },
    {
      "inputs": [],
      "name": "owner",
      "outputs": [
        {
          "internalType": "address",
          "name": "",
          "type": "address"
        }
      ],
      "stateMutability": "view",
      "type": "function"
    },
    {
      "inputs": [],
      "name": "paused",
      "outputs": [
        {
          "internalType": "bool",
          "name": "",
          "type": "bool"
        }
      ],
      "stateMutability": "view",
      "type": "function"
    },
    {
      "inputs": [],
      "name": "realitio",
      "outputs": [
        {
          "internalType": "contract IRealitio",
          "name": "",
          "type": "address"
        }
      ],
      "stateMutability": "view",
      "type": "function"
    },
    {
      "inputs": [],
      "name": "renounceOwnership",
      "outputs": [],
      "stateMutability": "nonpayable",
      "type": "function"
    },
    {
      "inputs": [
        {
          "internalType": "address",
          "name": "newOwner",
          "type": "address"
        }
      ],
      "name": "transferOwnership",
      "outputs": [],
      "stateMutability": "nonpayable",
      "type": "function"
    },
    {
      "inputs": [
        {
          "internalType": "uint256",
          "name": "_marketOpeningTime",
          "type": "uint256"
        },
        {
          "internalType": "uint32",
          "name": "_marketResolutionTime",
          "type": "uint32"
        },
        {
          "internalType": "address",
          "name": "_arbitrator",
          "type": "address"
        },
        {
          "internalType": "string",
          "name": "_eventName",
          "type": "string"
        },
        {
          "internalType": "string",
          "name": "_eventOutcome1",
          "type": "string"
        },
        {
          "internalType": "string",
          "name": "_eventOutcome2",
          "type": "string"
        },
        {
          "internalType": "string",
          "name": "_eventCategory",
          "type": "string"
        }
      ],
      "name": "createMarket",
      "outputs": [
        {
          "internalType": "contract MarketPot",
          "name": "",
          "type": "address"
        }
      ],
      "stateMutability": "nonpayable",
      "type": "function"
    },
    {
      "inputs": [],
      "name": "getMarketPots",
      "outputs": [
        {
          "internalType": "address[]",
          "name": "",
          "type": "address[]"
        }
      ],
      "stateMutability": "view",
      "type": "function"
    },
    {
      "inputs": [],
      "name": "destroy",
      "outputs": [],
      "stateMutability": "nonpayable",
      "type": "function"
    },
    {
      "inputs": [
        {
          "internalType": "address payable",
          "name": "potAddress",
          "type": "address"
        }
      ],
      "name": "disableMarketPot",
      "outputs": [
        {
          "internalType": "bool",
          "name": "",
          "type": "bool"
        }
      ],
      "stateMutability": "nonpayable",
      "type": "function"
    }
  ],
  "bytecode": "0x608060405234801561001057600080fd5b50604051614868380380614868833981810160405260a081101561003357600080fd5b810190808051906020019092919080519060200190929190805190602001909291908051906020019092919080519060200190929190505050600061007c61028360201b60201c565b9050806000806101000a81548173ffffffffffffffffffffffffffffffffffffffff021916908373ffffffffffffffffffffffffffffffffffffffff1602179055508073ffffffffffffffffffffffffffffffffffffffff16600073ffffffffffffffffffffffffffffffffffffffff167f8be0079c531659141344cd1fd0a4f28419497f9722a3daafe3b4186f6b6457e060405160405180910390a35060008060146101000a81548160ff02191690831515021790555084600160006101000a81548173ffffffffffffffffffffffffffffffffffffffff021916908373ffffffffffffffffffffffffffffffffffffffff16021790555083600260006101000a81548173ffffffffffffffffffffffffffffffffffffffff021916908373ffffffffffffffffffffffffffffffffffffffff16021790555082600360006101000a81548173ffffffffffffffffffffffffffffffffffffffff021916908373ffffffffffffffffffffffffffffffffffffffff16021790555081600460006101000a81548173ffffffffffffffffffffffffffffffffffffffff021916908373ffffffffffffffffffffffffffffffffffffffff16021790555080600560006101000a81548173ffffffffffffffffffffffffffffffffffffffff021916908373ffffffffffffffffffffffffffffffffffffffff160217905550505050505061028b565b600033905090565b6145ce8061029a6000396000f3fe60806040523480156200001157600080fd5b5060043610620001005760003560e01c806391fb6ee31162000099578063bc8802a2116200006f578063bc8802a21462000661578063e9d337b814620006ad578063f2fde38b14620006f9578063f4b9fa7514620007405762000100565b806391fb6ee314620002ad5780639b61c5e614620005b6578063a0c1f15e14620006155762000100565b80635c975abb11620000db5780635c975abb1462000225578063715018a6146200024957806383197ef014620002555780638da5cb5b14620002615762000100565b806313e7d60214620001055780631872e48a14620001685780633ca5583314620001d9575b600080fd5b6200010f6200078c565b6040518080602001828103825283818151815260200191508051906020019060200280838360005b838110156200015457808201518184015260208101905062000137565b505050509050019250505060405180910390f35b62000197600480360360208110156200018057600080fd5b81019080803590602001909291905050506200081c565b604051808273ffffffffffffffffffffffffffffffffffffffff1673ffffffffffffffffffffffffffffffffffffffff16815260200191505060405180910390f35b620001e362000859565b604051808273ffffffffffffffffffffffffffffffffffffffff1673ffffffffffffffffffffffffffffffffffffffff16815260200191505060405180910390f35b6200022f6200087f565b604051808215151515815260200191505060405180910390f35b6200025362000895565b005b6200025f62000a20565b005b6200026b62000b88565b604051808273ffffffffffffffffffffffffffffffffffffffff1673ffffffffffffffffffffffffffffffffffffffff16815260200191505060405180910390f35b62000574600480360360e0811015620002c557600080fd5b8101908080359060200190929190803563ffffffff169060200190929190803573ffffffffffffffffffffffffffffffffffffffff169060200190929190803590602001906401000000008111156200031d57600080fd5b8201836020820111156200033057600080fd5b803590602001918460018302840111640100000000831117156200035357600080fd5b91908080601f016020809104026020016040519081016040528093929190818152602001838380828437600081840152601f19601f82011690508083019250505050505050919291929080359060200190640100000000811115620003b757600080fd5b820183602082011115620003ca57600080fd5b80359060200191846001830284011164010000000083111715620003ed57600080fd5b91908080601f016020809104026020016040519081016040528093929190818152602001838380828437600081840152601f19601f820116905080830192505050505050509192919290803590602001906401000000008111156200045157600080fd5b8201836020820111156200046457600080fd5b803590602001918460018302840111640100000000831117156200048757600080fd5b91908080601f016020809104026020016040519081016040528093929190818152602001838380828437600081840152601f19601f82011690508083019250505050505050919291929080359060200190640100000000811115620004eb57600080fd5b820183602082011115620004fe57600080fd5b803590602001918460018302840111640100000000831117156200052157600080fd5b91908080601f016020809104026020016040519081016040528093929190818152602001838380828437600081840152601f19601f82011690508083019250505050505050919291929050505062000bb1565b604051808273ffffffffffffffffffffffffffffffffffffffff1673ffffffffffffffffffffffffffffffffffffffff16815260200191505060405180910390f35b620005fb60048036036020811015620005ce57600080fd5b81019080803573ffffffffffffffffffffffffffffffffffffffff1690602001909291905050506200110b565b604051808215151515815260200191505060405180910390f35b6200061f62001328565b604051808273ffffffffffffffffffffffffffffffffffffffff1673ffffffffffffffffffffffffffffffffffffffff16815260200191505060405180910390f35b6200066b6200134e565b604051808273ffffffffffffffffffffffffffffffffffffffff1673ffffffffffffffffffffffffffffffffffffffff16815260200191505060405180910390f35b620006b762001374565b604051808273ffffffffffffffffffffffffffffffffffffffff1673ffffffffffffffffffffffffffffffffffffffff16815260200191505060405180910390f35b6200073e600480360360208110156200071157600080fd5b81019080803573ffffffffffffffffffffffffffffffffffffffff1690602001909291905050506200139a565b005b6200074a620015ac565b604051808273ffffffffffffffffffffffffffffffffffffffff1673ffffffffffffffffffffffffffffffffffffffff16815260200191505060405180910390f35b606060078054806020026020016040519081016040528092919081815260200182805480156200081257602002820191906000526020600020905b8160009054906101000a900473ffffffffffffffffffffffffffffffffffffffff1673ffffffffffffffffffffffffffffffffffffffff1681526020019060010190808311620007c7575b5050505050905090565b600781815481106200082a57fe5b906000526020600020016000915054906101000a900473ffffffffffffffffffffffffffffffffffffffff1681565b600460009054906101000a900473ffffffffffffffffffffffffffffffffffffffff1681565b60008060149054906101000a900460ff16905090565b6200089f620015d2565b73ffffffffffffffffffffffffffffffffffffffff166000809054906101000a900473ffffffffffffffffffffffffffffffffffffffff1673ffffffffffffffffffffffffffffffffffffffff161462000961576040517f08c379a00000000000000000000000000000000000000000000000000000000081526004018080602001828103825260208152602001807f4f776e61626c653a2063616c6c6572206973206e6f7420746865206f776e657281525060200191505060405180910390fd5b600073ffffffffffffffffffffffffffffffffffffffff166000809054906101000a900473ffffffffffffffffffffffffffffffffffffffff1673ffffffffffffffffffffffffffffffffffffffff167f8be0079c531659141344cd1fd0a4f28419497f9722a3daafe3b4186f6b6457e060405160405180910390a360008060006101000a81548173ffffffffffffffffffffffffffffffffffffffff021916908373ffffffffffffffffffffffffffffffffffffffff160217905550565b62000a2a620015d2565b73ffffffffffffffffffffffffffffffffffffffff166000809054906101000a900473ffffffffffffffffffffffffffffffffffffffff1673ffffffffffffffffffffffffffffffffffffffff161462000aec576040517f08c379a00000000000000000000000000000000000000000000000000000000081526004018080602001828103825260208152602001807f4f776e61626c653a2063616c6c6572206973206e6f7420746865206f776e657281525060200191505060405180910390fd5b600060149054906101000a900460ff1662000b6f576040517f08c379a00000000000000000000000000000000000000000000000000000000081526004018080602001828103825260148152602001807f5061757361626c653a206e6f742070617573656400000000000000000000000081525060200191505060405180910390fd5b3373ffffffffffffffffffffffffffffffffffffffff16ff5b60008060009054906101000a900473ffffffffffffffffffffffffffffffffffffffff16905090565b600062000bbd620015d2565b73ffffffffffffffffffffffffffffffffffffffff166000809054906101000a900473ffffffffffffffffffffffffffffffffffffffff1673ffffffffffffffffffffffffffffffffffffffff161462000c7f576040517f08c379a00000000000000000000000000000000000000000000000000000000081526004018080602001828103825260208152602001807f4f776e61626c653a2063616c6c6572206973206e6f7420746865206f776e657281525060200191505060405180910390fd5b600060149054906101000a900460ff161562000d03576040517f08c379a00000000000000000000000000000000000000000000000000000000081526004018080602001828103825260108152602001807f5061757361626c653a207061757365640000000000000000000000000000000081525060200191505060405180910390fd5b6000600160009054906101000a900473ffffffffffffffffffffffffffffffffffffffff16600260009054906101000a900473ffffffffffffffffffffffffffffffffffffffff16600360009054906101000a900473ffffffffffffffffffffffffffffffffffffffff16600460009054906101000a900473ffffffffffffffffffffffffffffffffffffffff16600560009054906101000a900473ffffffffffffffffffffffffffffffffffffffff168d8d8d8d3360405162000dc790620015da565b808b73ffffffffffffffffffffffffffffffffffffffff1673ffffffffffffffffffffffffffffffffffffffff1681526020018a73ffffffffffffffffffffffffffffffffffffffff1673ffffffffffffffffffffffffffffffffffffffff1681526020018973ffffffffffffffffffffffffffffffffffffffff1673ffffffffffffffffffffffffffffffffffffffff1681526020018873ffffffffffffffffffffffffffffffffffffffff1673ffffffffffffffffffffffffffffffffffffffff1681526020018773ffffffffffffffffffffffffffffffffffffffff1673ffffffffffffffffffffffffffffffffffffffff1681526020018681526020018563ffffffff1663ffffffff1681526020018473ffffffffffffffffffffffffffffffffffffffff1673ffffffffffffffffffffffffffffffffffffffff168152602001806020018373ffffffffffffffffffffffffffffffffffffffff1673ffffffffffffffffffffffffffffffffffffffff168152602001828103825284818151815260200191508051906020019080838360005b8381101562000f7c57808201518184015260208101905062000f5f565b50505050905090810190601f16801562000faa5780820380516001836020036101000a031916815260200191505b509b505050505050505050505050604051809103906000f08015801562000fd5573d6000803e3d6000fd5b50905060008190506007819080600181540180825580915050600190039060005260206000200160009091909190916101000a81548173ffffffffffffffffffffffffffffffffffffffff021916908373ffffffffffffffffffffffffffffffffffffffff1602179055506001600660008373ffffffffffffffffffffffffffffffffffffffff1673ffffffffffffffffffffffffffffffffffffffff16815260200190815260200160002060006101000a81548160ff0219169083151502179055507f0deee0527b07156901d7508e4bd67d956c271b5aeae37456043042f74b7d602f81604051808273ffffffffffffffffffffffffffffffffffffffff1673ffffffffffffffffffffffffffffffffffffffff16815260200191505060405180910390a18192505050979650505050505050565b600062001117620015d2565b73ffffffffffffffffffffffffffffffffffffffff166000809054906101000a900473ffffffffffffffffffffffffffffffffffffffff1673ffffffffffffffffffffffffffffffffffffffff1614620011d9576040517f08c379a00000000000000000000000000000000000000000000000000000000081526004018080602001828103825260208152602001807f4f776e61626c653a2063616c6c6572206973206e6f7420746865206f776e657281525060200191505060405180910390fd5b81600660008273ffffffffffffffffffffffffffffffffffffffff1673ffffffffffffffffffffffffffffffffffffffff16815260200190815260200160002060009054906101000a900460ff166200129a576040517f08c379a000000000000000000000000000000000000000000000000000000000815260040180806020018281038252601f8152602001807f4d7573742062652063726561746564206279207468697320666163746f72790081525060200191505060405180910390fd5b8273ffffffffffffffffffffffffffffffffffffffff1663894ba8336040518163ffffffff1660e01b8152600401602060405180830381600087803b158015620012e357600080fd5b505af1158015620012f8573d6000803e3d6000fd5b505050506040513d60208110156200130f57600080fd5b8101908080519060200190929190505050915050919050565b600260009054906101000a900473ffffffffffffffffffffffffffffffffffffffff1681565b600560009054906101000a900473ffffffffffffffffffffffffffffffffffffffff1681565b600360009054906101000a900473ffffffffffffffffffffffffffffffffffffffff1681565b620013a4620015d2565b73ffffffffffffffffffffffffffffffffffffffff166000809054906101000a900473ffffffffffffffffffffffffffffffffffffffff1673ffffffffffffffffffffffffffffffffffffffff161462001466576040517f08c379a00000000000000000000000000000000000000000000000000000000081526004018080602001828103825260208152602001807f4f776e61626c653a2063616c6c6572206973206e6f7420746865206f776e657281525060200191505060405180910390fd5b600073ffffffffffffffffffffffffffffffffffffffff168173ffffffffffffffffffffffffffffffffffffffff161415620014ee576040517f08c379a0000000000000000000000000000000000000000000000000000000008152600401808060200182810382526026815260200180620045736026913960400191505060405180910390fd5b8073ffffffffffffffffffffffffffffffffffffffff166000809054906101000a900473ffffffffffffffffffffffffffffffffffffffff1673ffffffffffffffffffffffffffffffffffffffff167f8be0079c531659141344cd1fd0a4f28419497f9722a3daafe3b4186f6b6457e060405160405180910390a3806000806101000a81548173ffffffffffffffffffffffffffffffffffffffff021916908373ffffffffffffffffffffffffffffffffffffffff16021790555050565b600160009054906101000a900473ffffffffffffffffffffffffffffffffffffffff1681565b600033905090565b612f8a80620015e98339019056fe608060405260456003553480156200001657600080fd5b5060405162002f8a38038062002f8a83398181016040526101408110156200003d57600080fd5b81019080805190602001909291908051906020019092919080519060200190929190805190602001909291908051906020019092919080519060200190929190805190602001909291908051906020019092919080516040519392919084640100000000821115620000ae57600080fd5b83820191506020820185811115620000c557600080fd5b8251866001820283011164010000000082111715620000e357600080fd5b8083526020830192505050908051906020019080838360005b8381101562000119578082015181840152602081019050620000fc565b50505050905090810190601f168015620001475780820380516001836020036101000a031916815260200191505b506040526020018051906020019092919050505060006200016d6200049060201b60201c565b9050806000806101000a81548173ffffffffffffffffffffffffffffffffffffffff021916908373ffffffffffffffffffffffffffffffffffffffff1602179055508073ffffffffffffffffffffffffffffffffffffffff16600073ffffffffffffffffffffffffffffffffffffffff167f8be0079c531659141344cd1fd0a4f28419497f9722a3daafe3b4186f6b6457e060405160405180910390a35060008060146101000a81548160ff0219169083151502179055506001600060156101000a81548160ff0219169083151502179055503373ffffffffffffffffffffffffffffffffffffffff168173ffffffffffffffffffffffffffffffffffffffff1614620002865762000285816200049860201b60201c565b5b89600960006101000a81548173ffffffffffffffffffffffffffffffffffffffff021916908373ffffffffffffffffffffffffffffffffffffffff16021790555088600a60006101000a81548173ffffffffffffffffffffffffffffffffffffffff021916908373ffffffffffffffffffffffffffffffffffffffff16021790555087600b60006101000a81548173ffffffffffffffffffffffffffffffffffffffff021916908373ffffffffffffffffffffffffffffffffffffffff16021790555086600c60006101000a81548173ffffffffffffffffffffffffffffffffffffffff021916908373ffffffffffffffffffffffffffffffffffffffff16021790555085600d60006101000a81548173ffffffffffffffffffffffffffffffffffffffff021916908373ffffffffffffffffffffffffffffffffffffffff16021790555084600e81905550620003ef62093a8086620006b060201b62001eb21790919060201c565b600f8190555083601060006101000a81548163ffffffff021916908363ffffffff16021790555081601290805190602001906200042e929190620008ce565b5060006002905060606040518060800160405280605e815260200162002f2c605e913990506000809050600062015180905062000476848489848c876200073960201b60201c565b60118190555050505050505050505050505050506200097d565b600033905090565b620004a86200049060201b60201c565b73ffffffffffffffffffffffffffffffffffffffff166000809054906101000a900473ffffffffffffffffffffffffffffffffffffffff1673ffffffffffffffffffffffffffffffffffffffff16146200056a576040517f08c379a00000000000000000000000000000000000000000000000000000000081526004018080602001828103825260208152602001807f4f776e61626c653a2063616c6c6572206973206e6f7420746865206f776e657281525060200191505060405180910390fd5b600073ffffffffffffffffffffffffffffffffffffffff168173ffffffffffffffffffffffffffffffffffffffff161415620005f2576040517f08c379a000000000000000000000000000000000000000000000000000000000815260040180806020018281038252602681526020018062002f066026913960400191505060405180910390fd5b8073ffffffffffffffffffffffffffffffffffffffff166000809054906101000a900473ffffffffffffffffffffffffffffffffffffffff1673ffffffffffffffffffffffffffffffffffffffff167f8be0079c531659141344cd1fd0a4f28419497f9722a3daafe3b4186f6b6457e060405160405180910390a3806000806101000a81548173ffffffffffffffffffffffffffffffffffffffff021916908373ffffffffffffffffffffffffffffffffffffffff16021790555050565b6000808284019050838110156200072f576040517f08c379a000000000000000000000000000000000000000000000000000000000815260040180806020018281038252601b8152602001807f536166654d6174683a206164646974696f6e206f766572666c6f77000000000081525060200191505060405180910390fd5b8091505092915050565b6000600d60009054906101000a900473ffffffffffffffffffffffffffffffffffffffff1673ffffffffffffffffffffffffffffffffffffffff1663762c38fd8888888888886040518763ffffffff1660e01b815260040180878152602001806020018673ffffffffffffffffffffffffffffffffffffffff1673ffffffffffffffffffffffffffffffffffffffff1681526020018563ffffffff1663ffffffff1681526020018463ffffffff1663ffffffff168152602001838152602001828103825287818151815260200191508051906020019080838360005b838110156200083257808201518184015260208101905062000815565b50505050905090810190601f168015620008605780820380516001836020036101000a031916815260200191505b50975050505050505050602060405180830381600087803b1580156200088557600080fd5b505af11580156200089a573d6000803e3d6000fd5b505050506040513d6020811015620008b157600080fd5b810190808051906020019092919050505090509695505050505050565b828054600181600116156101000203166002900490600052602060002090601f016020900481019282601f106200091157805160ff191683800117855562000942565b8280016001018555821562000942579182015b828111156200094157825182559160200191906001019062000924565b5b50905062000951919062000955565b5090565b6200097a91905b80821115620009765760008160009055506001016200095c565b5090565b90565b612579806200098d6000396000f3fe6080604052600436106101d15760003560e01c8063894ba833116100f7578063c19d93fb11610095578063f2fde38b11610064578063f2fde38b146108e7578063f4b9fa7514610938578063fd27b51e1461098f578063fe5e1853146109ba576101d8565b8063c19d93fb146107d1578063cbf1304d1461080a578063e9d337b814610879578063ee72b06d146108d0576101d8565b80639b34ae03116100d15780639b34ae03146106cd578063a0c1f15e146106f8578063b06a5c521461074f578063bc8802a21461077a576101d8565b8063894ba833146106305780638da5cb5b1461065f5780638e7ea5b2146106b6576101d8565b80634b3197131161016f57806369fb06641161013e57806369fb066414610445578063715018a6146104f95780638043c9c014610510578063831d14ae146105a0576101d8565b80634b319713146103955780634b8755ca146103c05780634ecc79f7146103eb5780635c975abb14610416576101d8565b80633ca55833116101ab5780633ca55833146102b75780633ccfd60b1461030e57806349200d77146103255780634afe62b514610350576101d8565b80630dbe671f146101da578063232ea3ad1461020557806335c1d3491461023c576101d8565b366101d857005b005b3480156101e657600080fd5b506101ef6109e5565b6040518082815260200191505060405180910390f35b34801561021157600080fd5b5061021a6109eb565b604051808263ffffffff1663ffffffff16815260200191505060405180910390f35b34801561024857600080fd5b506102756004803603602081101561025f57600080fd5b8101908080359060200190929190505050610a01565b604051808273ffffffffffffffffffffffffffffffffffffffff1673ffffffffffffffffffffffffffffffffffffffff16815260200191505060405180910390f35b3480156102c357600080fd5b506102cc610a3d565b604051808273ffffffffffffffffffffffffffffffffffffffff1673ffffffffffffffffffffffffffffffffffffffff16815260200191505060405180910390f35b34801561031a57600080fd5b50610323610a63565b005b34801561033157600080fd5b5061033a610ecd565b6040518082815260200191505060405180910390f35b34801561035c57600080fd5b506103936004803603604081101561037357600080fd5b810190808035906020019092919080359060200190929190505050610ed3565b005b3480156103a157600080fd5b506103aa6111b6565b6040518082815260200191505060405180910390f35b3480156103cc57600080fd5b506103d56111bc565b6040518082815260200191505060405180910390f35b3480156103f757600080fd5b506104006111c2565b6040518082815260200191505060405180910390f35b34801561042257600080fd5b5061042b6111c8565b604051808215151515815260200191505060405180910390f35b34801561045157600080fd5b5061047e6004803603602081101561046857600080fd5b81019080803590602001909291905050506111de565b6040518080602001828103825283818151815260200191508051906020019080838360005b838110156104be5780820151818401526020810190506104a3565b50505050905090810190601f1680156104eb5780820380516001836020036101000a031916815260200191505b509250505060405180910390f35b34801561050557600080fd5b5061050e61128e565b005b34801561051c57600080fd5b50610525611416565b6040518080602001828103825283818151815260200191508051906020019080838360005b8381101561056557808201518184015260208101905061054a565b50505050905090810190601f1680156105925780820380516001836020036101000a031916815260200191505b509250505060405180910390f35b3480156105ac57600080fd5b506105b56114b4565b6040518080602001828103825283818151815260200191508051906020019080838360005b838110156105f55780820151818401526020810190506105da565b50505050905090810190601f1680156106225780820380516001836020036101000a031916815260200191505b509250505060405180910390f35b34801561063c57600080fd5b50610645611552565b604051808215151515815260200191505060405180910390f35b34801561066b57600080fd5b50610674611628565b604051808273ffffffffffffffffffffffffffffffffffffffff1673ffffffffffffffffffffffffffffffffffffffff16815260200191505060405180910390f35b3480156106c257600080fd5b506106cb611651565b005b3480156106d957600080fd5b506106e2611766565b6040518082815260200191505060405180910390f35b34801561070457600080fd5b5061070d61176c565b604051808273ffffffffffffffffffffffffffffffffffffffff1673ffffffffffffffffffffffffffffffffffffffff16815260200191505060405180910390f35b34801561075b57600080fd5b50610764611792565b6040518082815260200191505060405180910390f35b34801561078657600080fd5b5061078f611798565b604051808273ffffffffffffffffffffffffffffffffffffffff1673ffffffffffffffffffffffffffffffffffffffff16815260200191505060405180910390f35b3480156107dd57600080fd5b506107e66117be565b604051808260038111156107f657fe5b60ff16815260200191505060405180910390f35b34801561081657600080fd5b506108636004803603604081101561082d57600080fd5b81019080803573ffffffffffffffffffffffffffffffffffffffff169060200190929190803590602001909291905050506117d1565b6040518082815260200191505060405180910390f35b34801561088557600080fd5b5061088e6117f6565b604051808273ffffffffffffffffffffffffffffffffffffffff1673ffffffffffffffffffffffffffffffffffffffff16815260200191505060405180910390f35b3480156108dc57600080fd5b506108e561181c565b005b3480156108f357600080fd5b506109366004803603602081101561090a57600080fd5b81019080803573ffffffffffffffffffffffffffffffffffffffff1690602001909291905050506119f8565b005b34801561094457600080fd5b5061094d611c05565b604051808273ffffffffffffffffffffffffffffffffffffffff1673ffffffffffffffffffffffffffffffffffffffff16815260200191505060405180910390f35b34801561099b57600080fd5b506109a4611c2b565b6040518082815260200191505060405180910390f35b3480156109c657600080fd5b506109cf611c38565b6040518082815260200191505060405180910390f35b60085481565b601060009054906101000a900463ffffffff1681565b60018181548110610a0e57fe5b906000526020600020016000915054906101000a900473ffffffffffffffffffffffffffffffffffffffff1681565b600c60009054906101000a900473ffffffffffffffffffffffffffffffffffffffff1681565b6003806003811115610a7157fe5b600760009054906101000a900460ff166003811115610a8c57fe5b14610ae2576040517f08c379a000000000000000000000000000000000000000000000000000000000815260040180806020018281038252602681526020018061251e6026913960400191505060405180910390fd5b600060149054906101000a900460ff1615610b65576040517f08c379a00000000000000000000000000000000000000000000000000000000081526004018080602001828103825260108152602001807f5061757361626c653a207061757365640000000000000000000000000000000081525060200191505060405180910390fd5b60008090505b600454811015610ec9576000600260003373ffffffffffffffffffffffffffffffffffffffff1673ffffffffffffffffffffffffffffffffffffffff16815260200190815260200160002060008381526020019081526020016000205490506000600260003373ffffffffffffffffffffffffffffffffffffffff1673ffffffffffffffffffffffffffffffffffffffff1681526020019081526020016000206000848152602001908152602001600020819055506000811115610ebb57600a60009054906101000a900473ffffffffffffffffffffffffffffffffffffffff1673ffffffffffffffffffffffffffffffffffffffff1663db006a75826040518263ffffffff1660e01b815260040180828152602001915050600060405180830381600087803b158015610c9e57600080fd5b505af1158015610cb2573d6000803e3d6000fd5b50505050610cc03382611c3e565b816003541415610eba576000610ce3600654600554611d9890919063ffffffff16565b90506000600a60009054906101000a900473ffffffffffffffffffffffffffffffffffffffff1673ffffffffffffffffffffffffffffffffffffffff166370a08231306040518263ffffffff1660e01b8152600401808273ffffffffffffffffffffffffffffffffffffffff1673ffffffffffffffffffffffffffffffffffffffff16815260200191505060206040518083038186803b158015610d8657600080fd5b505afa158015610d9a573d6000803e3d6000fd5b505050506040513d6020811015610db057600080fd5b810190808051906020019092919050505090506000610dd88383611d9890919063ffffffff16565b90506000610e0184610df38488611de290919063ffffffff16565b611e6890919063ffffffff16565b9050610e1881600654611eb290919063ffffffff16565b600681905550600a60009054906101000a900473ffffffffffffffffffffffffffffffffffffffff1673ffffffffffffffffffffffffffffffffffffffff1663db006a75826040518263ffffffff1660e01b815260040180828152602001915050600060405180830381600087803b158015610e9357600080fd5b505af1158015610ea7573d6000803e3d6000fd5b50505050610eb53382611c3e565b505050505b5b508080600101915050610b6b565b5050565b60045481565b6001806003811115610ee157fe5b600760009054906101000a900460ff166003811115610efc57fe5b14610f52576040517f08c379a000000000000000000000000000000000000000000000000000000000815260040180806020018281038252602681526020018061251e6026913960400191505060405180910390fd5b600060149054906101000a900460ff1615610fd5576040517f08c379a00000000000000000000000000000000000000000000000000000000081526004018080602001828103825260108152602001807f5061757361626c653a207061757365640000000000000000000000000000000081525060200191505060405180910390fd5b6000600260003373ffffffffffffffffffffffffffffffffffffffff1673ffffffffffffffffffffffffffffffffffffffff1681526020019081526020016000206000858152602001908152602001600020541415611092576001339080600181540180825580915050600190039060005260206000200160009091909190916101000a81548173ffffffffffffffffffffffffffffffffffffffff021916908373ffffffffffffffffffffffffffffffffffffffff1602179055505b3373ffffffffffffffffffffffffffffffffffffffff167fef3b3ae531a4f494c95e537ec1fe385cfe5c1146cb4c1d850b24bad38595804960405160405180910390a261113882600260003373ffffffffffffffffffffffffffffffffffffffff1673ffffffffffffffffffffffffffffffffffffffff168152602001908152602001600020600086815260200190815260200160002054611eb290919063ffffffff16565b600260003373ffffffffffffffffffffffffffffffffffffffff1673ffffffffffffffffffffffffffffffffffffffff1681526020019081526020016000206000858152602001908152602001600020819055506111a182600554611eb290919063ffffffff16565b6005819055506111b13383611f3a565b505050565b60065481565b600f5481565b600e5481565b60008060149054906101000a900460ff16905090565b60136020528060005260406000206000915090508054600181600116156101000203166002900480601f0160208091040260200160405190810160405280929190818152602001828054600181600116156101000203166002900480156112865780601f1061125b57610100808354040283529160200191611286565b820191906000526020600020905b81548152906001019060200180831161126957829003601f168201915b505050505081565b6112966120c8565b73ffffffffffffffffffffffffffffffffffffffff166000809054906101000a900473ffffffffffffffffffffffffffffffffffffffff1673ffffffffffffffffffffffffffffffffffffffff1614611357576040517f08c379a00000000000000000000000000000000000000000000000000000000081526004018080602001828103825260208152602001807f4f776e61626c653a2063616c6c6572206973206e6f7420746865206f776e657281525060200191505060405180910390fd5b600073ffffffffffffffffffffffffffffffffffffffff166000809054906101000a900473ffffffffffffffffffffffffffffffffffffffff1673ffffffffffffffffffffffffffffffffffffffff167f8be0079c531659141344cd1fd0a4f28419497f9722a3daafe3b4186f6b6457e060405160405180910390a360008060006101000a81548173ffffffffffffffffffffffffffffffffffffffff021916908373ffffffffffffffffffffffffffffffffffffffff160217905550565b60128054600181600116156101000203166002900480601f0160208091040260200160405190810160405280929190818152602001828054600181600116156101000203166002900480156114ac5780601f10611481576101008083540402835291602001916114ac565b820191906000526020600020905b81548152906001019060200180831161148f57829003601f168201915b505050505081565b60148054600181600116156101000203166002900480601f01602080910402602001604051908101604052809291908181526020018280546001816001161561010002031660029004801561154a5780601f1061151f5761010080835404028352916020019161154a565b820191906000526020600020905b81548152906001019060200180831161152d57829003601f168201915b505050505081565b600061155c6120c8565b73ffffffffffffffffffffffffffffffffffffffff166000809054906101000a900473ffffffffffffffffffffffffffffffffffffffff1673ffffffffffffffffffffffffffffffffffffffff161461161d576040517f08c379a00000000000000000000000000000000000000000000000000000000081526004018080602001828103825260208152602001807f4f776e61626c653a2063616c6c6572206973206e6f7420746865206f776e657281525060200191505060405180910390fd5b6116256120d0565b90565b60008060009054906101000a900473ffffffffffffffffffffffffffffffffffffffff16905090565b600060149054906101000a900460ff16156116d4576040517f08c379a00000000000000000000000000000000000000000000000000000000081526004018080602001828103825260108152602001807f5061757361626c653a207061757365640000000000000000000000000000000081525060200191505060405180910390fd5b6116dc6121da565b61174e576040517f08c379a00000000000000000000000000000000000000000000000000000000081526004018080602001828103825260188152602001807f4f7261636c6520686173206e6f742066696e616c69736564000000000000000081525060200191505060405180910390fd5b611756612291565b60038190555061176461181c565b565b60035481565b600a60009054906101000a900473ffffffffffffffffffffffffffffffffffffffff1681565b60115481565b600d60009054906101000a900473ffffffffffffffffffffffffffffffffffffffff1681565b600760009054906101000a900460ff1681565b6002602052816000526040600020602052806000526040600020600091509150505481565b600b60009054906101000a900473ffffffffffffffffffffffffffffffffffffffff1681565b600060149054906101000a900460ff161561189f576040517f08c379a00000000000000000000000000000000000000000000000000000000081526004018080602001828103825260108152602001807f5061757361626c653a207061757365640000000000000000000000000000000081525060200191505060405180910390fd5b600060038111156118ac57fe5b600760009054906101000a900460ff1660038111156118c757fe5b1480156118d5575042600e54115b806119125750600160038111156118e857fe5b600760009054906101000a900460ff16600381111561190357fe5b148015611911575042600f54115b5b8061195157506002600381111561192557fe5b600760009054906101000a900460ff16600381111561194057fe5b1480156119505750604560035414155b5b156119a2576001600760009054906101000a900460ff16600381111561197357fe5b01600381111561197f57fe5b600760006101000a81548160ff0219169083600381111561199c57fe5b02179055505b7f551dc40198cc79684bb69e4931dba4ac16e4598792ee1c0a5000aeea366d7bb6600760009054906101000a900460ff16604051808260038111156119e357fe5b60ff16815260200191505060405180910390a1565b611a006120c8565b73ffffffffffffffffffffffffffffffffffffffff166000809054906101000a900473ffffffffffffffffffffffffffffffffffffffff1673ffffffffffffffffffffffffffffffffffffffff1614611ac1576040517f08c379a00000000000000000000000000000000000000000000000000000000081526004018080602001828103825260208152602001807f4f776e61626c653a2063616c6c6572206973206e6f7420746865206f776e657281525060200191505060405180910390fd5b600073ffffffffffffffffffffffffffffffffffffffff168173ffffffffffffffffffffffffffffffffffffffff161415611b47576040517f08c379a00000000000000000000000000000000000000000000000000000000081526004018080602001828103825260268152602001806124d76026913960400191505060405180910390fd5b8073ffffffffffffffffffffffffffffffffffffffff166000809054906101000a900473ffffffffffffffffffffffffffffffffffffffff1673ffffffffffffffffffffffffffffffffffffffff167f8be0079c531659141344cd1fd0a4f28419497f9722a3daafe3b4186f6b6457e060405160405180910390a3806000806101000a81548173ffffffffffffffffffffffffffffffffffffffff021916908373ffffffffffffffffffffffffffffffffffffffff16021790555050565b600960009054906101000a900473ffffffffffffffffffffffffffffffffffffffff1681565b6000600180549050905090565b60055481565b600960009054906101000a900473ffffffffffffffffffffffffffffffffffffffff1673ffffffffffffffffffffffffffffffffffffffff1663a9059cbb83836040518363ffffffff1660e01b8152600401808373ffffffffffffffffffffffffffffffffffffffff1673ffffffffffffffffffffffffffffffffffffffff16815260200182815260200192505050602060405180830381600087803b158015611ce757600080fd5b505af1158015611cfb573d6000803e3d6000fd5b505050506040513d6020811015611d1157600080fd5b8101908080519060200190929190505050611d94576040517f08c379a00000000000000000000000000000000000000000000000000000000081526004018080602001828103825260148152602001807f43617368207472616e73666572206661696c656400000000000000000000000081525060200191505060405180910390fd5b5050565b6000611dda83836040518060400160405280601e81526020017f536166654d6174683a207375627472616374696f6e206f766572666c6f770000815250612350565b905092915050565b600080831415611df55760009050611e62565b6000828402905082848281611e0657fe5b0414611e5d576040517f08c379a00000000000000000000000000000000000000000000000000000000081526004018080602001828103825260218152602001806124fd6021913960400191505060405180910390fd5b809150505b92915050565b6000611eaa83836040518060400160405280601a81526020017f536166654d6174683a206469766973696f6e206279207a65726f000000000000815250612410565b905092915050565b600080828401905083811015611f30576040517f08c379a000000000000000000000000000000000000000000000000000000000815260040180806020018281038252601b8152602001807f536166654d6174683a206164646974696f6e206f766572666c6f77000000000081525060200191505060405180910390fd5b8091505092915050565b600960009054906101000a900473ffffffffffffffffffffffffffffffffffffffff1673ffffffffffffffffffffffffffffffffffffffff166323b872dd8330846040518463ffffffff1660e01b8152600401808473ffffffffffffffffffffffffffffffffffffffff1673ffffffffffffffffffffffffffffffffffffffff1681526020018373ffffffffffffffffffffffffffffffffffffffff1673ffffffffffffffffffffffffffffffffffffffff1681526020018281526020019350505050602060405180830381600087803b15801561201757600080fd5b505af115801561202b573d6000803e3d6000fd5b505050506040513d602081101561204157600080fd5b81019080805190602001909291905050506120c4576040517f08c379a00000000000000000000000000000000000000000000000000000000081526004018080602001828103825260148152602001807f43617368207472616e73666572206661696c656400000000000000000000000081525060200191505060405180910390fd5b5050565b600033905090565b600060149054906101000a900460ff1615612153576040517f08c379a00000000000000000000000000000000000000000000000000000000081526004018080602001828103825260108152602001807f5061757361626c653a207061757365640000000000000000000000000000000081525060200191505060405180910390fd5b6001600060146101000a81548160ff0219169083151502179055507f62e78cea01bee320cd4e420270b5ea74000d11b0c9f74754ebdbfc544b05a2586121976120c8565b604051808273ffffffffffffffffffffffffffffffffffffffff1673ffffffffffffffffffffffffffffffffffffffff16815260200191505060405180910390a1565b6000600d60009054906101000a900473ffffffffffffffffffffffffffffffffffffffff1673ffffffffffffffffffffffffffffffffffffffff16637f8d429e6011546040518263ffffffff1660e01b81526004018082815260200191505060206040518083038186803b15801561225157600080fd5b505afa158015612265573d6000803e3d6000fd5b505050506040513d602081101561227b57600080fd5b8101908080519060200190929190505050905090565b600080600d60009054906101000a900473ffffffffffffffffffffffffffffffffffffffff1673ffffffffffffffffffffffffffffffffffffffff1663d09cc57e6011546040518263ffffffff1660e01b81526004018082815260200191505060206040518083038186803b15801561230957600080fd5b505afa15801561231d573d6000803e3d6000fd5b505050506040513d602081101561233357600080fd5b810190808051906020019092919050505090508060001c91505090565b60008383111582906123fd576040517f08c379a00000000000000000000000000000000000000000000000000000000081526004018080602001828103825283818151815260200191508051906020019080838360005b838110156123c25780820151818401526020810190506123a7565b50505050905090810190601f1680156123ef5780820380516001836020036101000a031916815260200191505b509250505060405180910390fd5b5060008385039050809150509392505050565b600080831182906124bc576040517f08c379a00000000000000000000000000000000000000000000000000000000081526004018080602001828103825283818151815260200191508051906020019080838360005b83811015612481578082015181840152602081019050612466565b50505050905090810190601f1680156124ae5780820380516001836020036101000a031916815260200191505b509250505060405180910390fd5b5060008385816124c857fe5b04905080915050939250505056fe4f776e61626c653a206e6577206f776e657220697320746865207a65726f2061646472657373536166654d6174683a206d756c7469706c69636174696f6e206f766572666c6f7766756e6374696f6e2063616e6e6f742062652063616c6c656420617420746869732074696d65a264697066735822122074c7f993a9623fc91ae1b0fcb8b982a09415eb669e604f34223e33b856a05a9f64736f6c634300060600334f776e61626c653a206e6577206f776e657220697320746865207a65726f206164647265737357686f2077696c6c2077696e2074686520323032302055532047656e6572616c20456c656374696f6ee2909f22446f6e616c64205472756d70222c224a6f6520426964656e22e2909f6e6577732d706f6c6974696373e2909f656e5f55534f776e61626c653a206e6577206f776e657220697320746865207a65726f2061646472657373a2646970667358221220d14a94833d0524faafcb165fba594a39f36e4a98edba8bf7cf19818b5affaf4864736f6c63430006060033",
  "immutableReferences": {},
  "source": "//REMOVE ONCE WE CAN AUTOMATICALLY DEPLOY CONTRACTS\n\npragma solidity 0.6.6;\n\nimport \"@openzeppelin/contracts/access/Ownable.sol\";\nimport \"@openzeppelin/contracts/utils/Pausable.sol\";\nimport \"./MarketPot.sol\";\nimport \"./interfaces/IAave.sol\";\nimport \"./interfaces/IDai.sol\";\nimport \"./interfaces/IRealitio.sol\";\n\ncontract MarketPotFactory is Ownable, Pausable {\n\n    ////////////////////////////////////\n    //////// VARIABLES /////////////////\n    ////////////////////////////////////\n    \n    // Externals\n    Dai public dai;\n    IaToken public aToken;\n    IAaveLendingPool public aaveLendingPool;\n    IAaveLendingPoolCore public aaveLendingPoolCore;\n    IRealitio public realitio;\n\n    mapping(address => bool) mappingOfMarketPots;\n    address[] public marketPots;\n\n    event MarketPotCreated(address contractAddress);\n\n    modifier createdByThisFactory(address potAddr) {\n        require(\n            mappingOfMarketPots[potAddr],\n            \"Must be created by this factory\"\n        );\n        _;\n    }\n\n    constructor(\n        Dai _daiAddress,\n        IaToken _aTokenAddress,\n        IAaveLendingPool _aaveLpAddress,\n        IAaveLendingPoolCore _aaveLpcoreAddress,\n        IRealitio _realitioAddress\n    ) public {\n        // Externals\n        dai = _daiAddress;\n        aToken = _aTokenAddress;\n        aaveLendingPool = _aaveLpAddress;\n        aaveLendingPoolCore = _aaveLpcoreAddress;\n        realitio = _realitioAddress;\n    }\n\n    function createMarket(\n        uint _marketOpeningTime,\n        uint32 _marketResolutionTime,\n        address _arbitrator,\n        string memory _eventName,\n        string memory _eventOutcome1,\n        string memory _eventOutcome2,\n        string memory _eventCategory\n    )\n        public\n        onlyOwner\n        whenNotPaused\n        returns (MarketPot)\n    {\n        MarketPot newContract = new MarketPot({\n            _daiAddress: dai,\n            _aTokenAddress: aToken, \n            _aaveLpAddress: aaveLendingPool, \n            _aaveLpcoreAddress: aaveLendingPoolCore, \n            _realitioAddress: realitio, \n            _marketOpeningTime: _marketOpeningTime,\n            _marketResolutionTime: _marketResolutionTime,\n            _arbitrator: _arbitrator,\n            _eventName: _eventName,\n            _owner: msg.sender});\n\n        address newAddress = address(newContract);\n        marketPots.push(newAddress);\n        mappingOfMarketPots[newAddress] = true;\n        emit MarketPotCreated(address(newAddress));\n        return newContract;\n    }\n\n    function getMarketPots() public view returns (address[] memory) {\n        return marketPots;\n    }\n\n    function destroy() public onlyOwner whenPaused {\n        selfdestruct(msg.sender);\n    }\n\n    function disableMarketPot(address payable potAddress)\n        public\n        onlyOwner\n        createdByThisFactory(potAddress)\n        returns (bool)\n    {\n        return MarketPot(potAddress).disableContract();\n    }\n}\n",
  "sourcePath": "/Users/mcplums/Repos/BetTogether/contracts/MarketPotFactory.sol",
  "compiler": {
    "name": "solc",
    "version": "0.6.6+commit.6c089d02.Emscripten.clang"
  },
  "schemaVersion": "3.1.0",
  "updatedAt": "2020-05-04T14:49:39.648Z",
  "devdoc": {
    "methods": {
      "owner()": {
        "details": "Returns the address of the current owner."
      },
      "paused()": {
        "details": "Returns true if the contract is paused, and false otherwise."
      },
      "renounceOwnership()": {
        "details": "Leaves the contract without owner. It will not be possible to call `onlyOwner` functions anymore. Can only be called by the current owner.     * NOTE: Renouncing ownership will leave the contract without an owner, thereby removing any functionality that is only available to the owner."
      },
      "transferOwnership(address)": {
        "details": "Transfers ownership of the contract to a new account (`newOwner`). Can only be called by the current owner."
      }
    }
  },
  "userdoc": {
    "methods": {}
  }
}