{
  "contractName": "MarketPot",
  "abi": [
    {
      "inputs": [
        {
          "internalType": "contract Dai",
          "name": "_daiAddress",
          "type": "address"
        },
        {
          "internalType": "contract IaToken",
          "name": "_aTokenAddress",
          "type": "address"
        },
        {
          "internalType": "contract IAaveLendingPool",
          "name": "_aaveLpAddress",
          "type": "address"
        },
        {
          "internalType": "contract IAaveLendingPoolCore",
          "name": "_aaveLpcoreAddress",
          "type": "address"
        },
        {
          "internalType": "contract IRealitio",
          "name": "_realitioAddress",
          "type": "address"
        },
        {
          "internalType": "uint256",
          "name": "_marketOpeningTime",
          "type": "uint256"
        },
        {
          "internalType": "uint32",
          "name": "_marketResolutionTime",
          "type": "uint32"
        },
        {
          "internalType": "address",
          "name": "_owner",
          "type": "address"
        }
      ],
      "stateMutability": "nonpayable",
      "type": "constructor"
    },
    {
      "anonymous": false,
      "inputs": [
        {
          "indexed": true,
          "internalType": "address",
          "name": "owner",
          "type": "address"
        },
        {
          "indexed": true,
          "internalType": "address",
          "name": "spender",
          "type": "address"
        },
        {
          "indexed": false,
          "internalType": "uint256",
          "name": "value",
          "type": "uint256"
        }
      ],
      "name": "Approval",
      "type": "event"
    },
    {
      "anonymous": false,
      "inputs": [
        {
          "indexed": true,
          "internalType": "address",
          "name": "previousOwner",
          "type": "address"
        },
        {
          "indexed": true,
          "internalType": "address",
          "name": "newOwner",
          "type": "address"
        }
      ],
      "name": "OwnershipTransferred",
      "type": "event"
    },
    {
      "anonymous": false,
      "inputs": [
        {
          "indexed": true,
          "internalType": "address",
          "name": "participant",
          "type": "address"
        }
      ],
      "name": "ParticipantEntered",
      "type": "event"
    },
    {
      "anonymous": false,
      "inputs": [
        {
          "indexed": false,
          "internalType": "address",
          "name": "account",
          "type": "address"
        }
      ],
      "name": "Paused",
      "type": "event"
    },
    {
      "anonymous": false,
      "inputs": [
        {
          "indexed": false,
          "internalType": "enum MarketPot.States",
          "name": "state",
          "type": "uint8"
        }
      ],
      "name": "StateChanged",
      "type": "event"
    },
    {
      "anonymous": false,
      "inputs": [
        {
          "indexed": true,
          "internalType": "address",
          "name": "from",
          "type": "address"
        },
        {
          "indexed": true,
          "internalType": "address",
          "name": "to",
          "type": "address"
        },
        {
          "indexed": false,
          "internalType": "uint256",
          "name": "value",
          "type": "uint256"
        }
      ],
      "name": "Transfer",
      "type": "event"
    },
    {
      "anonymous": false,
      "inputs": [
        {
          "indexed": false,
          "internalType": "address",
          "name": "account",
          "type": "address"
        }
      ],
      "name": "Unpaused",
      "type": "event"
    },
    {
      "anonymous": false,
      "inputs": [
        {
          "indexed": true,
          "internalType": "address",
          "name": "winner",
          "type": "address"
        }
      ],
      "name": "WinnerSelected",
      "type": "event"
    },
    {
      "stateMutability": "payable",
      "type": "fallback"
    },
    {
      "inputs": [],
      "name": "a",
      "outputs": [
        {
          "internalType": "uint256",
          "name": "",
          "type": "uint256"
        }
      ],
      "stateMutability": "view",
      "type": "function"
    },
    {
      "inputs": [],
      "name": "aToken",
      "outputs": [
        {
          "internalType": "contract IaToken",
          "name": "",
          "type": "address"
        }
      ],
      "stateMutability": "view",
      "type": "function"
    },
    {
      "inputs": [],
      "name": "aaveLendingPool",
      "outputs": [
        {
          "internalType": "contract IAaveLendingPool",
          "name": "",
          "type": "address"
        }
      ],
      "stateMutability": "view",
      "type": "function"
    },
    {
      "inputs": [],
      "name": "aaveLendingPoolCore",
      "outputs": [
        {
          "internalType": "contract IAaveLendingPoolCore",
          "name": "",
          "type": "address"
        }
      ],
      "stateMutability": "view",
      "type": "function"
    },
    {
      "inputs": [
        {
          "internalType": "address",
          "name": "owner",
          "type": "address"
        },
        {
          "internalType": "address",
          "name": "spender",
          "type": "address"
        }
      ],
      "name": "allowance",
      "outputs": [
        {
          "internalType": "uint256",
          "name": "",
          "type": "uint256"
        }
      ],
      "stateMutability": "view",
      "type": "function"
    },
    {
      "inputs": [
        {
          "internalType": "address",
          "name": "spender",
          "type": "address"
        },
        {
          "internalType": "uint256",
          "name": "amount",
          "type": "uint256"
        }
      ],
      "name": "approve",
      "outputs": [
        {
          "internalType": "bool",
          "name": "",
          "type": "bool"
        }
      ],
      "stateMutability": "nonpayable",
      "type": "function"
    },
    {
      "inputs": [
        {
          "internalType": "address",
          "name": "account",
          "type": "address"
        }
      ],
      "name": "balanceOf",
      "outputs": [
        {
          "internalType": "uint256",
          "name": "",
          "type": "uint256"
        }
      ],
      "stateMutability": "view",
      "type": "function"
    },
    {
      "inputs": [],
      "name": "creationTime",
      "outputs": [
        {
          "internalType": "uint256",
          "name": "",
          "type": "uint256"
        }
      ],
      "stateMutability": "view",
      "type": "function"
    },
    {
      "inputs": [],
      "name": "dai",
      "outputs": [
        {
          "internalType": "contract Dai",
          "name": "",
          "type": "address"
        }
      ],
      "stateMutability": "view",
      "type": "function"
    },
    {
      "inputs": [],
      "name": "decimals",
      "outputs": [
        {
          "internalType": "uint8",
          "name": "",
          "type": "uint8"
        }
      ],
      "stateMutability": "view",
      "type": "function"
    },
    {
      "inputs": [
        {
          "internalType": "address",
          "name": "spender",
          "type": "address"
        },
        {
          "internalType": "uint256",
          "name": "subtractedValue",
          "type": "uint256"
        }
      ],
      "name": "decreaseAllowance",
      "outputs": [
        {
          "internalType": "bool",
          "name": "",
          "type": "bool"
        }
      ],
      "stateMutability": "nonpayable",
      "type": "function"
    },
    {
      "inputs": [
        {
          "internalType": "address",
          "name": "spender",
          "type": "address"
        },
        {
          "internalType": "uint256",
          "name": "addedValue",
          "type": "uint256"
        }
      ],
      "name": "increaseAllowance",
      "outputs": [
        {
          "internalType": "bool",
          "name": "",
          "type": "bool"
        }
      ],
      "stateMutability": "nonpayable",
      "type": "function"
    },
    {
      "inputs": [],
      "name": "marketLockingTime",
      "outputs": [
        {
          "internalType": "uint256",
          "name": "",
          "type": "uint256"
        }
      ],
      "stateMutability": "view",
      "type": "function"
    },
    {
      "inputs": [],
      "name": "marketOpeningTime",
      "outputs": [
        {
          "internalType": "uint256",
          "name": "",
          "type": "uint256"
        }
      ],
      "stateMutability": "view",
      "type": "function"
    },
    {
      "inputs": [],
      "name": "marketPotBalance",
      "outputs": [
        {
          "internalType": "uint256",
          "name": "",
          "type": "uint256"
        }
      ],
      "stateMutability": "view",
      "type": "function"
    },
    {
      "inputs": [],
      "name": "marketResolutionTime",
      "outputs": [
        {
          "internalType": "uint32",
          "name": "",
          "type": "uint32"
        }
      ],
      "stateMutability": "view",
      "type": "function"
    },
    {
      "inputs": [],
      "name": "name",
      "outputs": [
        {
          "internalType": "string",
          "name": "",
          "type": "string"
        }
      ],
      "stateMutability": "view",
      "type": "function"
    },
    {
      "inputs": [],
      "name": "owner",
      "outputs": [
        {
          "internalType": "address",
          "name": "",
          "type": "address"
        }
      ],
      "stateMutability": "view",
      "type": "function"
    },
    {
      "inputs": [
        {
          "internalType": "address",
          "name": "",
          "type": "address"
        }
      ],
      "name": "participantBalance",
      "outputs": [
        {
          "internalType": "uint256",
          "name": "",
          "type": "uint256"
        }
      ],
      "stateMutability": "view",
      "type": "function"
    },
    {
      "inputs": [
        {
          "internalType": "uint256",
          "name": "",
          "type": "uint256"
        }
      ],
      "name": "participants",
      "outputs": [
        {
          "internalType": "address",
          "name": "",
          "type": "address"
        }
      ],
      "stateMutability": "view",
      "type": "function"
    },
    {
      "inputs": [],
      "name": "paused",
      "outputs": [
        {
          "internalType": "bool",
          "name": "",
          "type": "bool"
        }
      ],
      "stateMutability": "view",
      "type": "function"
    },
    {
      "inputs": [],
      "name": "questionId",
      "outputs": [
        {
          "internalType": "bytes32",
          "name": "",
          "type": "bytes32"
        }
      ],
      "stateMutability": "view",
      "type": "function"
    },
    {
      "inputs": [],
      "name": "realitio",
      "outputs": [
        {
          "internalType": "contract IRealitio",
          "name": "",
          "type": "address"
        }
      ],
      "stateMutability": "view",
      "type": "function"
    },
    {
      "inputs": [],
      "name": "renounceOwnership",
      "outputs": [],
      "stateMutability": "nonpayable",
      "type": "function"
    },
    {
      "inputs": [],
      "name": "state",
      "outputs": [
        {
          "internalType": "enum MarketPot.States",
          "name": "",
          "type": "uint8"
        }
      ],
      "stateMutability": "view",
      "type": "function"
    },
    {
      "inputs": [],
      "name": "symbol",
      "outputs": [
        {
          "internalType": "string",
          "name": "",
          "type": "string"
        }
      ],
      "stateMutability": "view",
      "type": "function"
    },
    {
      "inputs": [],
      "name": "totalSupply",
      "outputs": [
        {
          "internalType": "uint256",
          "name": "",
          "type": "uint256"
        }
      ],
      "stateMutability": "view",
      "type": "function"
    },
    {
      "inputs": [
        {
          "internalType": "address",
          "name": "recipient",
          "type": "address"
        },
        {
          "internalType": "uint256",
          "name": "amount",
          "type": "uint256"
        }
      ],
      "name": "transfer",
      "outputs": [
        {
          "internalType": "bool",
          "name": "",
          "type": "bool"
        }
      ],
      "stateMutability": "nonpayable",
      "type": "function"
    },
    {
      "inputs": [
        {
          "internalType": "address",
          "name": "sender",
          "type": "address"
        },
        {
          "internalType": "address",
          "name": "recipient",
          "type": "address"
        },
        {
          "internalType": "uint256",
          "name": "amount",
          "type": "uint256"
        }
      ],
      "name": "transferFrom",
      "outputs": [
        {
          "internalType": "bool",
          "name": "",
          "type": "bool"
        }
      ],
      "stateMutability": "nonpayable",
      "type": "function"
    },
    {
      "inputs": [
        {
          "internalType": "address",
          "name": "newOwner",
          "type": "address"
        }
      ],
      "name": "transferOwnership",
      "outputs": [],
      "stateMutability": "nonpayable",
      "type": "function"
    },
    {
      "stateMutability": "payable",
      "type": "receive"
    },
    {
      "inputs": [
        {
          "internalType": "uint256",
          "name": "newA",
          "type": "uint256"
        }
      ],
      "name": "testFunction",
      "outputs": [],
      "stateMutability": "nonpayable",
      "type": "function"
    },
    {
      "inputs": [
        {
          "internalType": "uint256",
          "name": "daiAmount",
          "type": "uint256"
        }
      ],
      "name": "placeBet",
      "outputs": [],
      "stateMutability": "nonpayable",
      "type": "function"
    },
    {
      "inputs": [],
      "name": "getMarketSize",
      "outputs": [
        {
          "internalType": "uint256",
          "name": "",
          "type": "uint256"
        }
      ],
      "stateMutability": "view",
      "type": "function"
    },
    {
      "inputs": [],
      "name": "disableContract",
      "outputs": [
        {
          "internalType": "bool",
          "name": "",
          "type": "bool"
        }
      ],
      "stateMutability": "nonpayable",
      "type": "function"
    }
  ],
  "bytecode": "0x60806040523480156200001157600080fd5b5060405162002cd438038062002cd483398181016040526101008110156200003857600080fd5b8101908080519060200190929190805190602001909291908051906020019092919080519060200190929190805190602001909291908051906020019092919080519060200190929190805190602001909291905050506040518060400160405280600b81526020017f426574546f6765746865720000000000000000000000000000000000000000008152506040518060400160405280600281526020017f4254000000000000000000000000000000000000000000000000000000000000815250816003908051906020019062000113929190620008ed565b5080600490805190602001906200012c929190620008ed565b506012600560006101000a81548160ff021916908360ff160217905550505060006200015d620004ac60201b60201c565b905080600560016101000a81548173ffffffffffffffffffffffffffffffffffffffff021916908373ffffffffffffffffffffffffffffffffffffffff1602179055508073ffffffffffffffffffffffffffffffffffffffff16600073ffffffffffffffffffffffffffffffffffffffff167f8be0079c531659141344cd1fd0a4f28419497f9722a3daafe3b4186f6b6457e060405160405180910390a3506000600560156101000a81548160ff0219169083151502179055506001600560166101000a81548160ff0219169083151502179055503373ffffffffffffffffffffffffffffffffffffffff168173ffffffffffffffffffffffffffffffffffffffff161462000278576200027781620004b460201b60201c565b5b6000600a60006101000a81548160ff021916908360028111156200029857fe5b021790555087600c60006101000a81548173ffffffffffffffffffffffffffffffffffffffff021916908373ffffffffffffffffffffffffffffffffffffffff16021790555086600d60006101000a81548173ffffffffffffffffffffffffffffffffffffffff021916908373ffffffffffffffffffffffffffffffffffffffff16021790555085600e60006101000a81548173ffffffffffffffffffffffffffffffffffffffff021916908373ffffffffffffffffffffffffffffffffffffffff16021790555084600f60006101000a81548173ffffffffffffffffffffffffffffffffffffffff021916908373ffffffffffffffffffffffffffffffffffffffff16021790555083601060006101000a81548173ffffffffffffffffffffffffffffffffffffffff021916908373ffffffffffffffffffffffffffffffffffffffff160217905550826011819055506200040662093a8084620006cf60201b62001c091790919060201c565b60128190555081601360006101000a81548163ffffffff021916908363ffffffff16021790555060006002905060606040518060800160405280605e815260200162002c76605e91399050600073a6ead513d05347138184324392d8ceb24c1161189050600062015180905060008690506000809050620004928686868686866200075860201b60201c565b60148190555050505050505050505050505050506200099c565b600033905090565b620004c4620004ac60201b60201c565b73ffffffffffffffffffffffffffffffffffffffff16600560019054906101000a900473ffffffffffffffffffffffffffffffffffffffff1673ffffffffffffffffffffffffffffffffffffffff161462000587576040517f08c379a00000000000000000000000000000000000000000000000000000000081526004018080602001828103825260208152602001807f4f776e61626c653a2063616c6c6572206973206e6f7420746865206f776e657281525060200191505060405180910390fd5b600073ffffffffffffffffffffffffffffffffffffffff168173ffffffffffffffffffffffffffffffffffffffff1614156200060f576040517f08c379a000000000000000000000000000000000000000000000000000000000815260040180806020018281038252602681526020018062002c506026913960400191505060405180910390fd5b8073ffffffffffffffffffffffffffffffffffffffff16600560019054906101000a900473ffffffffffffffffffffffffffffffffffffffff1673ffffffffffffffffffffffffffffffffffffffff167f8be0079c531659141344cd1fd0a4f28419497f9722a3daafe3b4186f6b6457e060405160405180910390a380600560016101000a81548173ffffffffffffffffffffffffffffffffffffffff021916908373ffffffffffffffffffffffffffffffffffffffff16021790555050565b6000808284019050838110156200074e576040517f08c379a000000000000000000000000000000000000000000000000000000000815260040180806020018281038252601b8152602001807f536166654d6174683a206164646974696f6e206f766572666c6f77000000000081525060200191505060405180910390fd5b8091505092915050565b6000601060009054906101000a900473ffffffffffffffffffffffffffffffffffffffff1673ffffffffffffffffffffffffffffffffffffffff1663762c38fd8888888888886040518763ffffffff1660e01b815260040180878152602001806020018673ffffffffffffffffffffffffffffffffffffffff1673ffffffffffffffffffffffffffffffffffffffff1681526020018563ffffffff1663ffffffff1681526020018463ffffffff1663ffffffff168152602001838152602001828103825287818151815260200191508051906020019080838360005b838110156200085157808201518184015260208101905062000834565b50505050905090810190601f1680156200087f5780820380516001836020036101000a031916815260200191505b50975050505050505050602060405180830381600087803b158015620008a457600080fd5b505af1158015620008b9573d6000803e3d6000fd5b505050506040513d6020811015620008d057600080fd5b810190808051906020019092919050505090509695505050505050565b828054600181600116156101000203166002900490600052602060002090601f016020900481019282601f106200093057805160ff191683800117855562000961565b8280016001018555821562000961579182015b828111156200096057825182559160200191906001019062000943565b5b50905062000970919062000974565b5090565b6200099991905b80821115620009955760008160009055506001016200097b565b5090565b90565b6122a480620009ac6000396000f3fe6080604052600436106101fd5760003560e01c8063715018a61161010d578063b06a5c52116100a0578063dd62ed3e1161006f578063dd62ed3e14610adf578063e9d337b814610b64578063f2fde38b14610bbb578063f4b9fa7514610c0c578063fd27b51e14610c6357610204565b8063b06a5c52146109f9578063bc8802a214610a24578063c19d93fb14610a7b578063d8270dce14610ab457610204565b806395d89b41116100dc57806395d89b411461082c578063a0c1f15e146108bc578063a457c2d714610913578063a9059cbb1461098657610204565b8063715018a61461072a578063826c69b814610741578063894ba833146107a65780638da5cb5b146107d557610204565b8063350c530b116101905780634b8755ca1161015f5780634b8755ca146106155780634ecc79f7146106405780635c975abb1461066b5780635f213fb81461069a57806370a08231146106c557610204565b8063350c530b1461049557806335c1d349146104d0578063395093511461054b5780633ca55833146105be57610204565b806318160ddd116101cc57806318160ddd1461036f578063232ea3ad1461039a57806323b872dd146103d1578063313ce5671461046457610204565b806306fdde0314610206578063095ea7b3146102965780630dbe671f1461030957806310fe7c481461033457610204565b3661020457005b005b34801561021257600080fd5b5061021b610c8e565b6040518080602001828103825283818151815260200191508051906020019080838360005b8381101561025b578082015181840152602081019050610240565b50505050905090810190601f1680156102885780820380516001836020036101000a031916815260200191505b509250505060405180910390f35b3480156102a257600080fd5b506102ef600480360360408110156102b957600080fd5b81019080803573ffffffffffffffffffffffffffffffffffffffff16906020019092919080359060200190929190505050610d30565b604051808215151515815260200191505060405180910390f35b34801561031557600080fd5b5061031e610d4e565b6040518082815260200191505060405180910390f35b34801561034057600080fd5b5061036d6004803603602081101561035757600080fd5b8101908080359060200190929190505050610d54565b005b34801561037b57600080fd5b50610384610fde565b6040518082815260200191505060405180910390f35b3480156103a657600080fd5b506103af610fe8565b604051808263ffffffff1663ffffffff16815260200191505060405180910390f35b3480156103dd57600080fd5b5061044a600480360360608110156103f457600080fd5b81019080803573ffffffffffffffffffffffffffffffffffffffff169060200190929190803573ffffffffffffffffffffffffffffffffffffffff16906020019092919080359060200190929190505050610ffe565b604051808215151515815260200191505060405180910390f35b34801561047057600080fd5b506104796110d7565b604051808260ff1660ff16815260200191505060405180910390f35b3480156104a157600080fd5b506104ce600480360360208110156104b857600080fd5b81019080803590602001909291905050506110ee565b005b3480156104dc57600080fd5b50610509600480360360208110156104f357600080fd5b81019080803590602001909291905050506110f8565b604051808273ffffffffffffffffffffffffffffffffffffffff1673ffffffffffffffffffffffffffffffffffffffff16815260200191505060405180910390f35b34801561055757600080fd5b506105a46004803603604081101561056e57600080fd5b81019080803573ffffffffffffffffffffffffffffffffffffffff16906020019092919080359060200190929190505050611134565b604051808215151515815260200191505060405180910390f35b3480156105ca57600080fd5b506105d36111e7565b604051808273ffffffffffffffffffffffffffffffffffffffff1673ffffffffffffffffffffffffffffffffffffffff16815260200191505060405180910390f35b34801561062157600080fd5b5061062a61120d565b6040518082815260200191505060405180910390f35b34801561064c57600080fd5b50610655611213565b6040518082815260200191505060405180910390f35b34801561067757600080fd5b50610680611219565b604051808215151515815260200191505060405180910390f35b3480156106a657600080fd5b506106af611230565b6040518082815260200191505060405180910390f35b3480156106d157600080fd5b50610714600480360360208110156106e857600080fd5b81019080803573ffffffffffffffffffffffffffffffffffffffff169060200190929190505050611236565b6040518082815260200191505060405180910390f35b34801561073657600080fd5b5061073f61127e565b005b34801561074d57600080fd5b506107906004803603602081101561076457600080fd5b81019080803573ffffffffffffffffffffffffffffffffffffffff169060200190929190505050611409565b6040518082815260200191505060405180910390f35b3480156107b257600080fd5b506107bb611421565b604051808215151515815260200191505060405180910390f35b3480156107e157600080fd5b506107ea6114f8565b604051808273ffffffffffffffffffffffffffffffffffffffff1673ffffffffffffffffffffffffffffffffffffffff16815260200191505060405180910390f35b34801561083857600080fd5b50610841611522565b6040518080602001828103825283818151815260200191508051906020019080838360005b83811015610881578082015181840152602081019050610866565b50505050905090810190601f1680156108ae5780820380516001836020036101000a031916815260200191505b509250505060405180910390f35b3480156108c857600080fd5b506108d16115c4565b604051808273ffffffffffffffffffffffffffffffffffffffff1673ffffffffffffffffffffffffffffffffffffffff16815260200191505060405180910390f35b34801561091f57600080fd5b5061096c6004803603604081101561093657600080fd5b81019080803573ffffffffffffffffffffffffffffffffffffffff169060200190929190803590602001909291905050506115ea565b604051808215151515815260200191505060405180910390f35b34801561099257600080fd5b506109df600480360360408110156109a957600080fd5b81019080803573ffffffffffffffffffffffffffffffffffffffff169060200190929190803590602001909291905050506116b7565b604051808215151515815260200191505060405180910390f35b348015610a0557600080fd5b50610a0e6116d5565b6040518082815260200191505060405180910390f35b348015610a3057600080fd5b50610a396116db565b604051808273ffffffffffffffffffffffffffffffffffffffff1673ffffffffffffffffffffffffffffffffffffffff16815260200191505060405180910390f35b348015610a8757600080fd5b50610a90611701565b60405180826002811115610aa057fe5b60ff16815260200191505060405180910390f35b348015610ac057600080fd5b50610ac9611714565b6040518082815260200191505060405180910390f35b348015610aeb57600080fd5b50610b4e60048036036040811015610b0257600080fd5b81019080803573ffffffffffffffffffffffffffffffffffffffff169060200190929190803573ffffffffffffffffffffffffffffffffffffffff16906020019092919050505061171a565b6040518082815260200191505060405180910390f35b348015610b7057600080fd5b50610b796117a1565b604051808273ffffffffffffffffffffffffffffffffffffffff1673ffffffffffffffffffffffffffffffffffffffff16815260200191505060405180910390f35b348015610bc757600080fd5b50610c0a60048036036020811015610bde57600080fd5b81019080803573ffffffffffffffffffffffffffffffffffffffff1690602001909291905050506117c7565b005b348015610c1857600080fd5b50610c216119d7565b604051808273ffffffffffffffffffffffffffffffffffffffff1673ffffffffffffffffffffffffffffffffffffffff16815260200191505060405180910390f35b348015610c6f57600080fd5b50610c786119fd565b6040518082815260200191505060405180910390f35b606060038054600181600116156101000203166002900480601f016020809104026020016040519081016040528092919081815260200182805460018160011615610100020316600290048015610d265780601f10610cfb57610100808354040283529160200191610d26565b820191906000526020600020905b815481529060010190602001808311610d0957829003601f168201915b5050505050905090565b6000610d44610d3d611a0a565b8484611a12565b6001905092915050565b600b5481565b6000806002811115610d6257fe5b600a60009054906101000a900460ff166002811115610d7d57fe5b14610dd3576040517f08c379a00000000000000000000000000000000000000000000000000000000081526004018080602001828103825260268152602001806121db6026913960400191505060405180910390fd5b600560159054906101000a900460ff1615610e56576040517f08c379a00000000000000000000000000000000000000000000000000000000081526004018080602001828103825260108152602001807f5061757361626c653a207061757365640000000000000000000000000000000081525060200191505060405180910390fd5b6000600960003373ffffffffffffffffffffffffffffffffffffffff1673ffffffffffffffffffffffffffffffffffffffff168152602001908152602001600020541415610f02576008339080600181540180825580915050600190039060005260206000200160009091909190916101000a81548173ffffffffffffffffffffffffffffffffffffffff021916908373ffffffffffffffffffffffffffffffffffffffff1602179055505b3373ffffffffffffffffffffffffffffffffffffffff167fef3b3ae531a4f494c95e537ec1fe385cfe5c1146cb4c1d850b24bad38595804960405160405180910390a2610f9782600960003373ffffffffffffffffffffffffffffffffffffffff1673ffffffffffffffffffffffffffffffffffffffff16815260200190815260200160002054611c0990919063ffffffff16565b600960003373ffffffffffffffffffffffffffffffffffffffff1673ffffffffffffffffffffffffffffffffffffffff168152602001908152602001600020819055505050565b6000600254905090565b601360009054906101000a900463ffffffff1681565b600061100b848484611c91565b6110cc84611017611a0a565b6110c7856040518060600160405280602881526020016121b360289139600160008b73ffffffffffffffffffffffffffffffffffffffff1673ffffffffffffffffffffffffffffffffffffffff168152602001908152602001600020600061107d611a0a565b73ffffffffffffffffffffffffffffffffffffffff1673ffffffffffffffffffffffffffffffffffffffff16815260200190815260200160002054611f529092919063ffffffff16565b611a12565b600190509392505050565b6000600560009054906101000a900460ff16905090565b80600b8190555050565b6008818154811061110557fe5b906000526020600020016000915054906101000a900473ffffffffffffffffffffffffffffffffffffffff1681565b60006111dd611141611a0a565b846111d88560016000611152611a0a565b73ffffffffffffffffffffffffffffffffffffffff1673ffffffffffffffffffffffffffffffffffffffff16815260200190815260200160002060008973ffffffffffffffffffffffffffffffffffffffff1673ffffffffffffffffffffffffffffffffffffffff16815260200190815260200160002054611c0990919063ffffffff16565b611a12565b6001905092915050565b600f60009054906101000a900473ffffffffffffffffffffffffffffffffffffffff1681565b60125481565b60115481565b6000600560159054906101000a900460ff16905090565b60075481565b60008060008373ffffffffffffffffffffffffffffffffffffffff1673ffffffffffffffffffffffffffffffffffffffff168152602001908152602001600020549050919050565b611286611a0a565b73ffffffffffffffffffffffffffffffffffffffff16600560019054906101000a900473ffffffffffffffffffffffffffffffffffffffff1673ffffffffffffffffffffffffffffffffffffffff1614611348576040517f08c379a00000000000000000000000000000000000000000000000000000000081526004018080602001828103825260208152602001807f4f776e61626c653a2063616c6c6572206973206e6f7420746865206f776e657281525060200191505060405180910390fd5b600073ffffffffffffffffffffffffffffffffffffffff16600560019054906101000a900473ffffffffffffffffffffffffffffffffffffffff1673ffffffffffffffffffffffffffffffffffffffff167f8be0079c531659141344cd1fd0a4f28419497f9722a3daafe3b4186f6b6457e060405160405180910390a36000600560016101000a81548173ffffffffffffffffffffffffffffffffffffffff021916908373ffffffffffffffffffffffffffffffffffffffff160217905550565b60096020528060005260406000206000915090505481565b600061142b611a0a565b73ffffffffffffffffffffffffffffffffffffffff16600560019054906101000a900473ffffffffffffffffffffffffffffffffffffffff1673ffffffffffffffffffffffffffffffffffffffff16146114ed576040517f08c379a00000000000000000000000000000000000000000000000000000000081526004018080602001828103825260208152602001807f4f776e61626c653a2063616c6c6572206973206e6f7420746865206f776e657281525060200191505060405180910390fd5b6114f5612012565b90565b6000600560019054906101000a900473ffffffffffffffffffffffffffffffffffffffff16905090565b606060048054600181600116156101000203166002900480601f0160208091040260200160405190810160405280929190818152602001828054600181600116156101000203166002900480156115ba5780601f1061158f576101008083540402835291602001916115ba565b820191906000526020600020905b81548152906001019060200180831161159d57829003601f168201915b5050505050905090565b600d60009054906101000a900473ffffffffffffffffffffffffffffffffffffffff1681565b60006116ad6115f7611a0a565b846116a88560405180606001604052806025815260200161224a6025913960016000611621611a0a565b73ffffffffffffffffffffffffffffffffffffffff1673ffffffffffffffffffffffffffffffffffffffff16815260200190815260200160002060008a73ffffffffffffffffffffffffffffffffffffffff1673ffffffffffffffffffffffffffffffffffffffff16815260200190815260200160002054611f529092919063ffffffff16565b611a12565b6001905092915050565b60006116cb6116c4611a0a565b8484611c91565b6001905092915050565b60145481565b601060009054906101000a900473ffffffffffffffffffffffffffffffffffffffff1681565b600a60009054906101000a900460ff1681565b60065481565b6000600160008473ffffffffffffffffffffffffffffffffffffffff1673ffffffffffffffffffffffffffffffffffffffff16815260200190815260200160002060008373ffffffffffffffffffffffffffffffffffffffff1673ffffffffffffffffffffffffffffffffffffffff16815260200190815260200160002054905092915050565b600e60009054906101000a900473ffffffffffffffffffffffffffffffffffffffff1681565b6117cf611a0a565b73ffffffffffffffffffffffffffffffffffffffff16600560019054906101000a900473ffffffffffffffffffffffffffffffffffffffff1673ffffffffffffffffffffffffffffffffffffffff1614611891576040517f08c379a00000000000000000000000000000000000000000000000000000000081526004018080602001828103825260208152602001807f4f776e61626c653a2063616c6c6572206973206e6f7420746865206f776e657281525060200191505060405180910390fd5b600073ffffffffffffffffffffffffffffffffffffffff168173ffffffffffffffffffffffffffffffffffffffff161415611917576040517f08c379a00000000000000000000000000000000000000000000000000000000081526004018080602001828103825260268152602001806121456026913960400191505060405180910390fd5b8073ffffffffffffffffffffffffffffffffffffffff16600560019054906101000a900473ffffffffffffffffffffffffffffffffffffffff1673ffffffffffffffffffffffffffffffffffffffff167f8be0079c531659141344cd1fd0a4f28419497f9722a3daafe3b4186f6b6457e060405160405180910390a380600560016101000a81548173ffffffffffffffffffffffffffffffffffffffff021916908373ffffffffffffffffffffffffffffffffffffffff16021790555050565b600c60009054906101000a900473ffffffffffffffffffffffffffffffffffffffff1681565b6000600880549050905090565b600033905090565b600073ffffffffffffffffffffffffffffffffffffffff168373ffffffffffffffffffffffffffffffffffffffff161415611a98576040517f08c379a00000000000000000000000000000000000000000000000000000000081526004018080602001828103825260248152602001806122266024913960400191505060405180910390fd5b600073ffffffffffffffffffffffffffffffffffffffff168273ffffffffffffffffffffffffffffffffffffffff161415611b1e576040517f08c379a000000000000000000000000000000000000000000000000000000000815260040180806020018281038252602281526020018061216b6022913960400191505060405180910390fd5b80600160008573ffffffffffffffffffffffffffffffffffffffff1673ffffffffffffffffffffffffffffffffffffffff16815260200190815260200160002060008473ffffffffffffffffffffffffffffffffffffffff1673ffffffffffffffffffffffffffffffffffffffff168152602001908152602001600020819055508173ffffffffffffffffffffffffffffffffffffffff168373ffffffffffffffffffffffffffffffffffffffff167f8c5be1e5ebec7d5bd14f71427d1e84f3dd0314c0f7b2291e5b200ac8c7c3b925836040518082815260200191505060405180910390a3505050565b600080828401905083811015611c87576040517f08c379a000000000000000000000000000000000000000000000000000000000815260040180806020018281038252601b8152602001807f536166654d6174683a206164646974696f6e206f766572666c6f77000000000081525060200191505060405180910390fd5b8091505092915050565b600073ffffffffffffffffffffffffffffffffffffffff168373ffffffffffffffffffffffffffffffffffffffff161415611d17576040517f08c379a00000000000000000000000000000000000000000000000000000000081526004018080602001828103825260258152602001806122016025913960400191505060405180910390fd5b600073ffffffffffffffffffffffffffffffffffffffff168273ffffffffffffffffffffffffffffffffffffffff161415611d9d576040517f08c379a00000000000000000000000000000000000000000000000000000000081526004018080602001828103825260238152602001806121226023913960400191505060405180910390fd5b611da883838361211c565b611e138160405180606001604052806026815260200161218d602691396000808773ffffffffffffffffffffffffffffffffffffffff1673ffffffffffffffffffffffffffffffffffffffff16815260200190815260200160002054611f529092919063ffffffff16565b6000808573ffffffffffffffffffffffffffffffffffffffff1673ffffffffffffffffffffffffffffffffffffffff16815260200190815260200160002081905550611ea6816000808573ffffffffffffffffffffffffffffffffffffffff1673ffffffffffffffffffffffffffffffffffffffff16815260200190815260200160002054611c0990919063ffffffff16565b6000808473ffffffffffffffffffffffffffffffffffffffff1673ffffffffffffffffffffffffffffffffffffffff168152602001908152602001600020819055508173ffffffffffffffffffffffffffffffffffffffff168373ffffffffffffffffffffffffffffffffffffffff167fddf252ad1be2c89b69c2b068fc378daa952ba7f163c4a11628f55a4df523b3ef836040518082815260200191505060405180910390a3505050565b6000838311158290611fff576040517f08c379a00000000000000000000000000000000000000000000000000000000081526004018080602001828103825283818151815260200191508051906020019080838360005b83811015611fc4578082015181840152602081019050611fa9565b50505050905090810190601f168015611ff15780820380516001836020036101000a031916815260200191505b509250505060405180910390fd5b5060008385039050809150509392505050565b600560159054906101000a900460ff1615612095576040517f08c379a00000000000000000000000000000000000000000000000000000000081526004018080602001828103825260108152602001807f5061757361626c653a207061757365640000000000000000000000000000000081525060200191505060405180910390fd5b6001600560156101000a81548160ff0219169083151502179055507f62e78cea01bee320cd4e420270b5ea74000d11b0c9f74754ebdbfc544b05a2586120d9611a0a565b604051808273ffffffffffffffffffffffffffffffffffffffff1673ffffffffffffffffffffffffffffffffffffffff16815260200191505060405180910390a1565b50505056fe45524332303a207472616e7366657220746f20746865207a65726f20616464726573734f776e61626c653a206e6577206f776e657220697320746865207a65726f206164647265737345524332303a20617070726f766520746f20746865207a65726f206164647265737345524332303a207472616e7366657220616d6f756e7420657863656564732062616c616e636545524332303a207472616e7366657220616d6f756e74206578636565647320616c6c6f77616e636566756e6374696f6e2063616e6e6f742062652063616c6c656420617420746869732074696d6545524332303a207472616e736665722066726f6d20746865207a65726f206164647265737345524332303a20617070726f76652066726f6d20746865207a65726f206164647265737345524332303a2064656372656173656420616c6c6f77616e63652062656c6f77207a65726fa26469706673582212205fa41be0441c3483fd9ba24e1e800f72daef4d245266a255af3cfc75d8d3685f64736f6c634300060600334f776e61626c653a206e6577206f776e657220697320746865207a65726f206164647265737357686f2077696c6c2077696e2074686520323032302055532047656e6572616c20456c656374696f6ee2909f22446f6e616c64205472756d70222c224a6f6520426964656e22e2909f6e6577732d706f6c6974696373e2909f656e5f5553",
  "immutableReferences": {},
  "source": "pragma solidity 0.6.6;\n\nimport \"@nomiclabs/buidler/console.sol\";\nimport \"@openzeppelin/contracts/token/ERC20/ERC20.sol\";\nimport \"@openzeppelin/contracts/math/SafeMath.sol\";\nimport \"@openzeppelin/contracts/utils/ReentrancyGuard.sol\";\nimport \"@openzeppelin/contracts/utils/Pausable.sol\";\nimport \"@openzeppelin/contracts/access/Ownable.sol\";\nimport \"./interfaces/IAave.sol\";\nimport \"./interfaces/IDai.sol\";\nimport \"./interfaces/IRealitio.sol\";\n\ncontract MarketPot is ERC20, Ownable, Pausable, ReentrancyGuard {\n    using SafeMath for uint256;\n\n    ////////////////////////////////////\n    //////// VARIABLES /////////////////\n    ////////////////////////////////////\n    uint256 public creationTime;\n    uint256 public marketPotBalance;\n    address[] public participants;\n    mapping(address => uint256) public participantBalance;\n    enum States {OPEN, EARNING, CLOSED}\n    States public state;\n\n    // Testing\n    uint256 public a;\n\n    // Externals\n    Dai public dai;\n    IaToken public aToken;\n    IAaveLendingPool public aaveLendingPool;\n    IAaveLendingPoolCore public aaveLendingPoolCore;\n    IRealitio public realitio;\n\n    // Market\n    uint256 public marketOpeningTime; // when the market is opened for bets\n    uint256 public marketLockingTime; // when the market is no longer open for bets\n    uint32 public marketResolutionTime; // the time the realitio market is able to be answered, uint32 cos Realitio needs it\n    bytes32 public questionId; // the question ID of the question on realitio\n\n    ////////////////////////////////////\n    //////// MODIFIERS /////////////////\n    ////////////////////////////////////\n    modifier checkState(States currentState) {\n        require(\n            state == currentState,\n            \"function cannot be called at this time\"\n        );\n        _;\n    }\n\n    ////////////////////////////////////\n    //////// EVENTS ////////////////////\n    ////////////////////////////////////\n    event ParticipantEntered(address indexed participant);\n    event StateChanged(States state);\n    event WinnerSelected(address indexed winner);\n\n    ////////////////////////////////////\n    //////// CONSTRUCTOR ///////////////\n    ////////////////////////////////////\n    constructor(\n        Dai _daiAddress,\n        IaToken _aTokenAddress,\n        IAaveLendingPool _aaveLpAddress,\n        IAaveLendingPoolCore _aaveLpcoreAddress,\n        IRealitio _realitioAddress,\n        uint256 _marketOpeningTime,\n        uint32 _marketResolutionTime,\n        address _owner\n    ) public ERC20(\"BetTogether\", \"BT\") {\n        if (_owner != msg.sender) {\n            transferOwnership(_owner);\n        }\n        state = States.OPEN;\n        // Externals\n        dai = _daiAddress;\n        aToken = _aTokenAddress;\n        aaveLendingPool = _aaveLpAddress;\n        aaveLendingPoolCore = _aaveLpcoreAddress;\n        realitio = _realitioAddress;\n\n        // Pass arguments to public variables\n        marketOpeningTime = _marketOpeningTime;\n        marketLockingTime = _marketOpeningTime.add(604800); // one week\n        marketResolutionTime = _marketResolutionTime;\n\n        // Create the question on Realitio\n        uint256 template_id = 2;\n\n\n        string memory question\n         = 'Who will win the 2020 US General Election\"Donald Trump\",\"Joe Biden\"news-politicsen_US';\n        address arbitrator = 0xA6EAd513D05347138184324392d8ceb24C116118; // placeholder, to change\n        uint32 timeout = 86400; // how long the market can be disputed on realitio after an answer has been submitted, 24 hours\n        uint32 opening_ts = _marketResolutionTime;\n        uint256 nonce = 0;\n        questionId = _postQuestion(\n            template_id,\n            question,\n            arbitrator,\n            timeout,\n            opening_ts,\n            nonce\n        );\n    }\n\n    ////////////////////////////////////\n    //////// REALIITO FUNCTIONS ////////\n    ////////////////////////////////////\n\n    /// @notice posts the question to realit.io\n    function _postQuestion(\n        uint256 template_id,\n        string memory question,\n        address arbitrator,\n        uint32 timeout,\n        uint32 opening_ts,\n        uint256 nonce\n    ) internal returns (bytes32) {\n        return\n            realitio.askQuestion(\n                template_id,\n                question,\n                arbitrator,\n                timeout,\n                opening_ts,\n                nonce\n            );\n    }\n\n    ////////////////////////////////////\n    //////// OTHER FUNCTIONS ///////////\n    ////////////////////////////////////\n\n    function testFunction(uint256 newA) public {\n        a = newA;\n    }\n\n    function placeBet(uint256 daiAmount)\n        public\n        checkState(States.OPEN)\n        whenNotPaused\n    {\n        if (participantBalance[msg.sender] == 0) participants.push(msg.sender);\n        emit ParticipantEntered(msg.sender);\n        participantBalance[msg.sender] = participantBalance[msg.sender].add(\n            daiAmount\n        );\n    }\n\n    function incrementState() private whenNotPaused onlyOwner {\n        require(uint256(state) < 2, \"state cannot be incremented\");\n        state = States(uint256(state) + 1);\n        emit StateChanged(state);\n    }\n\n    function getMarketSize() public view returns (uint256) {\n        return participants.length;\n    }\n\n    function disableContract() public onlyOwner returns (bool) {\n        _pause();\n    }\n\n    receive() external payable {}\n\n    fallback() external payable {}\n}\n",
  "sourcePath": "/Users/mcplums/Repos/BetTogether/contracts/MarketPot.sol",
  "compiler": {
    "name": "solc",
    "version": "0.6.6+commit.6c089d02.Emscripten.clang"
  },
  "schemaVersion": "3.1.0",
  "updatedAt": "2020-05-01T12:28:59.178Z",
  "devdoc": {
    "methods": {
      "allowance(address,address)": {
        "details": "See {IERC20-allowance}."
      },
      "approve(address,uint256)": {
        "details": "See {IERC20-approve}.     * Requirements:     * - `spender` cannot be the zero address."
      },
      "balanceOf(address)": {
        "details": "See {IERC20-balanceOf}."
      },
      "decimals()": {
        "details": "Returns the number of decimals used to get its user representation. For example, if `decimals` equals `2`, a balance of `505` tokens should be displayed to a user as `5,05` (`505 / 10 ** 2`).     * Tokens usually opt for a value of 18, imitating the relationship between Ether and Wei. This is the value {ERC20} uses, unless {_setupDecimals} is called.     * NOTE: This information is only used for _display_ purposes: it in no way affects any of the arithmetic of the contract, including {IERC20-balanceOf} and {IERC20-transfer}."
      },
      "decreaseAllowance(address,uint256)": {
        "details": "Atomically decreases the allowance granted to `spender` by the caller.     * This is an alternative to {approve} that can be used as a mitigation for problems described in {IERC20-approve}.     * Emits an {Approval} event indicating the updated allowance.     * Requirements:     * - `spender` cannot be the zero address. - `spender` must have allowance for the caller of at least `subtractedValue`."
      },
      "increaseAllowance(address,uint256)": {
        "details": "Atomically increases the allowance granted to `spender` by the caller.     * This is an alternative to {approve} that can be used as a mitigation for problems described in {IERC20-approve}.     * Emits an {Approval} event indicating the updated allowance.     * Requirements:     * - `spender` cannot be the zero address."
      },
      "name()": {
        "details": "Returns the name of the token."
      },
      "owner()": {
        "details": "Returns the address of the current owner."
      },
      "paused()": {
        "details": "Returns true if the contract is paused, and false otherwise."
      },
      "renounceOwnership()": {
        "details": "Leaves the contract without owner. It will not be possible to call `onlyOwner` functions anymore. Can only be called by the current owner.     * NOTE: Renouncing ownership will leave the contract without an owner, thereby removing any functionality that is only available to the owner."
      },
      "symbol()": {
        "details": "Returns the symbol of the token, usually a shorter version of the name."
      },
      "totalSupply()": {
        "details": "See {IERC20-totalSupply}."
      },
      "transfer(address,uint256)": {
        "details": "See {IERC20-transfer}.     * Requirements:     * - `recipient` cannot be the zero address. - the caller must have a balance of at least `amount`."
      },
      "transferFrom(address,address,uint256)": {
        "details": "See {IERC20-transferFrom}.     * Emits an {Approval} event indicating the updated allowance. This is not required by the EIP. See the note at the beginning of {ERC20};     * Requirements: - `sender` and `recipient` cannot be the zero address. - `sender` must have a balance of at least `amount`. - the caller must have allowance for ``sender``'s tokens of at least `amount`."
      },
      "transferOwnership(address)": {
        "details": "Transfers ownership of the contract to a new account (`newOwner`). Can only be called by the current owner."
      }
    }
  },
  "userdoc": {
    "methods": {
      "constructor": "///////////////////////////////// ///// CONSTRUCTOR /////////////// /////////////////////////////////",
      "testFunction(uint256)": {
        "notice": "///////////////////////////////// ///// OTHER FUNCTIONS /////////// /////////////////////////////////"
      }
    }
  }
}