{
  "contractName": "RealitioMockup",
  "abi": [
    {
      "inputs": [
        {
          "internalType": "uint256",
          "name": "_result",
          "type": "uint256"
        }
      ],
      "name": "setResult",
      "outputs": [],
      "stateMutability": "nonpayable",
      "type": "function"
    },
    {
      "inputs": [
        {
          "internalType": "uint256",
          "name": "template_id",
          "type": "uint256"
        },
        {
          "internalType": "string",
          "name": "question",
          "type": "string"
        },
        {
          "internalType": "address",
          "name": "arbitrator",
          "type": "address"
        },
        {
          "internalType": "uint32",
          "name": "timeout",
          "type": "uint32"
        },
        {
          "internalType": "uint32",
          "name": "opening_ts",
          "type": "uint32"
        },
        {
          "internalType": "uint256",
          "name": "nonce",
          "type": "uint256"
        }
      ],
      "name": "askQuestion",
      "outputs": [
        {
          "internalType": "bytes32",
          "name": "",
          "type": "bytes32"
        }
      ],
      "stateMutability": "payable",
      "type": "function"
    },
    {
      "inputs": [
        {
          "internalType": "bytes32",
          "name": "question_id",
          "type": "bytes32"
        }
      ],
      "name": "resultFor",
      "outputs": [
        {
          "internalType": "bytes32",
          "name": "",
          "type": "bytes32"
        }
      ],
      "stateMutability": "view",
      "type": "function"
    },
    {
      "inputs": [
        {
          "internalType": "bytes32",
          "name": "question_id",
          "type": "bytes32"
        }
      ],
      "name": "isFinalized",
      "outputs": [
        {
          "internalType": "bool",
          "name": "",
          "type": "bool"
        }
      ],
      "stateMutability": "view",
      "type": "function"
    }
  ],
  "bytecode": "0x60806040526101a460005534801561001657600080fd5b5061034a806100266000396000f3fe60806040526004361061003f5760003560e01c8063762c38fd146100445780637f8d429e14610125578063812448a514610178578063d09cc57e146101b3575b600080fd5b61010f600480360360c081101561005a57600080fd5b81019080803590602001909291908035906020019064010000000081111561008157600080fd5b82018360208201111561009357600080fd5b803590602001918460018302840111640100000000831117156100b557600080fd5b9091929391929390803573ffffffffffffffffffffffffffffffffffffffff169060200190929190803563ffffffff169060200190929190803563ffffffff16906020019092919080359060200190929190505050610202565b6040518082815260200191505060405180910390f35b34801561013157600080fd5b5061015e6004803603602081101561014857600080fd5b8101908080359060200190929190505050610235565b604051808215151515815260200191505060405180910390f35b34801561018457600080fd5b506101b16004803603602081101561019b57600080fd5b8101908080359060200190929190505050610285565b005b3480156101bf57600080fd5b506101ec600480360360208110156101d657600080fd5b81019080803590602001909291905050506102c5565b6040518082815260200191505060405180910390f35b60007f8d293509129e26299990826db10c48241be5f59f2e4f61c0c9d550e4451e1a3860001b9050979650505050505050565b60007f8d293509129e26299990826db10c48241be5f59f2e4f61c0c9d550e4451e1a3860001b821461026657600080fd5b6101a4600054141561027b5760009050610280565b600190505b919050565b60458114156102ba577fffffffffffffffffffffffffffffffffffffffffffffffffffffffffffffffff6000819055506102c2565b806000819055505b50565b60006101a460005414156102d857600080fd5b7f8d293509129e26299990826db10c48241be5f59f2e4f61c0c9d550e4451e1a3860001b821461030757600080fd5b60005460001b905091905056fea2646970667358221220e79ce7746f29e357bef26f4596d5d63766ad57419c69f3d09991e069863765f064736f6c63430006070033",
  "immutableReferences": {},
  "source": "pragma solidity >=0.4.21 <0.7.0;\r\n\r\n\r\n// this is only for ganache testing. Public chain deployments will use the existing Realitio contracts.\r\n\r\ncontract RealitioMockup {\r\n  uint256 result = 420;\r\n\r\n  function setResult(uint256 _result) public {\r\n    if (_result == 69) {\r\n      result = ((2**256) - 1);\r\n    } else {\r\n      result = _result;\r\n    }\r\n  }\r\n\r\n  function askQuestion(\r\n    uint256 template_id,\r\n    string calldata question,\r\n    address arbitrator,\r\n    uint32 timeout,\r\n    uint32 opening_ts,\r\n    uint256 nonce\r\n  ) external payable returns (bytes32) {\r\n    // to get rid of compiler warnings:\r\n    template_id;\r\n    nonce;\r\n    question;\r\n    arbitrator;\r\n    timeout;\r\n    opening_ts;\r\n    return 0x8d293509129e26299990826db10c48241be5f59f2e4f61c0c9d550e4451e1a38;\r\n  }\r\n\r\n  // 420 = not resolved\r\n  // 69 = invalid\r\n  function resultFor(bytes32 question_id) external view returns (bytes32) {\r\n    require(result != 420);\r\n    require(\r\n      question_id ==\r\n        0x8d293509129e26299990826db10c48241be5f59f2e4f61c0c9d550e4451e1a38\r\n    );\r\n    return bytes32(result);\r\n  }\r\n\r\n  function isFinalized(bytes32 question_id) external view returns (bool) {\r\n    require(\r\n      question_id ==\r\n        0x8d293509129e26299990826db10c48241be5f59f2e4f61c0c9d550e4451e1a38\r\n    );\r\n    if (result == 420) {\r\n      return false;\r\n    } else {\r\n      return true;\r\n    }\r\n  }\r\n}\r\n",
  "sourcePath": "C:\\Users\\mail\\Personal\\ETH-global\\BetTogether-Contracts\\contracts\\mockups\\realitioMockup.sol",
  "compiler": {
    "name": "solc",
    "version": "0.6.7+commit.b8d736ae.Emscripten.clang"
  },
  "schemaVersion": "3.1.0",
  "updatedAt": "2020-05-09T23:29:34.905Z",
  "networkType": "ethereum",
  "devdoc": {
    "methods": {}
  },
  "userdoc": {
    "methods": {}
  }
}